{
  "abi": [
    {
      "inputs": [],
      "stateMutability": "nonpayable",
      "type": "constructor"
    },
    {
      "anonymous": false,
      "inputs": [
        {
          "indexed": false,
          "internalType": "address",
          "name": "player",
          "type": "address"
        },
        {
          "indexed": false,
          "internalType": "uint256",
          "name": "amount",
          "type": "uint256"
        }
      ],
      "name": "GameCreated",
      "type": "event"
    },
    {
      "anonymous": false,
      "inputs": [
        {
          "indexed": false,
          "internalType": "uint256",
          "name": "index",
          "type": "uint256"
        },
        {
          "indexed": false,
          "internalType": "address",
          "name": "player",
          "type": "address"
        }
      ],
      "name": "GameJoined",
      "type": "event"
    },
    {
      "anonymous": false,
      "inputs": [
        {
          "indexed": false,
          "internalType": "uint256",
          "name": "index",
          "type": "uint256"
        },
        {
          "indexed": false,
          "internalType": "address",
          "name": "winner",
          "type": "address"
        },
        {
          "indexed": false,
          "internalType": "uint256",
          "name": "amount",
          "type": "uint256"
        }
      ],
      "name": "GameResult",
      "type": "event"
    },
    {
      "inputs": [
        {
          "internalType": "uint256",
          "name": "newInterval",
          "type": "uint256"
        }
      ],
      "name": "changeDispersalInterval",
      "outputs": [],
      "stateMutability": "nonpayable",
      "type": "function"
    },
    {
      "inputs": [
        {
          "internalType": "uint256",
          "name": "newFeePercent",
          "type": "uint256"
        }
      ],
      "name": "changeFeePercent",
      "outputs": [],
      "stateMutability": "nonpayable",
      "type": "function"
    },
    {
      "inputs": [
        {
          "internalType": "address",
          "name": "newRecipient",
          "type": "address"
        }
      ],
      "name": "changePayoutRecipient",
      "outputs": [],
      "stateMutability": "nonpayable",
      "type": "function"
    },
    {
      "inputs": [],
      "name": "create_game",
      "outputs": [],
      "stateMutability": "payable",
      "type": "function"
    },
    {
      "inputs": [],
      "name": "feePercent",
      "outputs": [
        {
          "internalType": "uint256",
          "name": "",
          "type": "uint256"
        }
      ],
      "stateMutability": "view",
      "type": "function"
    },
    {
      "inputs": [],
      "name": "getContractBalance",
      "outputs": [
        {
          "internalType": "uint256",
          "name": "",
          "type": "uint256"
        }
      ],
      "stateMutability": "view",
      "type": "function"
    },
    {
      "inputs": [],
      "name": "get_game_count",
      "outputs": [
        {
          "internalType": "uint256",
          "name": "",
          "type": "uint256"
        }
      ],
      "stateMutability": "view",
      "type": "function"
    },
    {
      "inputs": [
        {
          "internalType": "uint256",
          "name": "_index",
          "type": "uint256"
        }
      ],
      "name": "get_game_info",
      "outputs": [
        {
          "internalType": "uint256",
          "name": "_i",
          "type": "uint256"
        },
        {
          "internalType": "address",
          "name": "_player1",
          "type": "address"
        },
        {
          "internalType": "address",
          "name": "_player2",
          "type": "address"
        },
        {
          "internalType": "uint256",
          "name": "_amount",
          "type": "uint256"
        },
        {
          "internalType": "address",
          "name": "_winner",
          "type": "address"
        },
        {
          "internalType": "uint256",
          "name": "_timestamp",
          "type": "uint256"
        }
      ],
      "stateMutability": "view",
      "type": "function"
    },
    {
      "inputs": [
        {
          "internalType": "uint256",
          "name": "_index",
          "type": "uint256"
        }
      ],
      "name": "join_game",
      "outputs": [],
      "stateMutability": "payable",
      "type": "function"
    },
    {
      "inputs": [
        {
          "internalType": "address",
          "name": "_newOwner",
          "type": "address"
        }
      ],
      "name": "ownerShipTransfer",
      "outputs": [],
      "stateMutability": "nonpayable",
      "type": "function"
    },
    {
      "inputs": [
        {
          "internalType": "bytes32",
          "name": "requestId",
          "type": "bytes32"
        },
        {
          "internalType": "uint256",
          "name": "randomness",
          "type": "uint256"
        }
      ],
      "name": "rawFulfillRandomness",
      "outputs": [],
      "stateMutability": "nonpayable",
      "type": "function"
    },
    {
      "stateMutability": "payable",
      "type": "receive"
    }
  ],
  "bytecode": "60c0604052600a80546001600160a01b031990811673a5e0829caced8ffdd4de3c43696c57f7d7a678ff17909155600b805490911673aa1dc356dc4b18f30c347798fd5379f3d77abc5b17905534801561005857600080fd5b507f3d2341adb2d31f1c5530cdc622016af293177ae000000000000000000000000060a0527fb0897686c545045afc77cf20ec7a532e3120e0f10000000000000000000000006080527ff86195cf7690c55907b2b611ebb7343a6f649bff128701cc542f0569e2c549da600155655af3107a400060025560006007819055600c8054336001600160a01b03199182168117909255600560035560068054909116909117905573b0897686c545045afc77cf20ec7a532e3120e0f190733d2341adb2d31f1c5530cdc622016af293177ae09061140190610150903980610c7d5280610ef6525080610a4e5280610ec752506114016000f3fe6080604052600436106100a05760003560e01c80636f9fb98a116100645780636f9fb98a146101f35780637fd6f15c146102085780638d0e037f1461021d57806394985ddd14610247578063c9ca489514610277578063cd635b71146102aa5761010d565b8063311314831461011257806334eddf3e1461017d578063428889b2146101a757806342909a9e146101ce5780634a7b26ec146101d65761010d565b3661010d57600a546001600160a01b031633148015906100cb5750600b546001600160a01b03163314155b1561010b57600c546040516001600160a01b03909116903480156108fc02916000818181858888f19350505050158015610109573d6000803e3d6000fd5b505b005b600080fd5b34801561011e57600080fd5b5061013c6004803603602081101561013557600080fd5b50356102dd565b604080519687526001600160a01b039586166020880152938516868501526060860192909252909216608084015260a0830191909152519081900360c00190f35b34801561018957600080fd5b5061010b600480360360208110156101a057600080fd5b503561036c565b3480156101b357600080fd5b506101bc610414565b60408051918252519081900360200190f35b61010b61041a565b61010b600480360360208110156101ec57600080fd5b5035610508565b3480156101ff57600080fd5b506101bc610c16565b34801561021457600080fd5b506101bc610c1a565b34801561022957600080fd5b5061010b6004803603602081101561024057600080fd5b5035610c20565b34801561025357600080fd5b5061010b6004803603604081101561026a57600080fd5b5080359060200135610c72565b34801561028357600080fd5b5061010b6004803603602081101561029a57600080fd5b50356001600160a01b0316610cfd565b3480156102b657600080fd5b5061010b600480360360208110156102cd57600080fd5b50356001600160a01b0316610d6c565b6000806000806000806102ee61135a565b505050600085815260086020908152604091829020825160c0810184528154815260018201546001600160a01b039081169382018490526002830154811694820185905260038301546060830181905260048401549091166080830181905260059093015460a0909201829052989992989397509295509350909150565b600c546001600160a01b031633146103b9576040805162461bcd60e51b815260206004820152601f60248201526000805160206113ac833981519152604482015290519081900360640190fd5b600581111561040f576040805162461bcd60e51b815260206004820152601e60248201527f6e6577206665652063616e6e6f74206265206d6f7265207468616e2035250000604482015290519081900360640190fd5b600455565b60075490565b61042261135a565b506040805160c0810182526007805480835233602080850182815230868801818152346060890181815260808a019384524260a08b01908152600098895260088752978b90208a5181559451600180870180546001600160a01b03199081166001600160a01b0394851617909155945160028801805487169184169190911790559151600387015593516004860180549094169416939093179091559451600590920191909155845401909355845190815291820152825191927f306841c3fce8498c2d9b7194b8da4c04d03847394e237b625ce6d029b107f07792918290030190a150565b61051061135a565b50600081815260086020908152604091829020825160c0810184528154815260018201546001600160a01b039081169382019390935260028201548316938101939093526003810154606080850191909152600482015490921660808401526005015460a0830152610580610ddb565b9050816060015134146105c9576040805162461bcd60e51b815260206004820152600c60248201526b496e76616c6964206265742160a01b604482015290519081900360640190fd5b60408201516001600160a01b03163014610620576040805162461bcd60e51b815260206004820152601360248201527211d85b5948185b1c9958591e481a9bda5b9959606a1b604482015290519081900360640190fd5b60808201516001600160a01b03163014610677576040805162461bcd60e51b815260206004820152601360248201527211d85b5948185b1c9958591e481c1b185e5959606a1b604482015290519081900360640190fd5b600a54600254604080516307c0329d60e21b815260048101838152602482019283528551604483015285516000956001600160a01b031694631f00ca74949093889392606490910190602080860191028083838c5b838110156106e45781810151838201526020016106cc565b50505050905001935050505060006040518083038186803b15801561070857600080fd5b505afa15801561071c573d6000803e3d6000fd5b505050506040513d6000823e601f3d908101601f19168201604052602081101561074557600080fd5b810190808051604051939291908464010000000082111561076557600080fd5b90830190602082018581111561077a57600080fd5b825186602082028301116401000000008211171561079757600080fd5b82525081516020918201928201910280838360005b838110156107c45781810151838201526020016107ac565b505050509050016040525050506000815181106107dd57fe5b60200260200101519050600a60009054906101000a90046001600160a01b03166001600160a01b031663fb3bdb4182600254853042600f016040518663ffffffff1660e01b81526004018085815260200180602001846001600160a01b03166001600160a01b03168152602001838152602001828103825285818151815260200191508051906020019060200280838360005b83811015610888578181015183820152602001610870565b50505050905001955050505050506000604051808303818588803b1580156108af57600080fd5b505af11580156108c3573d6000803e3d6000fd5b50505050506040513d6000823e601f3d908101601f1916820160405260208110156108ed57600080fd5b810190808051604051939291908464010000000082111561090d57600080fd5b90830190602082018581111561092257600080fd5b825186602082028301116401000000008211171561093f57600080fd5b82525081516020918201928201910280838360005b8381101561096c578181015183820152602001610954565b50505050919091016040818152600b5460025463095ea7b360e01b84526001600160a01b0390911660048401526024830152517353e0bca35ec356bd5dddfebbd1fc0fd03fabad39965063095ea7b395506044808301955060209450909250908290030181600087803b1580156109e257600080fd5b505af11580156109f6573d6000803e3d6000fd5b505050506040513d6020811015610a0c57600080fd5b5050600b5460025460408051632b7f092360e01b815260048101929092527353e0bca35ec356bd5dddfebbd1fc0fd03fabad3960248301526001600160a01b037f0000000000000000000000000000000000000000000000000000000000000000811660448401529051921691632b7f09239160648082019260009290919082900301818387803b158015610aa057600080fd5b505af1158015610ab4573d6000803e3d6000fd5b5050336040868101918252606087018051348790030181526000898152600860209081529281208951815592890151600180850180546001600160a01b03199081166001600160a01b03948516179091559551600280870180548916928516929092179091559351600386015560808b015160048601805490971692169190911790945560a089015160059093019290925591549154909350610b58925042610ec3565b60008181526009602090815260409182902087518155818801516001820180546001600160a01b039283166001600160a01b031991821617909155848a015160028401805491841691831691909117905560608a0151600384015560808a015160048401805491909316911617905560a08801516005909101558151888152339181019190915281519293507f45c4f9cbafe186141862608c493f28b823fde4c2142bedc3f5169961a73fdd22929081900390910190a15050505050565b4790565b60045481565b600c546001600160a01b03163314610c6d576040805162461bcd60e51b815260206004820152601f60248201526000805160206113ac833981519152604482015290519081900360640190fd5b600355565b336001600160a01b037f00000000000000000000000000000000000000000000000000000000000000001614610cef576040805162461bcd60e51b815260206004820152601f60248201527f4f6e6c7920565246436f6f7264696e61746f722063616e2066756c66696c6c00604482015290519081900360640190fd5b610cf98282611085565b5050565b600c546001600160a01b03163314610d4a576040805162461bcd60e51b815260206004820152601f60248201526000805160206113ac833981519152604482015290519081900360640190fd5b600680546001600160a01b0319166001600160a01b0392909216919091179055565b600c546001600160a01b03163314610db9576040805162461bcd60e51b815260206004820152601f60248201526000805160206113ac833981519152604482015290519081900360640190fd5b600c80546001600160a01b0319166001600160a01b0392909216919091179055565b60408051600380825260808201909252606091829190602082018380368337019050509050730d500b1d8e8ef31e21c99d1db9a6444d3adf127081600081518110610e2257fe5b60200260200101906001600160a01b031690816001600160a01b031681525050737ceb23fd6bc0add59e62ac25578270cff1b9f61981600181518110610e6457fe5b60200260200101906001600160a01b031690816001600160a01b0316815250507353e0bca35ec356bd5dddfebbd1fc0fd03fabad3981600281518110610ea657fe5b6001600160a01b0390921660209283029190910190910152905090565b60007f00000000000000000000000000000000000000000000000000000000000000006001600160a01b0316634000aea07f000000000000000000000000000000000000000000000000000000000000000085878660405160200180838152602001828152602001925050506040516020818303038152906040526040518463ffffffff1660e01b815260040180846001600160a01b03166001600160a01b0316815260200183815260200180602001828103825283818151815260200191508051906020019080838360005b83811015610fa8578181015183820152602001610f90565b50505050905090810190601f168015610fd55780820380516001836020036101000a031916815260200191505b50945050505050602060405180830381600087803b158015610ff657600080fd5b505af115801561100a573d6000803e3d6000fd5b505050506040513d602081101561102057600080fd5b505060008481526020819052604081205461104090869085903090611286565b60008681526020819052604090205490915061106390600163ffffffff6112cd16565b60008681526020819052604090205561107c858261132e565b95945050505050565b61108d61135a565b50600082815260096020908152604091829020825160c0810184528154815260018201546001600160a01b039081169382019390935260028083015484169482019490945260038201546060820152600482015490921660808301526005015460a08201529082066111115760208101516001600160a01b03166080820152611125565b60408101516001600160a01b031660808201525b8051600090815260086020908152604080832084518155918401516001830180546001600160a01b039283166001600160a01b031991821617909155828601516002850180549184169183169190911790556060860151600385018190556080870151600480870180549290951691909316811790935560a0870151600595860155905460649081039091020492839055905190926108fc831502929190818181858888f193505050501580156111e0573d6000803e3d6000fd5b506003548151816111ed57fe5b0661122d576006546040516001600160a01b03909116904780156108fc02916000818181858888f1935050505015801561122b573d6000803e3d6000fd5b505b80516080820151606080840151604080519485526001600160a01b0390931660208501528383015290517f66624a2ea04d723964b7325ea58b496e54d365957d5f1e150b68f812386bb7c79281900390910190a1505050565b60408051602080820196909652808201949094526001600160a01b039290921660608401526080808401919091528151808403909101815260a09092019052805191012090565b600082820183811015611327576040805162461bcd60e51b815260206004820152601b60248201527f536166654d6174683a206164646974696f6e206f766572666c6f770000000000604482015290519081900360640190fd5b9392505050565b604080516020808201949094528082019290925280518083038201815260609092019052805191012090565b6040518060c001604052806000815260200160006001600160a01b0316815260200160006001600160a01b031681526020016000815260200160006001600160a01b0316815260200160008152509056fe46756e6374696f6e206f6e6c792063616c6c61626c65206279206f776e657200a26469706673582212207a4da53bbbb12bafcd186595c5da7b984a21ebd3f4543381814c6760c58e84a264736f6c63430006060033",
  "bytecodeSha1": "612658992aff3bbb87319c6aff3210dafa462d7c",
  "compiler": {
    "evm_version": "istanbul",
    "optimizer": {
      "enabled": true,
      "runs": 200
    },
    "version": "0.6.6+commit.6c089d02"
  },
  "contractName": "Coinflip",
  "language": "Solidity",
  "natspec": {
    "methods": {}
  },
  "opcodes": "PUSH1 0x80 PUSH1 0x40 MSTORE PUSH1 0x4 CALLDATASIZE LT PUSH2 0xA0 JUMPI PUSH1 0x0 CALLDATALOAD PUSH1 0xE0 SHR DUP1 PUSH4 0x6F9FB98A GT PUSH2 0x64 JUMPI DUP1 PUSH4 0x6F9FB98A EQ PUSH2 0x1F3 JUMPI DUP1 PUSH4 0x7FD6F15C EQ PUSH2 0x208 JUMPI DUP1 PUSH4 0x8D0E037F EQ PUSH2 0x21D JUMPI DUP1 PUSH4 0x94985DDD EQ PUSH2 0x247 JUMPI DUP1 PUSH4 0xC9CA4895 EQ PUSH2 0x277 JUMPI DUP1 PUSH4 0xCD635B71 EQ PUSH2 0x2AA JUMPI PUSH2 0x10D JUMP JUMPDEST DUP1 PUSH4 0x31131483 EQ PUSH2 0x112 JUMPI DUP1 PUSH4 0x34EDDF3E EQ PUSH2 0x17D JUMPI DUP1 PUSH4 0x428889B2 EQ PUSH2 0x1A7 JUMPI DUP1 PUSH4 0x42909A9E EQ PUSH2 0x1CE JUMPI DUP1 PUSH4 0x4A7B26EC EQ PUSH2 0x1D6 JUMPI PUSH2 0x10D JUMP JUMPDEST CALLDATASIZE PUSH2 0x10D JUMPI PUSH1 0xA SLOAD PUSH1 0x1 PUSH1 0x1 PUSH1 0xA0 SHL SUB AND CALLER EQ DUP1 ISZERO SWAP1 PUSH2 0xCB JUMPI POP PUSH1 0xB SLOAD PUSH1 0x1 PUSH1 0x1 PUSH1 0xA0 SHL SUB AND CALLER EQ ISZERO JUMPDEST ISZERO PUSH2 0x10B JUMPI PUSH1 0xC SLOAD PUSH1 0x40 MLOAD PUSH1 0x1 PUSH1 0x1 PUSH1 0xA0 SHL SUB SWAP1 SWAP2 AND SWAP1 CALLVALUE DUP1 ISZERO PUSH2 0x8FC MUL SWAP2 PUSH1 0x0 DUP2 DUP2 DUP2 DUP6 DUP9 DUP9 CALL SWAP4 POP POP POP POP ISZERO DUP1 ISZERO PUSH2 0x109 JUMPI RETURNDATASIZE PUSH1 0x0 DUP1 RETURNDATACOPY RETURNDATASIZE PUSH1 0x0 REVERT JUMPDEST POP JUMPDEST STOP JUMPDEST PUSH1 0x0 DUP1 REVERT JUMPDEST CALLVALUE DUP1 ISZERO PUSH2 0x11E JUMPI PUSH1 0x0 DUP1 REVERT JUMPDEST POP PUSH2 0x13C PUSH1 0x4 DUP1 CALLDATASIZE SUB PUSH1 0x20 DUP2 LT ISZERO PUSH2 0x135 JUMPI PUSH1 0x0 DUP1 REVERT JUMPDEST POP CALLDATALOAD PUSH2 0x2DD JUMP JUMPDEST PUSH1 0x40 DUP1 MLOAD SWAP7 DUP8 MSTORE PUSH1 0x1 PUSH1 0x1 PUSH1 0xA0 SHL SUB SWAP6 DUP7 AND PUSH1 0x20 DUP9 ADD MSTORE SWAP4 DUP6 AND DUP7 DUP6 ADD MSTORE PUSH1 0x60 DUP7 ADD SWAP3 SWAP1 SWAP3 MSTORE SWAP1 SWAP3 AND PUSH1 0x80 DUP5 ADD MSTORE PUSH1 0xA0 DUP4 ADD SWAP2 SWAP1 SWAP2 MSTORE MLOAD SWAP1 DUP2 SWAP1 SUB PUSH1 0xC0 ADD SWAP1 RETURN JUMPDEST CALLVALUE DUP1 ISZERO PUSH2 0x189 JUMPI PUSH1 0x0 DUP1 REVERT JUMPDEST POP PUSH2 0x10B PUSH1 0x4 DUP1 CALLDATASIZE SUB PUSH1 0x20 DUP2 LT ISZERO PUSH2 0x1A0 JUMPI PUSH1 0x0 DUP1 REVERT JUMPDEST POP CALLDATALOAD PUSH2 0x36C JUMP JUMPDEST CALLVALUE DUP1 ISZERO PUSH2 0x1B3 JUMPI PUSH1 0x0 DUP1 REVERT JUMPDEST POP PUSH2 0x1BC PUSH2 0x414 JUMP JUMPDEST PUSH1 0x40 DUP1 MLOAD SWAP2 DUP3 MSTORE MLOAD SWAP1 DUP2 SWAP1 SUB PUSH1 0x20 ADD SWAP1 RETURN JUMPDEST PUSH2 0x10B PUSH2 0x41A JUMP JUMPDEST PUSH2 0x10B PUSH1 0x4 DUP1 CALLDATASIZE SUB PUSH1 0x20 DUP2 LT ISZERO PUSH2 0x1EC JUMPI PUSH1 0x0 DUP1 REVERT JUMPDEST POP CALLDATALOAD PUSH2 0x508 JUMP JUMPDEST CALLVALUE DUP1 ISZERO PUSH2 0x1FF JUMPI PUSH1 0x0 DUP1 REVERT JUMPDEST POP PUSH2 0x1BC PUSH2 0xC16 JUMP JUMPDEST CALLVALUE DUP1 ISZERO PUSH2 0x214 JUMPI PUSH1 0x0 DUP1 REVERT JUMPDEST POP PUSH2 0x1BC PUSH2 0xC1A JUMP JUMPDEST CALLVALUE DUP1 ISZERO PUSH2 0x229 JUMPI PUSH1 0x0 DUP1 REVERT JUMPDEST POP PUSH2 0x10B PUSH1 0x4 DUP1 CALLDATASIZE SUB PUSH1 0x20 DUP2 LT ISZERO PUSH2 0x240 JUMPI PUSH1 0x0 DUP1 REVERT JUMPDEST POP CALLDATALOAD PUSH2 0xC20 JUMP JUMPDEST CALLVALUE DUP1 ISZERO PUSH2 0x253 JUMPI PUSH1 0x0 DUP1 REVERT JUMPDEST POP PUSH2 0x10B PUSH1 0x4 DUP1 CALLDATASIZE SUB PUSH1 0x40 DUP2 LT ISZERO PUSH2 0x26A JUMPI PUSH1 0x0 DUP1 REVERT JUMPDEST POP DUP1 CALLDATALOAD SWAP1 PUSH1 0x20 ADD CALLDATALOAD PUSH2 0xC72 JUMP JUMPDEST CALLVALUE DUP1 ISZERO PUSH2 0x283 JUMPI PUSH1 0x0 DUP1 REVERT JUMPDEST POP PUSH2 0x10B PUSH1 0x4 DUP1 CALLDATASIZE SUB PUSH1 0x20 DUP2 LT ISZERO PUSH2 0x29A JUMPI PUSH1 0x0 DUP1 REVERT JUMPDEST POP CALLDATALOAD PUSH1 0x1 PUSH1 0x1 PUSH1 0xA0 SHL SUB AND PUSH2 0xCFD JUMP JUMPDEST CALLVALUE DUP1 ISZERO PUSH2 0x2B6 JUMPI PUSH1 0x0 DUP1 REVERT JUMPDEST POP PUSH2 0x10B PUSH1 0x4 DUP1 CALLDATASIZE SUB PUSH1 0x20 DUP2 LT ISZERO PUSH2 0x2CD JUMPI PUSH1 0x0 DUP1 REVERT JUMPDEST POP CALLDATALOAD PUSH1 0x1 PUSH1 0x1 PUSH1 0xA0 SHL SUB AND PUSH2 0xD6C JUMP JUMPDEST PUSH1 0x0 DUP1 PUSH1 0x0 DUP1 PUSH1 0x0 DUP1 PUSH2 0x2EE PUSH2 0x135A JUMP JUMPDEST POP POP POP PUSH1 0x0 DUP6 DUP2 MSTORE PUSH1 0x8 PUSH1 0x20 SWAP1 DUP2 MSTORE PUSH1 0x40 SWAP2 DUP3 SWAP1 KECCAK256 DUP3 MLOAD PUSH1 0xC0 DUP2 ADD DUP5 MSTORE DUP2 SLOAD DUP2 MSTORE PUSH1 0x1 DUP3 ADD SLOAD PUSH1 0x1 PUSH1 0x1 PUSH1 0xA0 SHL SUB SWAP1 DUP2 AND SWAP4 DUP3 ADD DUP5 SWAP1 MSTORE PUSH1 0x2 DUP4 ADD SLOAD DUP2 AND SWAP5 DUP3 ADD DUP6 SWAP1 MSTORE PUSH1 0x3 DUP4 ADD SLOAD PUSH1 0x60 DUP4 ADD DUP2 SWAP1 MSTORE PUSH1 0x4 DUP5 ADD SLOAD SWAP1 SWAP2 AND PUSH1 0x80 DUP4 ADD DUP2 SWAP1 MSTORE PUSH1 0x5 SWAP1 SWAP4 ADD SLOAD PUSH1 0xA0 SWAP1 SWAP3 ADD DUP3 SWAP1 MSTORE SWAP9 SWAP10 SWAP3 SWAP9 SWAP4 SWAP8 POP SWAP3 SWAP6 POP SWAP4 POP SWAP1 SWAP2 POP JUMP JUMPDEST PUSH1 0xC SLOAD PUSH1 0x1 PUSH1 0x1 PUSH1 0xA0 SHL SUB AND CALLER EQ PUSH2 0x3B9 JUMPI PUSH1 0x40 DUP1 MLOAD PUSH3 0x461BCD PUSH1 0xE5 SHL DUP2 MSTORE PUSH1 0x20 PUSH1 0x4 DUP3 ADD MSTORE PUSH1 0x1F PUSH1 0x24 DUP3 ADD MSTORE PUSH1 0x0 DUP1 MLOAD PUSH1 0x20 PUSH2 0x13AC DUP4 CODECOPY DUP2 MLOAD SWAP2 MSTORE PUSH1 0x44 DUP3 ADD MSTORE SWAP1 MLOAD SWAP1 DUP2 SWAP1 SUB PUSH1 0x64 ADD SWAP1 REVERT JUMPDEST PUSH1 0x5 DUP2 GT ISZERO PUSH2 0x40F JUMPI PUSH1 0x40 DUP1 MLOAD PUSH3 0x461BCD PUSH1 0xE5 SHL DUP2 MSTORE PUSH1 0x20 PUSH1 0x4 DUP3 ADD MSTORE PUSH1 0x1E PUSH1 0x24 DUP3 ADD MSTORE PUSH32 0x6E6577206665652063616E6E6F74206265206D6F7265207468616E2035250000 PUSH1 0x44 DUP3 ADD MSTORE SWAP1 MLOAD SWAP1 DUP2 SWAP1 SUB PUSH1 0x64 ADD SWAP1 REVERT JUMPDEST PUSH1 0x4 SSTORE JUMP JUMPDEST PUSH1 0x7 SLOAD SWAP1 JUMP JUMPDEST PUSH2 0x422 PUSH2 0x135A JUMP JUMPDEST POP PUSH1 0x40 DUP1 MLOAD PUSH1 0xC0 DUP2 ADD DUP3 MSTORE PUSH1 0x7 DUP1 SLOAD DUP1 DUP4 MSTORE CALLER PUSH1 0x20 DUP1 DUP6 ADD DUP3 DUP2 MSTORE ADDRESS DUP7 DUP9 ADD DUP2 DUP2 MSTORE CALLVALUE PUSH1 0x60 DUP10 ADD DUP2 DUP2 MSTORE PUSH1 0x80 DUP11 ADD SWAP4 DUP5 MSTORE TIMESTAMP PUSH1 0xA0 DUP12 ADD SWAP1 DUP2 MSTORE PUSH1 0x0 SWAP9 DUP10 MSTORE PUSH1 0x8 DUP8 MSTORE SWAP8 DUP12 SWAP1 KECCAK256 DUP11 MLOAD DUP2 SSTORE SWAP5 MLOAD PUSH1 0x1 DUP1 DUP8 ADD DUP1 SLOAD PUSH1 0x1 PUSH1 0x1 PUSH1 0xA0 SHL SUB NOT SWAP1 DUP2 AND PUSH1 0x1 PUSH1 0x1 PUSH1 0xA0 SHL SUB SWAP5 DUP6 AND OR SWAP1 SWAP2 SSTORE SWAP5 MLOAD PUSH1 0x2 DUP9 ADD DUP1 SLOAD DUP8 AND SWAP2 DUP5 AND SWAP2 SWAP1 SWAP2 OR SWAP1 SSTORE SWAP2 MLOAD PUSH1 0x3 DUP8 ADD SSTORE SWAP4 MLOAD PUSH1 0x4 DUP7 ADD DUP1 SLOAD SWAP1 SWAP5 AND SWAP5 AND SWAP4 SWAP1 SWAP4 OR SWAP1 SWAP2 SSTORE SWAP5 MLOAD PUSH1 0x5 SWAP1 SWAP3 ADD SWAP2 SWAP1 SWAP2 SSTORE DUP5 SLOAD ADD SWAP1 SWAP4 SSTORE DUP5 MLOAD SWAP1 DUP2 MSTORE SWAP2 DUP3 ADD MSTORE DUP3 MLOAD SWAP2 SWAP3 PUSH32 0x306841C3FCE8498C2D9B7194B8DA4C04D03847394E237B625CE6D029B107F077 SWAP3 SWAP2 DUP3 SWAP1 SUB ADD SWAP1 LOG1 POP JUMP JUMPDEST PUSH2 0x510 PUSH2 0x135A JUMP JUMPDEST POP PUSH1 0x0 DUP2 DUP2 MSTORE PUSH1 0x8 PUSH1 0x20 SWAP1 DUP2 MSTORE PUSH1 0x40 SWAP2 DUP3 SWAP1 KECCAK256 DUP3 MLOAD PUSH1 0xC0 DUP2 ADD DUP5 MSTORE DUP2 SLOAD DUP2 MSTORE PUSH1 0x1 DUP3 ADD SLOAD PUSH1 0x1 PUSH1 0x1 PUSH1 0xA0 SHL SUB SWAP1 DUP2 AND SWAP4 DUP3 ADD SWAP4 SWAP1 SWAP4 MSTORE PUSH1 0x2 DUP3 ADD SLOAD DUP4 AND SWAP4 DUP2 ADD SWAP4 SWAP1 SWAP4 MSTORE PUSH1 0x3 DUP2 ADD SLOAD PUSH1 0x60 DUP1 DUP6 ADD SWAP2 SWAP1 SWAP2 MSTORE PUSH1 0x4 DUP3 ADD SLOAD SWAP1 SWAP3 AND PUSH1 0x80 DUP5 ADD MSTORE PUSH1 0x5 ADD SLOAD PUSH1 0xA0 DUP4 ADD MSTORE PUSH2 0x580 PUSH2 0xDDB JUMP JUMPDEST SWAP1 POP DUP2 PUSH1 0x60 ADD MLOAD CALLVALUE EQ PUSH2 0x5C9 JUMPI PUSH1 0x40 DUP1 MLOAD PUSH3 0x461BCD PUSH1 0xE5 SHL DUP2 MSTORE PUSH1 0x20 PUSH1 0x4 DUP3 ADD MSTORE PUSH1 0xC PUSH1 0x24 DUP3 ADD MSTORE PUSH12 0x496E76616C69642062657421 PUSH1 0xA0 SHL PUSH1 0x44 DUP3 ADD MSTORE SWAP1 MLOAD SWAP1 DUP2 SWAP1 SUB PUSH1 0x64 ADD SWAP1 REVERT JUMPDEST PUSH1 0x40 DUP3 ADD MLOAD PUSH1 0x1 PUSH1 0x1 PUSH1 0xA0 SHL SUB AND ADDRESS EQ PUSH2 0x620 JUMPI PUSH1 0x40 DUP1 MLOAD PUSH3 0x461BCD PUSH1 0xE5 SHL DUP2 MSTORE PUSH1 0x20 PUSH1 0x4 DUP3 ADD MSTORE PUSH1 0x13 PUSH1 0x24 DUP3 ADD MSTORE PUSH19 0x11D85B5948185B1C9958591E481A9BDA5B9959 PUSH1 0x6A SHL PUSH1 0x44 DUP3 ADD MSTORE SWAP1 MLOAD SWAP1 DUP2 SWAP1 SUB PUSH1 0x64 ADD SWAP1 REVERT JUMPDEST PUSH1 0x80 DUP3 ADD MLOAD PUSH1 0x1 PUSH1 0x1 PUSH1 0xA0 SHL SUB AND ADDRESS EQ PUSH2 0x677 JUMPI PUSH1 0x40 DUP1 MLOAD PUSH3 0x461BCD PUSH1 0xE5 SHL DUP2 MSTORE PUSH1 0x20 PUSH1 0x4 DUP3 ADD MSTORE PUSH1 0x13 PUSH1 0x24 DUP3 ADD MSTORE PUSH19 0x11D85B5948185B1C9958591E481C1B185E5959 PUSH1 0x6A SHL PUSH1 0x44 DUP3 ADD MSTORE SWAP1 MLOAD SWAP1 DUP2 SWAP1 SUB PUSH1 0x64 ADD SWAP1 REVERT JUMPDEST PUSH1 0xA SLOAD PUSH1 0x2 SLOAD PUSH1 0x40 DUP1 MLOAD PUSH4 0x7C0329D PUSH1 0xE2 SHL DUP2 MSTORE PUSH1 0x4 DUP2 ADD DUP4 DUP2 MSTORE PUSH1 0x24 DUP3 ADD SWAP3 DUP4 MSTORE DUP6 MLOAD PUSH1 0x44 DUP4 ADD MSTORE DUP6 MLOAD PUSH1 0x0 SWAP6 PUSH1 0x1 PUSH1 0x1 PUSH1 0xA0 SHL SUB AND SWAP5 PUSH4 0x1F00CA74 SWAP5 SWAP1 SWAP4 DUP9 SWAP4 SWAP3 PUSH1 0x64 SWAP1 SWAP2 ADD SWAP1 PUSH1 0x20 DUP1 DUP7 ADD SWAP2 MUL DUP1 DUP4 DUP4 DUP13 JUMPDEST DUP4 DUP2 LT ISZERO PUSH2 0x6E4 JUMPI DUP2 DUP2 ADD MLOAD DUP4 DUP3 ADD MSTORE PUSH1 0x20 ADD PUSH2 0x6CC JUMP JUMPDEST POP POP POP POP SWAP1 POP ADD SWAP4 POP POP POP POP PUSH1 0x0 PUSH1 0x40 MLOAD DUP1 DUP4 SUB DUP2 DUP7 DUP1 EXTCODESIZE ISZERO DUP1 ISZERO PUSH2 0x708 JUMPI PUSH1 0x0 DUP1 REVERT JUMPDEST POP GAS STATICCALL ISZERO DUP1 ISZERO PUSH2 0x71C JUMPI RETURNDATASIZE PUSH1 0x0 DUP1 RETURNDATACOPY RETURNDATASIZE PUSH1 0x0 REVERT JUMPDEST POP POP POP POP PUSH1 0x40 MLOAD RETURNDATASIZE PUSH1 0x0 DUP3 RETURNDATACOPY PUSH1 0x1F RETURNDATASIZE SWAP1 DUP2 ADD PUSH1 0x1F NOT AND DUP3 ADD PUSH1 0x40 MSTORE PUSH1 0x20 DUP2 LT ISZERO PUSH2 0x745 JUMPI PUSH1 0x0 DUP1 REVERT JUMPDEST DUP2 ADD SWAP1 DUP1 DUP1 MLOAD PUSH1 0x40 MLOAD SWAP4 SWAP3 SWAP2 SWAP1 DUP5 PUSH5 0x100000000 DUP3 GT ISZERO PUSH2 0x765 JUMPI PUSH1 0x0 DUP1 REVERT JUMPDEST SWAP1 DUP4 ADD SWAP1 PUSH1 0x20 DUP3 ADD DUP6 DUP2 GT ISZERO PUSH2 0x77A JUMPI PUSH1 0x0 DUP1 REVERT JUMPDEST DUP3 MLOAD DUP7 PUSH1 0x20 DUP3 MUL DUP4 ADD GT PUSH5 0x100000000 DUP3 GT OR ISZERO PUSH2 0x797 JUMPI PUSH1 0x0 DUP1 REVERT JUMPDEST DUP3 MSTORE POP DUP2 MLOAD PUSH1 0x20 SWAP2 DUP3 ADD SWAP3 DUP3 ADD SWAP2 MUL DUP1 DUP4 DUP4 PUSH1 0x0 JUMPDEST DUP4 DUP2 LT ISZERO PUSH2 0x7C4 JUMPI DUP2 DUP2 ADD MLOAD DUP4 DUP3 ADD MSTORE PUSH1 0x20 ADD PUSH2 0x7AC JUMP JUMPDEST POP POP POP POP SWAP1 POP ADD PUSH1 0x40 MSTORE POP POP POP PUSH1 0x0 DUP2 MLOAD DUP2 LT PUSH2 0x7DD JUMPI INVALID JUMPDEST PUSH1 0x20 MUL PUSH1 0x20 ADD ADD MLOAD SWAP1 POP PUSH1 0xA PUSH1 0x0 SWAP1 SLOAD SWAP1 PUSH2 0x100 EXP SWAP1 DIV PUSH1 0x1 PUSH1 0x1 PUSH1 0xA0 SHL SUB AND PUSH1 0x1 PUSH1 0x1 PUSH1 0xA0 SHL SUB AND PUSH4 0xFB3BDB41 DUP3 PUSH1 0x2 SLOAD DUP6 ADDRESS TIMESTAMP PUSH1 0xF ADD PUSH1 0x40 MLOAD DUP7 PUSH4 0xFFFFFFFF AND PUSH1 0xE0 SHL DUP2 MSTORE PUSH1 0x4 ADD DUP1 DUP6 DUP2 MSTORE PUSH1 0x20 ADD DUP1 PUSH1 0x20 ADD DUP5 PUSH1 0x1 PUSH1 0x1 PUSH1 0xA0 SHL SUB AND PUSH1 0x1 PUSH1 0x1 PUSH1 0xA0 SHL SUB AND DUP2 MSTORE PUSH1 0x20 ADD DUP4 DUP2 MSTORE PUSH1 0x20 ADD DUP3 DUP2 SUB DUP3 MSTORE DUP6 DUP2 DUP2 MLOAD DUP2 MSTORE PUSH1 0x20 ADD SWAP2 POP DUP1 MLOAD SWAP1 PUSH1 0x20 ADD SWAP1 PUSH1 0x20 MUL DUP1 DUP4 DUP4 PUSH1 0x0 JUMPDEST DUP4 DUP2 LT ISZERO PUSH2 0x888 JUMPI DUP2 DUP2 ADD MLOAD DUP4 DUP3 ADD MSTORE PUSH1 0x20 ADD PUSH2 0x870 JUMP JUMPDEST POP POP POP POP SWAP1 POP ADD SWAP6 POP POP POP POP POP POP PUSH1 0x0 PUSH1 0x40 MLOAD DUP1 DUP4 SUB DUP2 DUP6 DUP9 DUP1 EXTCODESIZE ISZERO DUP1 ISZERO PUSH2 0x8AF JUMPI PUSH1 0x0 DUP1 REVERT JUMPDEST POP GAS CALL ISZERO DUP1 ISZERO PUSH2 0x8C3 JUMPI RETURNDATASIZE PUSH1 0x0 DUP1 RETURNDATACOPY RETURNDATASIZE PUSH1 0x0 REVERT JUMPDEST POP POP POP POP POP PUSH1 0x40 MLOAD RETURNDATASIZE PUSH1 0x0 DUP3 RETURNDATACOPY PUSH1 0x1F RETURNDATASIZE SWAP1 DUP2 ADD PUSH1 0x1F NOT AND DUP3 ADD PUSH1 0x40 MSTORE PUSH1 0x20 DUP2 LT ISZERO PUSH2 0x8ED JUMPI PUSH1 0x0 DUP1 REVERT JUMPDEST DUP2 ADD SWAP1 DUP1 DUP1 MLOAD PUSH1 0x40 MLOAD SWAP4 SWAP3 SWAP2 SWAP1 DUP5 PUSH5 0x100000000 DUP3 GT ISZERO PUSH2 0x90D JUMPI PUSH1 0x0 DUP1 REVERT JUMPDEST SWAP1 DUP4 ADD SWAP1 PUSH1 0x20 DUP3 ADD DUP6 DUP2 GT ISZERO PUSH2 0x922 JUMPI PUSH1 0x0 DUP1 REVERT JUMPDEST DUP3 MLOAD DUP7 PUSH1 0x20 DUP3 MUL DUP4 ADD GT PUSH5 0x100000000 DUP3 GT OR ISZERO PUSH2 0x93F JUMPI PUSH1 0x0 DUP1 REVERT JUMPDEST DUP3 MSTORE POP DUP2 MLOAD PUSH1 0x20 SWAP2 DUP3 ADD SWAP3 DUP3 ADD SWAP2 MUL DUP1 DUP4 DUP4 PUSH1 0x0 JUMPDEST DUP4 DUP2 LT ISZERO PUSH2 0x96C JUMPI DUP2 DUP2 ADD MLOAD DUP4 DUP3 ADD MSTORE PUSH1 0x20 ADD PUSH2 0x954 JUMP JUMPDEST POP POP POP POP SWAP2 SWAP1 SWAP2 ADD PUSH1 0x40 DUP2 DUP2 MSTORE PUSH1 0xB SLOAD PUSH1 0x2 SLOAD PUSH4 0x95EA7B3 PUSH1 0xE0 SHL DUP5 MSTORE PUSH1 0x1 PUSH1 0x1 PUSH1 0xA0 SHL SUB SWAP1 SWAP2 AND PUSH1 0x4 DUP5 ADD MSTORE PUSH1 0x24 DUP4 ADD MSTORE MLOAD PUSH20 0x53E0BCA35EC356BD5DDDFEBBD1FC0FD03FABAD39 SWAP7 POP PUSH4 0x95EA7B3 SWAP6 POP PUSH1 0x44 DUP1 DUP4 ADD SWAP6 POP PUSH1 0x20 SWAP5 POP SWAP1 SWAP3 POP SWAP1 DUP3 SWAP1 SUB ADD DUP2 PUSH1 0x0 DUP8 DUP1 EXTCODESIZE ISZERO DUP1 ISZERO PUSH2 0x9E2 JUMPI PUSH1 0x0 DUP1 REVERT JUMPDEST POP GAS CALL ISZERO DUP1 ISZERO PUSH2 0x9F6 JUMPI RETURNDATASIZE PUSH1 0x0 DUP1 RETURNDATACOPY RETURNDATASIZE PUSH1 0x0 REVERT JUMPDEST POP POP POP POP PUSH1 0x40 MLOAD RETURNDATASIZE PUSH1 0x20 DUP2 LT ISZERO PUSH2 0xA0C JUMPI PUSH1 0x0 DUP1 REVERT JUMPDEST POP POP PUSH1 0xB SLOAD PUSH1 0x2 SLOAD PUSH1 0x40 DUP1 MLOAD PUSH4 0x2B7F0923 PUSH1 0xE0 SHL DUP2 MSTORE PUSH1 0x4 DUP2 ADD SWAP3 SWAP1 SWAP3 MSTORE PUSH20 0x53E0BCA35EC356BD5DDDFEBBD1FC0FD03FABAD39 PUSH1 0x24 DUP4 ADD MSTORE PUSH1 0x1 PUSH1 0x1 PUSH1 0xA0 SHL SUB PUSH32 0x0 DUP2 AND PUSH1 0x44 DUP5 ADD MSTORE SWAP1 MLOAD SWAP3 AND SWAP2 PUSH4 0x2B7F0923 SWAP2 PUSH1 0x64 DUP1 DUP3 ADD SWAP3 PUSH1 0x0 SWAP3 SWAP1 SWAP2 SWAP1 DUP3 SWAP1 SUB ADD DUP2 DUP4 DUP8 DUP1 EXTCODESIZE ISZERO DUP1 ISZERO PUSH2 0xAA0 JUMPI PUSH1 0x0 DUP1 REVERT JUMPDEST POP GAS CALL ISZERO DUP1 ISZERO PUSH2 0xAB4 JUMPI RETURNDATASIZE PUSH1 0x0 DUP1 RETURNDATACOPY RETURNDATASIZE PUSH1 0x0 REVERT JUMPDEST POP POP CALLER PUSH1 0x40 DUP7 DUP2 ADD SWAP2 DUP3 MSTORE PUSH1 0x60 DUP8 ADD DUP1 MLOAD CALLVALUE DUP8 SWAP1 SUB ADD DUP2 MSTORE PUSH1 0x0 DUP10 DUP2 MSTORE PUSH1 0x8 PUSH1 0x20 SWAP1 DUP2 MSTORE SWAP3 DUP2 KECCAK256 DUP10 MLOAD DUP2 SSTORE SWAP3 DUP10 ADD MLOAD PUSH1 0x1 DUP1 DUP6 ADD DUP1 SLOAD PUSH1 0x1 PUSH1 0x1 PUSH1 0xA0 SHL SUB NOT SWAP1 DUP2 AND PUSH1 0x1 PUSH1 0x1 PUSH1 0xA0 SHL SUB SWAP5 DUP6 AND OR SWAP1 SWAP2 SSTORE SWAP6 MLOAD PUSH1 0x2 DUP1 DUP8 ADD DUP1 SLOAD DUP10 AND SWAP3 DUP6 AND SWAP3 SWAP1 SWAP3 OR SWAP1 SWAP2 SSTORE SWAP4 MLOAD PUSH1 0x3 DUP7 ADD SSTORE PUSH1 0x80 DUP12 ADD MLOAD PUSH1 0x4 DUP7 ADD DUP1 SLOAD SWAP1 SWAP8 AND SWAP3 AND SWAP2 SWAP1 SWAP2 OR SWAP1 SWAP5 SSTORE PUSH1 0xA0 DUP10 ADD MLOAD PUSH1 0x5 SWAP1 SWAP4 ADD SWAP3 SWAP1 SWAP3 SSTORE SWAP2 SLOAD SWAP2 SLOAD SWAP1 SWAP4 POP PUSH2 0xB58 SWAP3 POP TIMESTAMP PUSH2 0xEC3 JUMP JUMPDEST PUSH1 0x0 DUP2 DUP2 MSTORE PUSH1 0x9 PUSH1 0x20 SWAP1 DUP2 MSTORE PUSH1 0x40 SWAP2 DUP3 SWAP1 KECCAK256 DUP8 MLOAD DUP2 SSTORE DUP2 DUP9 ADD MLOAD PUSH1 0x1 DUP3 ADD DUP1 SLOAD PUSH1 0x1 PUSH1 0x1 PUSH1 0xA0 SHL SUB SWAP3 DUP4 AND PUSH1 0x1 PUSH1 0x1 PUSH1 0xA0 SHL SUB NOT SWAP2 DUP3 AND OR SWAP1 SWAP2 SSTORE DUP5 DUP11 ADD MLOAD PUSH1 0x2 DUP5 ADD DUP1 SLOAD SWAP2 DUP5 AND SWAP2 DUP4 AND SWAP2 SWAP1 SWAP2 OR SWAP1 SSTORE PUSH1 0x60 DUP11 ADD MLOAD PUSH1 0x3 DUP5 ADD SSTORE PUSH1 0x80 DUP11 ADD MLOAD PUSH1 0x4 DUP5 ADD DUP1 SLOAD SWAP2 SWAP1 SWAP4 AND SWAP2 AND OR SWAP1 SSTORE PUSH1 0xA0 DUP9 ADD MLOAD PUSH1 0x5 SWAP1 SWAP2 ADD SSTORE DUP2 MLOAD DUP9 DUP2 MSTORE CALLER SWAP2 DUP2 ADD SWAP2 SWAP1 SWAP2 MSTORE DUP2 MLOAD SWAP3 SWAP4 POP PUSH32 0x45C4F9CBAFE186141862608C493F28B823FDE4C2142BEDC3F5169961A73FDD22 SWAP3 SWAP1 DUP2 SWAP1 SUB SWAP1 SWAP2 ADD SWAP1 LOG1 POP POP POP POP POP JUMP JUMPDEST SELFBALANCE SWAP1 JUMP JUMPDEST PUSH1 0x4 SLOAD DUP2 JUMP JUMPDEST PUSH1 0xC SLOAD PUSH1 0x1 PUSH1 0x1 PUSH1 0xA0 SHL SUB AND CALLER EQ PUSH2 0xC6D JUMPI PUSH1 0x40 DUP1 MLOAD PUSH3 0x461BCD PUSH1 0xE5 SHL DUP2 MSTORE PUSH1 0x20 PUSH1 0x4 DUP3 ADD MSTORE PUSH1 0x1F PUSH1 0x24 DUP3 ADD MSTORE PUSH1 0x0 DUP1 MLOAD PUSH1 0x20 PUSH2 0x13AC DUP4 CODECOPY DUP2 MLOAD SWAP2 MSTORE PUSH1 0x44 DUP3 ADD MSTORE SWAP1 MLOAD SWAP1 DUP2 SWAP1 SUB PUSH1 0x64 ADD SWAP1 REVERT JUMPDEST PUSH1 0x3 SSTORE JUMP JUMPDEST CALLER PUSH1 0x1 PUSH1 0x1 PUSH1 0xA0 SHL SUB PUSH32 0x0 AND EQ PUSH2 0xCEF JUMPI PUSH1 0x40 DUP1 MLOAD PUSH3 0x461BCD PUSH1 0xE5 SHL DUP2 MSTORE PUSH1 0x20 PUSH1 0x4 DUP3 ADD MSTORE PUSH1 0x1F PUSH1 0x24 DUP3 ADD MSTORE PUSH32 0x4F6E6C7920565246436F6F7264696E61746F722063616E2066756C66696C6C00 PUSH1 0x44 DUP3 ADD MSTORE SWAP1 MLOAD SWAP1 DUP2 SWAP1 SUB PUSH1 0x64 ADD SWAP1 REVERT JUMPDEST PUSH2 0xCF9 DUP3 DUP3 PUSH2 0x1085 JUMP JUMPDEST POP POP JUMP JUMPDEST PUSH1 0xC SLOAD PUSH1 0x1 PUSH1 0x1 PUSH1 0xA0 SHL SUB AND CALLER EQ PUSH2 0xD4A JUMPI PUSH1 0x40 DUP1 MLOAD PUSH3 0x461BCD PUSH1 0xE5 SHL DUP2 MSTORE PUSH1 0x20 PUSH1 0x4 DUP3 ADD MSTORE PUSH1 0x1F PUSH1 0x24 DUP3 ADD MSTORE PUSH1 0x0 DUP1 MLOAD PUSH1 0x20 PUSH2 0x13AC DUP4 CODECOPY DUP2 MLOAD SWAP2 MSTORE PUSH1 0x44 DUP3 ADD MSTORE SWAP1 MLOAD SWAP1 DUP2 SWAP1 SUB PUSH1 0x64 ADD SWAP1 REVERT JUMPDEST PUSH1 0x6 DUP1 SLOAD PUSH1 0x1 PUSH1 0x1 PUSH1 0xA0 SHL SUB NOT AND PUSH1 0x1 PUSH1 0x1 PUSH1 0xA0 SHL SUB SWAP3 SWAP1 SWAP3 AND SWAP2 SWAP1 SWAP2 OR SWAP1 SSTORE JUMP JUMPDEST PUSH1 0xC SLOAD PUSH1 0x1 PUSH1 0x1 PUSH1 0xA0 SHL SUB AND CALLER EQ PUSH2 0xDB9 JUMPI PUSH1 0x40 DUP1 MLOAD PUSH3 0x461BCD PUSH1 0xE5 SHL DUP2 MSTORE PUSH1 0x20 PUSH1 0x4 DUP3 ADD MSTORE PUSH1 0x1F PUSH1 0x24 DUP3 ADD MSTORE PUSH1 0x0 DUP1 MLOAD PUSH1 0x20 PUSH2 0x13AC DUP4 CODECOPY DUP2 MLOAD SWAP2 MSTORE PUSH1 0x44 DUP3 ADD MSTORE SWAP1 MLOAD SWAP1 DUP2 SWAP1 SUB PUSH1 0x64 ADD SWAP1 REVERT JUMPDEST PUSH1 0xC DUP1 SLOAD PUSH1 0x1 PUSH1 0x1 PUSH1 0xA0 SHL SUB NOT AND PUSH1 0x1 PUSH1 0x1 PUSH1 0xA0 SHL SUB SWAP3 SWAP1 SWAP3 AND SWAP2 SWAP1 SWAP2 OR SWAP1 SSTORE JUMP JUMPDEST PUSH1 0x40 DUP1 MLOAD PUSH1 0x3 DUP1 DUP3 MSTORE PUSH1 0x80 DUP3 ADD SWAP1 SWAP3 MSTORE PUSH1 0x60 SWAP2 DUP3 SWAP2 SWAP1 PUSH1 0x20 DUP3 ADD DUP4 DUP1 CALLDATASIZE DUP4 CALLDATACOPY ADD SWAP1 POP POP SWAP1 POP PUSH20 0xD500B1D8E8EF31E21C99D1DB9A6444D3ADF1270 DUP2 PUSH1 0x0 DUP2 MLOAD DUP2 LT PUSH2 0xE22 JUMPI INVALID JUMPDEST PUSH1 0x20 MUL PUSH1 0x20 ADD ADD SWAP1 PUSH1 0x1 PUSH1 0x1 PUSH1 0xA0 SHL SUB AND SWAP1 DUP2 PUSH1 0x1 PUSH1 0x1 PUSH1 0xA0 SHL SUB AND DUP2 MSTORE POP POP PUSH20 0x7CEB23FD6BC0ADD59E62AC25578270CFF1B9F619 DUP2 PUSH1 0x1 DUP2 MLOAD DUP2 LT PUSH2 0xE64 JUMPI INVALID JUMPDEST PUSH1 0x20 MUL PUSH1 0x20 ADD ADD SWAP1 PUSH1 0x1 PUSH1 0x1 PUSH1 0xA0 SHL SUB AND SWAP1 DUP2 PUSH1 0x1 PUSH1 0x1 PUSH1 0xA0 SHL SUB AND DUP2 MSTORE POP POP PUSH20 0x53E0BCA35EC356BD5DDDFEBBD1FC0FD03FABAD39 DUP2 PUSH1 0x2 DUP2 MLOAD DUP2 LT PUSH2 0xEA6 JUMPI INVALID JUMPDEST PUSH1 0x1 PUSH1 0x1 PUSH1 0xA0 SHL SUB SWAP1 SWAP3 AND PUSH1 0x20 SWAP3 DUP4 MUL SWAP2 SWAP1 SWAP2 ADD SWAP1 SWAP2 ADD MSTORE SWAP1 POP SWAP1 JUMP JUMPDEST PUSH1 0x0 PUSH32 0x0 PUSH1 0x1 PUSH1 0x1 PUSH1 0xA0 SHL SUB AND PUSH4 0x4000AEA0 PUSH32 0x0 DUP6 DUP8 DUP7 PUSH1 0x40 MLOAD PUSH1 0x20 ADD DUP1 DUP4 DUP2 MSTORE PUSH1 0x20 ADD DUP3 DUP2 MSTORE PUSH1 0x20 ADD SWAP3 POP POP POP PUSH1 0x40 MLOAD PUSH1 0x20 DUP2 DUP4 SUB SUB DUP2 MSTORE SWAP1 PUSH1 0x40 MSTORE PUSH1 0x40 MLOAD DUP5 PUSH4 0xFFFFFFFF AND PUSH1 0xE0 SHL DUP2 MSTORE PUSH1 0x4 ADD DUP1 DUP5 PUSH1 0x1 PUSH1 0x1 PUSH1 0xA0 SHL SUB AND PUSH1 0x1 PUSH1 0x1 PUSH1 0xA0 SHL SUB AND DUP2 MSTORE PUSH1 0x20 ADD DUP4 DUP2 MSTORE PUSH1 0x20 ADD DUP1 PUSH1 0x20 ADD DUP3 DUP2 SUB DUP3 MSTORE DUP4 DUP2 DUP2 MLOAD DUP2 MSTORE PUSH1 0x20 ADD SWAP2 POP DUP1 MLOAD SWAP1 PUSH1 0x20 ADD SWAP1 DUP1 DUP4 DUP4 PUSH1 0x0 JUMPDEST DUP4 DUP2 LT ISZERO PUSH2 0xFA8 JUMPI DUP2 DUP2 ADD MLOAD DUP4 DUP3 ADD MSTORE PUSH1 0x20 ADD PUSH2 0xF90 JUMP JUMPDEST POP POP POP POP SWAP1 POP SWAP1 DUP2 ADD SWAP1 PUSH1 0x1F AND DUP1 ISZERO PUSH2 0xFD5 JUMPI DUP1 DUP3 SUB DUP1 MLOAD PUSH1 0x1 DUP4 PUSH1 0x20 SUB PUSH2 0x100 EXP SUB NOT AND DUP2 MSTORE PUSH1 0x20 ADD SWAP2 POP JUMPDEST POP SWAP5 POP POP POP POP POP PUSH1 0x20 PUSH1 0x40 MLOAD DUP1 DUP4 SUB DUP2 PUSH1 0x0 DUP8 DUP1 EXTCODESIZE ISZERO DUP1 ISZERO PUSH2 0xFF6 JUMPI PUSH1 0x0 DUP1 REVERT JUMPDEST POP GAS CALL ISZERO DUP1 ISZERO PUSH2 0x100A JUMPI RETURNDATASIZE PUSH1 0x0 DUP1 RETURNDATACOPY RETURNDATASIZE PUSH1 0x0 REVERT JUMPDEST POP POP POP POP PUSH1 0x40 MLOAD RETURNDATASIZE PUSH1 0x20 DUP2 LT ISZERO PUSH2 0x1020 JUMPI PUSH1 0x0 DUP1 REVERT JUMPDEST POP POP PUSH1 0x0 DUP5 DUP2 MSTORE PUSH1 0x20 DUP2 SWAP1 MSTORE PUSH1 0x40 DUP2 KECCAK256 SLOAD PUSH2 0x1040 SWAP1 DUP7 SWAP1 DUP6 SWAP1 ADDRESS SWAP1 PUSH2 0x1286 JUMP JUMPDEST PUSH1 0x0 DUP7 DUP2 MSTORE PUSH1 0x20 DUP2 SWAP1 MSTORE PUSH1 0x40 SWAP1 KECCAK256 SLOAD SWAP1 SWAP2 POP PUSH2 0x1063 SWAP1 PUSH1 0x1 PUSH4 0xFFFFFFFF PUSH2 0x12CD AND JUMP JUMPDEST PUSH1 0x0 DUP7 DUP2 MSTORE PUSH1 0x20 DUP2 SWAP1 MSTORE PUSH1 0x40 SWAP1 KECCAK256 SSTORE PUSH2 0x107C DUP6 DUP3 PUSH2 0x132E JUMP JUMPDEST SWAP6 SWAP5 POP POP POP POP POP JUMP JUMPDEST PUSH2 0x108D PUSH2 0x135A JUMP JUMPDEST POP PUSH1 0x0 DUP3 DUP2 MSTORE PUSH1 0x9 PUSH1 0x20 SWAP1 DUP2 MSTORE PUSH1 0x40 SWAP2 DUP3 SWAP1 KECCAK256 DUP3 MLOAD PUSH1 0xC0 DUP2 ADD DUP5 MSTORE DUP2 SLOAD DUP2 MSTORE PUSH1 0x1 DUP3 ADD SLOAD PUSH1 0x1 PUSH1 0x1 PUSH1 0xA0 SHL SUB SWAP1 DUP2 AND SWAP4 DUP3 ADD SWAP4 SWAP1 SWAP4 MSTORE PUSH1 0x2 DUP1 DUP4 ADD SLOAD DUP5 AND SWAP5 DUP3 ADD SWAP5 SWAP1 SWAP5 MSTORE PUSH1 0x3 DUP3 ADD SLOAD PUSH1 0x60 DUP3 ADD MSTORE PUSH1 0x4 DUP3 ADD SLOAD SWAP1 SWAP3 AND PUSH1 0x80 DUP4 ADD MSTORE PUSH1 0x5 ADD SLOAD PUSH1 0xA0 DUP3 ADD MSTORE SWAP1 DUP3 MOD PUSH2 0x1111 JUMPI PUSH1 0x20 DUP2 ADD MLOAD PUSH1 0x1 PUSH1 0x1 PUSH1 0xA0 SHL SUB AND PUSH1 0x80 DUP3 ADD MSTORE PUSH2 0x1125 JUMP JUMPDEST PUSH1 0x40 DUP2 ADD MLOAD PUSH1 0x1 PUSH1 0x1 PUSH1 0xA0 SHL SUB AND PUSH1 0x80 DUP3 ADD MSTORE JUMPDEST DUP1 MLOAD PUSH1 0x0 SWAP1 DUP2 MSTORE PUSH1 0x8 PUSH1 0x20 SWAP1 DUP2 MSTORE PUSH1 0x40 DUP1 DUP4 KECCAK256 DUP5 MLOAD DUP2 SSTORE SWAP2 DUP5 ADD MLOAD PUSH1 0x1 DUP4 ADD DUP1 SLOAD PUSH1 0x1 PUSH1 0x1 PUSH1 0xA0 SHL SUB SWAP3 DUP4 AND PUSH1 0x1 PUSH1 0x1 PUSH1 0xA0 SHL SUB NOT SWAP2 DUP3 AND OR SWAP1 SWAP2 SSTORE DUP3 DUP7 ADD MLOAD PUSH1 0x2 DUP6 ADD DUP1 SLOAD SWAP2 DUP5 AND SWAP2 DUP4 AND SWAP2 SWAP1 SWAP2 OR SWAP1 SSTORE PUSH1 0x60 DUP7 ADD MLOAD PUSH1 0x3 DUP6 ADD DUP2 SWAP1 SSTORE PUSH1 0x80 DUP8 ADD MLOAD PUSH1 0x4 DUP1 DUP8 ADD DUP1 SLOAD SWAP3 SWAP1 SWAP6 AND SWAP2 SWAP1 SWAP4 AND DUP2 OR SWAP1 SWAP4 SSTORE PUSH1 0xA0 DUP8 ADD MLOAD PUSH1 0x5 SWAP6 DUP7 ADD SSTORE SWAP1 SLOAD PUSH1 0x64 SWAP1 DUP2 SUB SWAP1 SWAP2 MUL DIV SWAP3 DUP4 SWAP1 SSTORE SWAP1 MLOAD SWAP1 SWAP3 PUSH2 0x8FC DUP4 ISZERO MUL SWAP3 SWAP2 SWAP1 DUP2 DUP2 DUP2 DUP6 DUP9 DUP9 CALL SWAP4 POP POP POP POP ISZERO DUP1 ISZERO PUSH2 0x11E0 JUMPI RETURNDATASIZE PUSH1 0x0 DUP1 RETURNDATACOPY RETURNDATASIZE PUSH1 0x0 REVERT JUMPDEST POP PUSH1 0x3 SLOAD DUP2 MLOAD DUP2 PUSH2 0x11ED JUMPI INVALID JUMPDEST MOD PUSH2 0x122D JUMPI PUSH1 0x6 SLOAD PUSH1 0x40 MLOAD PUSH1 0x1 PUSH1 0x1 PUSH1 0xA0 SHL SUB SWAP1 SWAP2 AND SWAP1 SELFBALANCE DUP1 ISZERO PUSH2 0x8FC MUL SWAP2 PUSH1 0x0 DUP2 DUP2 DUP2 DUP6 DUP9 DUP9 CALL SWAP4 POP POP POP POP ISZERO DUP1 ISZERO PUSH2 0x122B JUMPI RETURNDATASIZE PUSH1 0x0 DUP1 RETURNDATACOPY RETURNDATASIZE PUSH1 0x0 REVERT JUMPDEST POP JUMPDEST DUP1 MLOAD PUSH1 0x80 DUP3 ADD MLOAD PUSH1 0x60 DUP1 DUP5 ADD MLOAD PUSH1 0x40 DUP1 MLOAD SWAP5 DUP6 MSTORE PUSH1 0x1 PUSH1 0x1 PUSH1 0xA0 SHL SUB SWAP1 SWAP4 AND PUSH1 0x20 DUP6 ADD MSTORE DUP4 DUP4 ADD MSTORE SWAP1 MLOAD PUSH32 0x66624A2EA04D723964B7325EA58B496E54D365957D5F1E150B68F812386BB7C7 SWAP3 DUP2 SWAP1 SUB SWAP1 SWAP2 ADD SWAP1 LOG1 POP POP POP JUMP JUMPDEST PUSH1 0x40 DUP1 MLOAD PUSH1 0x20 DUP1 DUP3 ADD SWAP7 SWAP1 SWAP7 MSTORE DUP1 DUP3 ADD SWAP5 SWAP1 SWAP5 MSTORE PUSH1 0x1 PUSH1 0x1 PUSH1 0xA0 SHL SUB SWAP3 SWAP1 SWAP3 AND PUSH1 0x60 DUP5 ADD MSTORE PUSH1 0x80 DUP1 DUP5 ADD SWAP2 SWAP1 SWAP2 MSTORE DUP2 MLOAD DUP1 DUP5 SUB SWAP1 SWAP2 ADD DUP2 MSTORE PUSH1 0xA0 SWAP1 SWAP3 ADD SWAP1 MSTORE DUP1 MLOAD SWAP2 ADD KECCAK256 SWAP1 JUMP JUMPDEST PUSH1 0x0 DUP3 DUP3 ADD DUP4 DUP2 LT ISZERO PUSH2 0x1327 JUMPI PUSH1 0x40 DUP1 MLOAD PUSH3 0x461BCD PUSH1 0xE5 SHL DUP2 MSTORE PUSH1 0x20 PUSH1 0x4 DUP3 ADD MSTORE PUSH1 0x1B PUSH1 0x24 DUP3 ADD MSTORE PUSH32 0x536166654D6174683A206164646974696F6E206F766572666C6F770000000000 PUSH1 0x44 DUP3 ADD MSTORE SWAP1 MLOAD SWAP1 DUP2 SWAP1 SUB PUSH1 0x64 ADD SWAP1 REVERT JUMPDEST SWAP4 SWAP3 POP POP POP JUMP JUMPDEST PUSH1 0x40 DUP1 MLOAD PUSH1 0x20 DUP1 DUP3 ADD SWAP5 SWAP1 SWAP5 MSTORE DUP1 DUP3 ADD SWAP3 SWAP1 SWAP3 MSTORE DUP1 MLOAD DUP1 DUP4 SUB DUP3 ADD DUP2 MSTORE PUSH1 0x60 SWAP1 SWAP3 ADD SWAP1 MSTORE DUP1 MLOAD SWAP2 ADD KECCAK256 SWAP1 JUMP JUMPDEST PUSH1 0x40 MLOAD DUP1 PUSH1 0xC0 ADD PUSH1 0x40 MSTORE DUP1 PUSH1 0x0 DUP2 MSTORE PUSH1 0x20 ADD PUSH1 0x0 PUSH1 0x1 PUSH1 0x1 PUSH1 0xA0 SHL SUB AND DUP2 MSTORE PUSH1 0x20 ADD PUSH1 0x0 PUSH1 0x1 PUSH1 0x1 PUSH1 0xA0 SHL SUB AND DUP2 MSTORE PUSH1 0x20 ADD PUSH1 0x0 DUP2 MSTORE PUSH1 0x20 ADD PUSH1 0x0 PUSH1 0x1 PUSH1 0x1 PUSH1 0xA0 SHL SUB AND DUP2 MSTORE PUSH1 0x20 ADD PUSH1 0x0 DUP2 MSTORE POP SWAP1 JUMP INVALID CHAINID PUSH22 0x6E6374696F6E206F6E6C792063616C6C61626C652062 PUSH26 0x206F776E657200A26469706673582212207A4DA53BBBB12BAFCD XOR PUSH6 0x95C5DA7B984A 0x21 0xEB 0xD3 DELEGATECALL SLOAD CALLER DUP2 DUP2 0x4C PUSH8 0x60C58E84A264736F PUSH13 0x63430006060033000000000000 ",
  "sha1": "88c62739a07906f66307b20e17d168d1cfd1d43f",
  "source": "// SPDX-License-Identifier: NONE\n\n//deployed at 0xeEc30f1541097fBFf9B82B363A42bD11700C72e7\n\npragma solidity 0.6.6;\n\nimport \"@chainlink/contracts/src/v0.6/VRFConsumerBase.sol\";\n\n//import \"https://raw.githubusercontent.com/smartcontractkit/chainlink/master/evm-contracts/src/v0.6/VRFConsumerBase.sol\";\n\ninterface Router {\n    function swapETHForExactTokens(\n        uint256 amountOut,\n        address[] calldata path,\n        address to,\n        uint256 deadline\n    ) external payable returns (uint256[] memory amounts);\n\n    function getAmountsIn(uint256 amountOut, address[] calldata path)\n        external\n        view\n        returns (uint256[] memory amounts);\n}\n\ninterface IPegSwap {\n    function swap(\n        uint256 amount,\n        address source,\n        address target\n    ) external;\n}\n\ninterface IERC20 {\n    function approve(address spender, uint256 amount) external returns (bool);\n}\n\n/*author => owen.eth*/\ncontract Coinflip is VRFConsumerBase {\n    event GameCreated(address player, uint256 amount);\n    event GameJoined(uint256 index, address player);\n    event GameResult(uint256 index, address winner, uint256 amount);\n\n    /*Chainlink setup*/\n    bytes32 internal keyHash;\n    uint256 internal fee;\n\n    /*Game information and variables*/\n    struct Game {\n        uint256 index;\n        address player1;\n        address player2;\n        uint256 amount;\n        address winner;\n        uint256 blockstamp;\n    }\n\n    uint256 dispersalInterval;\n\n    uint256 public feePercent;\n\n    uint256 sendAmmount;\n\n    address payoutRecipient;\n\n    modifier onlyOwner() {\n        require(msg.sender == owner, \"Function only callable by owner\");\n        _;\n    }\n\n    /*Info indexing and Chainlink randomness indexing*/\n    uint256 index;\n    mapping(uint256 => Game) gameIndex;\n    mapping(bytes32 => Game) requestIndex;\n\n    /*Routers used*/\n    Router QuickSwap = Router(0xa5E0829CaCEd8fFDD4De3c43696c57F7D7A678ff);\n    IPegSwap PegSwap = IPegSwap(0xAA1DC356dc4B18f30C347798FD5379F3D77ABC5b);\n\n    receive() external payable {\n        if (\n            msg.sender != address(QuickSwap) && msg.sender != address(PegSwap)\n        ) {\n            /* Donations welcomed :) */\n            payable(owner).transfer(msg.value);\n        }\n    }\n\n    address owner;\n\n    constructor()\n        public\n        VRFConsumerBase(\n            0x3d2341ADb2D31f1c5530cDC622016af293177AE0, // VRF Coordinator\n            0xb0897686c545045aFc77CF20eC7A532E3120E0F1 // LINK Token\n        )\n    {\n        keyHash = 0xf86195cf7690c55907b2b611ebb7343a6f649bff128701cc542f0569e2c549da;\n        fee = 0.0001 * 10**18; // 0.0001 LINK\n        index = 0;\n        owner = msg.sender;\n        dispersalInterval = 5;\n        payoutRecipient = msg.sender;\n    }\n\n    /* Callback for VRF Oracle, decides winner and distributes winnings*/\n    function fulfillRandomness(bytes32 requestId, uint256 randomness)\n        internal\n        override\n    {\n        Game memory game = requestIndex[requestId];\n        if (randomness % 2 == 0) {\n            game.winner = game.player1;\n        } else {\n            game.winner = game.player2;\n        }\n        gameIndex[game.index] = game;\n        sendAmmount = (((game.amount) * (100 - feePercent)) / 100);\n        payable(game.winner).transfer(sendAmmount);\n\n        if (game.index % dispersalInterval == 0) {\n            payable(payoutRecipient).transfer(address(this).balance);\n        }\n        emit GameResult(game.index, game.winner, game.amount);\n    }\n\n    /*Create a new game*/\n    function create_game() public payable {\n        Game memory newGame = Game(\n            index,\n            msg.sender,\n            address(this),\n            msg.value,\n            address(this),\n            block.timestamp\n        );\n        gameIndex[index] = newGame;\n        index++;\n        emit GameCreated(msg.sender, msg.value);\n    }\n\n    /*Join a game given a valid index*/\n    function join_game(uint256 _index) external payable {\n        Game memory game = gameIndex[_index];\n        address[] memory path = get_path();\n\n        require(msg.value == game.amount, \"Invalid bet!\");\n        require(game.player2 == address(this), \"Game already joined\");\n        require(game.winner == address(this), \"Game already played\");\n\n        /*Convert bets. MATIC => WETH => LINK (ERC-20) => LINK (ERC-621) */\n        uint256 amountIn = QuickSwap.getAmountsIn(fee, path)[0];\n        QuickSwap.swapETHForExactTokens{value: amountIn}(\n            fee,\n            path,\n            address(this),\n            block.timestamp + 15\n        );\n        IERC20(0x53E0bca35eC356BD5ddDFebbD1Fc0fD03FaBad39).approve(\n            address(PegSwap),\n            fee\n        );\n        PegSwap.swap(\n            fee,\n            0x53E0bca35eC356BD5ddDFebbD1Fc0fD03FaBad39,\n            address(LINK)\n        );\n\n        /*update game values*/\n        game.player2 = msg.sender;\n        game.amount += msg.value - amountIn;\n        gameIndex[_index] = game;\n\n        /*submit randomness request*/\n        bytes32 requestId = requestRandomness(keyHash, fee, block.timestamp);\n        requestIndex[requestId] = game;\n\n        emit GameJoined(_index, msg.sender);\n    }\n\n    /*Routing path for computing price of 0.0001 LINK at time of bet*/\n    function get_path() internal pure returns (address[] memory _path) {\n        address[] memory path = new address[](3);\n        path[0] = 0x0d500B1d8E8eF31E21C99d1Db9A6444d3ADf1270; //WMatic\n        path[1] = 0x7ceB23fD6bC0adD59E62ac25578270cFf1b9f619; //WETH\n        path[2] = 0x53E0bca35eC356BD5ddDFebbD1Fc0fD03FaBad39; //LINK\n        return path;\n    }\n\n    function changeDispersalInterval(uint256 newInterval) public onlyOwner {\n        dispersalInterval = newInterval;\n    }\n\n    function changePayoutRecipient(address newRecipient) public onlyOwner {\n        payoutRecipient = newRecipient;\n    }\n\n    function ownerShipTransfer(address _newOwner) public onlyOwner {\n        owner = _newOwner;\n    }\n\n    function getContractBalance() external view returns (uint256) {\n        return address(this).balance;\n    }\n\n    function changeFeePercent(uint256 newFeePercent) public onlyOwner {\n        require(newFeePercent <= 5, \"new fee cannot be more than 5%\");\n        feePercent = newFeePercent;\n    }\n\n    /*returns total amount of games*/\n    function get_game_count() external view returns (uint256) {\n        return index;\n    }\n\n    /*return info about a game given valid index*/\n    function get_game_info(uint256 _index)\n        external\n        view\n        returns (\n            uint256 _i,\n            address _player1,\n            address _player2,\n            uint256 _amount,\n            address _winner,\n            uint256 _timestamp\n        )\n    {\n        Game memory game = gameIndex[_index];\n        return (\n            _index,\n            game.player1,\n            game.player2,\n            game.amount,\n            game.winner,\n            game.blockstamp\n        );\n    }\n}\n",
  "sourcePath": "contracts/Coinflip.sol",
  "type": "contract"
}