{
  "abi": [
    {
      "inputs": [],
      "stateMutability": "nonpayable",
      "type": "constructor"
    },
    {
      "anonymous": false,
      "inputs": [
        {
          "indexed": false,
          "internalType": "address",
          "name": "winner",
          "type": "address"
        },
        {
          "indexed": false,
          "internalType": "uint256",
          "name": "jackpotSize",
          "type": "uint256"
        }
      ],
      "name": "JackpotResult",
      "type": "event"
    },
    {
      "anonymous": false,
      "inputs": [
        {
          "indexed": false,
          "internalType": "uint256",
          "name": "index",
          "type": "uint256"
        },
        {
          "indexed": false,
          "internalType": "uint256",
          "name": "blockstamp",
          "type": "uint256"
        },
        {
          "indexed": false,
          "internalType": "uint256",
          "name": "size",
          "type": "uint256"
        }
      ],
      "name": "NewJackpot",
      "type": "event"
    },
    {
      "anonymous": false,
      "inputs": [
        {
          "indexed": false,
          "internalType": "uint256",
          "name": "time",
          "type": "uint256"
        },
        {
          "indexed": false,
          "internalType": "uint256",
          "name": "jackpotSize",
          "type": "uint256"
        },
        {
          "indexed": false,
          "internalType": "uint256",
          "name": "numOfPlayers",
          "type": "uint256"
        }
      ],
      "name": "PickingWinner",
      "type": "event"
    },
    {
      "anonymous": false,
      "inputs": [
        {
          "indexed": false,
          "internalType": "uint256",
          "name": "bet",
          "type": "uint256"
        },
        {
          "indexed": false,
          "internalType": "address",
          "name": "player",
          "type": "address"
        },
        {
          "indexed": false,
          "internalType": "uint256",
          "name": "size",
          "type": "uint256"
        }
      ],
      "name": "PlayerJoin",
      "type": "event"
    },
    {
      "inputs": [
        {
          "internalType": "uint256",
          "name": "_newMaxLength",
          "type": "uint256"
        }
      ],
      "name": "changeMaxLength",
      "outputs": [],
      "stateMutability": "nonpayable",
      "type": "function"
    },
    {
      "inputs": [
        {
          "internalType": "address",
          "name": "newRecipient",
          "type": "address"
        }
      ],
      "name": "changePayoutRecipient",
      "outputs": [],
      "stateMutability": "nonpayable",
      "type": "function"
    },
    {
      "inputs": [],
      "name": "enterJackpot",
      "outputs": [],
      "stateMutability": "payable",
      "type": "function"
    },
    {
      "inputs": [],
      "name": "getContractBalance",
      "outputs": [
        {
          "internalType": "uint256",
          "name": "",
          "type": "uint256"
        }
      ],
      "stateMutability": "view",
      "type": "function"
    },
    {
      "inputs": [],
      "name": "getCurrentJackpotInfo",
      "outputs": [
        {
          "internalType": "uint256",
          "name": "_index",
          "type": "uint256"
        },
        {
          "internalType": "uint256",
          "name": "_size",
          "type": "uint256"
        },
        {
          "internalType": "uint256",
          "name": "_blockstamp",
          "type": "uint256"
        },
        {
          "internalType": "uint256",
          "name": "_jackpotEndTime",
          "type": "uint256"
        },
        {
          "internalType": "uint256",
          "name": "_ticketIndex",
          "type": "uint256"
        },
        {
          "internalType": "address[]",
          "name": "_players",
          "type": "address[]"
        },
        {
          "internalType": "address",
          "name": "winner",
          "type": "address"
        }
      ],
      "stateMutability": "view",
      "type": "function"
    },
    {
      "inputs": [],
      "name": "getJackpotCount",
      "outputs": [
        {
          "internalType": "uint256",
          "name": "",
          "type": "uint256"
        }
      ],
      "stateMutability": "view",
      "type": "function"
    },
    {
      "inputs": [],
      "name": "getJackpotStatus",
      "outputs": [
        {
          "internalType": "uint256",
          "name": "",
          "type": "uint256"
        }
      ],
      "stateMutability": "view",
      "type": "function"
    },
    {
      "inputs": [
        {
          "internalType": "uint256",
          "name": "_i",
          "type": "uint256"
        }
      ],
      "name": "getPriorJackpotInfo",
      "outputs": [
        {
          "internalType": "uint256",
          "name": "_index",
          "type": "uint256"
        },
        {
          "internalType": "uint256",
          "name": "_size",
          "type": "uint256"
        },
        {
          "internalType": "uint256",
          "name": "_blockstamp",
          "type": "uint256"
        },
        {
          "internalType": "uint256",
          "name": "_jackpotEndTime",
          "type": "uint256"
        },
        {
          "internalType": "uint256",
          "name": "_ticketIndex",
          "type": "uint256"
        },
        {
          "internalType": "uint256",
          "name": "_randomNumberUsed",
          "type": "uint256"
        },
        {
          "internalType": "address[]",
          "name": "_players",
          "type": "address[]"
        },
        {
          "internalType": "address",
          "name": "winner",
          "type": "address"
        }
      ],
      "stateMutability": "view",
      "type": "function"
    },
    {
      "inputs": [
        {
          "internalType": "uint256",
          "name": "userProvidedSeed",
          "type": "uint256"
        }
      ],
      "name": "getRandomNumber",
      "outputs": [
        {
          "internalType": "bytes32",
          "name": "requestId",
          "type": "bytes32"
        }
      ],
      "stateMutability": "nonpayable",
      "type": "function"
    },
    {
      "inputs": [
        {
          "internalType": "uint256",
          "name": "ticketNumber",
          "type": "uint256"
        }
      ],
      "name": "getTicketOwner",
      "outputs": [
        {
          "internalType": "address",
          "name": "",
          "type": "address"
        }
      ],
      "stateMutability": "view",
      "type": "function"
    },
    {
      "inputs": [
        {
          "internalType": "uint256",
          "name": "timeInMinutes",
          "type": "uint256"
        }
      ],
      "name": "newJackpot",
      "outputs": [],
      "stateMutability": "payable",
      "type": "function"
    },
    {
      "inputs": [
        {
          "internalType": "address",
          "name": "_newOwner",
          "type": "address"
        }
      ],
      "name": "ownerShipTransfer",
      "outputs": [],
      "stateMutability": "nonpayable",
      "type": "function"
    },
    {
      "inputs": [
        {
          "internalType": "bytes32",
          "name": "requestId",
          "type": "bytes32"
        },
        {
          "internalType": "uint256",
          "name": "randomness",
          "type": "uint256"
        }
      ],
      "name": "rawFulfillRandomness",
      "outputs": [],
      "stateMutability": "nonpayable",
      "type": "function"
    },
    {
      "inputs": [],
      "name": "testWithdraw",
      "outputs": [],
      "stateMutability": "nonpayable",
      "type": "function"
    },
    {
      "inputs": [],
      "name": "timeLeftOnCurrentJackpot",
      "outputs": [
        {
          "internalType": "uint256",
          "name": "",
          "type": "uint256"
        }
      ],
      "stateMutability": "view",
      "type": "function"
    },
    {
      "stateMutability": "payable",
      "type": "receive"
    }
  ],
  "bytecode": "60c0604052601680546001600160a01b031990811673a5e0829caced8ffdd4de3c43696c57f7d7a678ff179091556017805490911673aa1dc356dc4b18f30c347798fd5379f3d77abc5b17905534801561005857600080fd5b507f3d2341adb2d31f1c5530cdc622016af293177ae000000000000000000000000060a0527fb0897686c545045afc77cf20ec7a532e3120e0f1000000000000000000000000608052601080547ff86195cf7690c55907b2b611ebb7343a6f649bff128701cc542f0569e2c549da6001908155655af3107a40006002556000600d8190556101003390810260ff19909416909217610100600160a81b03191692909217909255601180546001600160a01b031916909217909155603c600f5573b0897686c545045afc77cf20ec7a532e3120e0f190733d2341adb2d31f1c5530cdc622016af293177ae090611bdc9061016f903980610529528061171152508061092d528061124952806116e25250611bdc6000f3fe6080604052600436106100ec5760003560e01c8063c486ab9e1161008a578063da77dc0211610059578063da77dc0214610303578063da931fe0146103c4578063e240b53c146103cc578063ee2bbda71461047157610160565b8063c486ab9e14610273578063c9ca489514610288578063cd635b71146102bb578063d509b16c146102ee57610160565b806394985ddd116100c657806394985ddd146101b6578063a253fbfa146101e6578063ad09340914610203578063b37217a41461024957610160565b806303f80e55146101655780633bdcd0601461018c5780636f9fb98a146101a157610160565b36610160576016546001600160a01b0316331480159061011757506017546001600160a01b03163314155b1561015e576010546040516001600160a01b0361010090920491909116903480156108fc02916000818181858888f1935050505015801561015c573d6000803e3d6000fd5b505b005b600080fd5b34801561017157600080fd5b5061017a61049b565b60408051918252519081900360200190f35b34801561019857600080fd5b5061017a610501565b3480156101ad57600080fd5b5061017a61051a565b3480156101c257600080fd5b5061015e600480360360408110156101d957600080fd5b508035906020013561051e565b61015e600480360360208110156101fc57600080fd5b50356105a9565b34801561020f57600080fd5b5061022d6004803603602081101561022657600080fd5b503561083e565b604080516001600160a01b039092168252519081900360200190f35b34801561025557600080fd5b5061017a6004803603602081101561026c57600080fd5b50356108b5565b34801561027f57600080fd5b5061017a6109f1565b34801561029457600080fd5b5061015e600480360360208110156102ab57600080fd5b50356001600160a01b03166109fa565b3480156102c757600080fd5b5061015e600480360360208110156102de57600080fd5b50356001600160a01b0316610a6e565b3480156102fa57600080fd5b5061015e610ae8565b34801561030f57600080fd5b5061032d6004803603602081101561032657600080fd5b5035610b7d565b6040518089815260200188815260200187815260200186815260200185815260200184815260200180602001836001600160a01b03166001600160a01b03168152602001828103825284818151815260200191508051906020019060200280838360005b838110156103a9578181015183820152602001610391565b50505050905001995050505050505050505060405180910390f35b61015e610cb7565b3480156103d857600080fd5b506103e16112cd565b6040518088815260200187815260200186815260200185815260200184815260200180602001836001600160a01b03166001600160a01b03168152602001828103825284818151815260200191508051906020019060200280838360005b8381101561045757818101518382015260200161043f565b505050509050019850505050505050505060405180910390f35b34801561047d57600080fd5b5061015e6004803603602081101561049457600080fd5b503561138a565b60008060105460ff1660028111156104af57fe5b146104f6576040805162461bcd60e51b8152602060048201526012602482015271081b9bc81858dd1a5d99481a9858dadc1bdd60721b604482015290519081900360640190fd5b506006544290035b90565b60105460009060ff16600281111561051557fe5b905090565b4790565b336001600160a01b037f0000000000000000000000000000000000000000000000000000000000000000161461059b576040805162461bcd60e51b815260206004820152601f60248201527f4f6e6c7920565246436f6f7264696e61746f722063616e2066756c66696c6c00604482015290519081900360640190fd5b6105a582826113e1565b5050565b600160105460ff1660028111156105bc57fe5b14610607576040805162461bcd60e51b81526020600482015260166024820152754a61636b706f7420616c72656164792061637469766560501b604482015290519081900360640190fd5b600f548111156106485760405162461bcd60e51b8152600401808060200182810382526028815260200180611b7f6028913960400191505060405180910390fd5b6010805460ff191690556040805161010081018252600d5481523460208083019190915242828401819052603c850201606083015260006080830181905260a0830152600c8054845181840281018401909552808552929360c085019390928301828280156106e057602002820191906000526020600020905b81546001600160a01b031681526001909101906020018083116106c2575b505050918352505030602091820152815160039081558282015160045560408301516005556060830151600655608083015160075560a083015160085560c0830151805191926107369260099290910190611a5c565b5060e09190910151600791820180546001600160a01b03199081166001600160a01b0390931692909217905560098054600181019091557f6e1540171b6c0c960b71a7020d9f60077f6af931a8bbf590da0223dacf75c7af0180543392168217905560009081526013602052604090203490819055905490670de0b6b3a764000090045b60075482820111156107f45760078054600090815260126020526040902080546001600160a01b03191633179055805460010190556107ba565b600d546004546040805192835242602084015282810191909152517f8083f0e738c5b215730e4d3424baaf5b503ad4d2aa9e819f01aba8cecc3a2c199181900360600190a1505050565b60008060105460ff16600281111561085257fe5b14610899576040805162461bcd60e51b8152602060048201526012602482015271081b9bc81858dd1a5d99481a9858dadc1bdd60721b604482015290519081900360640190fd5b506000908152601260205260409020546001600160a01b031690565b60105460009061010090046001600160a01b0316331461090a576040805162461bcd60e51b815260206004820152601f6024820152600080516020611b5f833981519152604482015290519081900360640190fd5b600254604080516370a0823160e01b815230600482015290516001600160a01b037f000000000000000000000000000000000000000000000000000000000000000016916370a08231916024808301926020929190829003018186803b15801561097357600080fd5b505afa158015610987573d6000803e3d6000fd5b505050506040513d602081101561099d57600080fd5b505110156109dc5760405162461bcd60e51b815260040180806020018281038252602b815260200180611b34602b913960400191505060405180910390fd5b6109eb600154600254846116de565b92915050565b600d5460010190565b60105461010090046001600160a01b03163314610a4c576040805162461bcd60e51b815260206004820152601f6024820152600080516020611b5f833981519152604482015290519081900360640190fd5b601180546001600160a01b0319166001600160a01b0392909216919091179055565b60105461010090046001600160a01b03163314610ac0576040805162461bcd60e51b815260206004820152601f6024820152600080516020611b5f833981519152604482015290519081900360640190fd5b601080546001600160a01b0390921661010002610100600160a81b0319909216919091179055565b60105461010090046001600160a01b03163314610b3a576040805162461bcd60e51b815260206004820152601f6024820152600080516020611b5f833981519152604482015290519081900360640190fd5b6010546040516001600160a01b0361010090920491909116904780156108fc02916000818181858888f19350505050158015610b7a573d6000803e3d6000fd5b50565b60008060008060008060606000610b92611ac1565b60008a815260146020908152604091829020825161010081018452815481526001820154818401526002820154818501526003820154606082015260048201546080820152600582015460a08201526006820180548551818602810186019096528086529194929360c08601939290830182828015610c3a57602002820191906000526020600020905b81546001600160a01b03168152600190910190602001808311610c1c575b505050505081526020016007820160009054906101000a90046001600160a01b03166001600160a01b03166001600160a01b03168152505090508981602001518260400151836060015184608001518560a001518660c001518760e001518090509850985098509850985098509850985050919395975091939597565b600060105460ff166002811115610cca57fe5b14610d1c576040805162461bcd60e51b815260206004820152601960248201527f6e6f20616374697665206a61636b706f7420746f206a6f696e00000000000000604482015290519081900360640190fd5b60098054600181019091557f6e1540171b6c0c960b71a7020d9f60077f6af931a8bbf590da0223dacf75c7af0180546001600160a01b03191633908117909155600480543490810190915560009182526013602052604090912081905560075490670de0b6b3a764000090045b6007548282011115610dc35760078054600090815260126020526040902080546001600160a01b0319163317905580546001019055610d89565b6004546040805134815233602082015280820192909252517fda8725169a059f8fd7ad1ab64b4d218e8a5c396c2cf9f402fc36e05efafdaa9b9181900360600190a160065442106105a5576010805460ff1916600217905560045460095460408051428152602081019390935282810191909152517f06494056c073c6b6ef5d6da231a067ca5822ed0ef788f0c6760e1f4499d5dfa8916060908290030190a16060610e6d6118a0565b601654600254604080516307c0329d60e21b815260048101838152602482019283528551604483015285519596506000956001600160a01b0390951694631f00ca74949388939091606490910190602080860191028083838c5b83811015610edf578181015183820152602001610ec7565b50505050905001935050505060006040518083038186803b158015610f0357600080fd5b505afa158015610f17573d6000803e3d6000fd5b505050506040513d6000823e601f3d908101601f191682016040526020811015610f4057600080fd5b8101908080516040519392919084640100000000821115610f6057600080fd5b908301906020820185811115610f7557600080fd5b8251866020820283011164010000000082111715610f9257600080fd5b82525081516020918201928201910280838360005b83811015610fbf578181015183820152602001610fa7565b50505050905001604052505050600081518110610fd857fe5b60200260200101519050601660009054906101000a90046001600160a01b03166001600160a01b031663fb3bdb4182600254853042600f016040518663ffffffff1660e01b81526004018085815260200180602001846001600160a01b03166001600160a01b03168152602001838152602001828103825285818151815260200191508051906020019060200280838360005b8381101561108357818101518382015260200161106b565b50505050905001955050505050506000604051808303818588803b1580156110aa57600080fd5b505af11580156110be573d6000803e3d6000fd5b50505050506040513d6000823e601f3d908101601f1916820160405260208110156110e857600080fd5b810190808051604051939291908464010000000082111561110857600080fd5b90830190602082018581111561111d57600080fd5b825186602082028301116401000000008211171561113a57600080fd5b82525081516020918201928201910280838360005b8381101561116757818101518382015260200161114f565b5050505091909101604081815260175460025463095ea7b360e01b84526001600160a01b0390911660048401526024830152517353e0bca35ec356bd5dddfebbd1fc0fd03fabad39965063095ea7b395506044808301955060209450909250908290030181600087803b1580156111dd57600080fd5b505af11580156111f1573d6000803e3d6000fd5b505050506040513d602081101561120757600080fd5b505060175460025460408051632b7f092360e01b815260048101929092527353e0bca35ec356bd5dddfebbd1fc0fd03fabad3960248301526001600160a01b037f0000000000000000000000000000000000000000000000000000000000000000811660448401529051921691632b7f09239160648082019260009290919082900301818387803b15801561129b57600080fd5b505af11580156112af573d6000803e3d6000fd5b5050600480548490039055506112c69050426108b5565b5050505050565b60008060008060006060600060036000015460036001015460036002015460038001546003600401546003600601600360070160009054906101000a90046001600160a01b03168180548060200260200160405190810160405280929190818152602001828054801561136957602002820191906000526020600020905b81546001600160a01b0316815260019091019060200180831161134b575b50505050509150809050965096509650965096509650965090919293949596565b60105461010090046001600160a01b031633146113dc576040805162461bcd60e51b815260206004820152601f6024820152600080516020611b5f833981519152604482015290519081900360640190fd5b600f55565b600881905560075460009082816113f457fe5b06600081815260126020526040902054600a80546001600160a01b0319166001600160a01b03928316179081905560045492935016906108fc90600290049081150290604051600060405180830381858888f1935050505015801561145d573d6000803e3d6000fd5b50611466611ac1565b6040805161010081018252600380548252600454602080840191909152600554838501526006546060840152600754608084015260085460a0840152600980548551818402810184019096528086529394929360c0860193928301828280156114f857602002820191906000526020600020905b81546001600160a01b031681526001909101906020018083116114da575b5050509183525050600791909101546001600160a01b0316602091820152600d5460009081526014825260409081902083518155838301516001820155908301516002820155606083015160038201556080830151600482015560a0830151600582015560c083015180519394508493919261157c92600685019290910190611a5c565b5060e09190910151600790910180546001600160a01b0319166001600160a01b0390921691909117905560008481526015602090815260409182902083518155838201516001820155918301516002830155606083015160038301556080830151600483015560a0830151600583015560c08301518051849392611607926006850192910190611a5c565b5060e09190910151600790910180546001600160a01b0319166001600160a01b0390921691909117905560035460059006611677576011546040516001600160a01b03909116904780156108fc02916000818181858888f19350505050158015611675573d6000803e3d6000fd5b505b600d80546001019055600a54600454604080516001600160a01b039093168352602083019190915280517f180c1be73088c081b2c1a00f1d83378314862d2c6ae815df41c75a0eb1fb032f9281900390910190a150506010805460ff191660011790555050565b60007f00000000000000000000000000000000000000000000000000000000000000006001600160a01b0316634000aea07f000000000000000000000000000000000000000000000000000000000000000085878660405160200180838152602001828152602001925050506040516020818303038152906040526040518463ffffffff1660e01b815260040180846001600160a01b03166001600160a01b0316815260200183815260200180602001828103825283818151815260200191508051906020019080838360005b838110156117c35781810151838201526020016117ab565b50505050905090810190601f1680156117f05780820380516001836020036101000a031916815260200191505b50945050505050602060405180830381600087803b15801561181157600080fd5b505af1158015611825573d6000803e3d6000fd5b505050506040513d602081101561183b57600080fd5b505060008481526020819052604081205461185b90869085903090611988565b60008681526020819052604090205490915061187e90600163ffffffff6119cf16565b6000868152602081905260409020556118978582611a30565b95945050505050565b60408051600380825260808201909252606091829190602082018380368337019050509050730d500b1d8e8ef31e21c99d1db9a6444d3adf1270816000815181106118e757fe5b60200260200101906001600160a01b031690816001600160a01b031681525050737ceb23fd6bc0add59e62ac25578270cff1b9f6198160018151811061192957fe5b60200260200101906001600160a01b031690816001600160a01b0316815250507353e0bca35ec356bd5dddfebbd1fc0fd03fabad398160028151811061196b57fe5b6001600160a01b0390921660209283029190910190910152905090565b60408051602080820196909652808201949094526001600160a01b039290921660608401526080808401919091528151808403909101815260a09092019052805191012090565b600082820183811015611a29576040805162461bcd60e51b815260206004820152601b60248201527f536166654d6174683a206164646974696f6e206f766572666c6f770000000000604482015290519081900360640190fd5b9392505050565b604080516020808201949094528082019290925280518083038201815260609092019052805191012090565b828054828255906000526020600020908101928215611ab1579160200282015b82811115611ab157825182546001600160a01b0319166001600160a01b03909116178255602090920191600190910190611a7c565b50611abd929150611b0f565b5090565b6040518061010001604052806000815260200160008152602001600081526020016000815260200160008152602001600081526020016060815260200160006001600160a01b031681525090565b6104fe91905b80821115611abd5780546001600160a01b0319168155600101611b1556fe4e6f7420656e6f756768204c494e4b202d2066696c6c20636f6e747261637420776974682066617563657446756e6374696f6e206f6e6c792063616c6c61626c65206279206f776e6572006a61636b706f7420746f6f206c6f6e672c20636865636b206d617874696d65207661726961626c65a264697066735822122014cae8a94ef22f193e28e3963d058aa0641ffaf2ddf813fdaac607a81cd32b9a64736f6c63430006060033",
  "bytecodeSha1": "348729a26a380e326b41678fe938f4a4bdb1cce0",
  "compiler": {
    "evm_version": "istanbul",
    "optimizer": {
      "enabled": true,
      "runs": 200
    },
    "version": "0.6.6+commit.6c089d02"
  },
  "contractName": "JackpotGame",
  "language": "Solidity",
  "natspec": {
    "methods": {}
  },
  "opcodes": "PUSH1 0x80 PUSH1 0x40 MSTORE PUSH1 0x4 CALLDATASIZE LT PUSH2 0xEC JUMPI PUSH1 0x0 CALLDATALOAD PUSH1 0xE0 SHR DUP1 PUSH4 0xC486AB9E GT PUSH2 0x8A JUMPI DUP1 PUSH4 0xDA77DC02 GT PUSH2 0x59 JUMPI DUP1 PUSH4 0xDA77DC02 EQ PUSH2 0x303 JUMPI DUP1 PUSH4 0xDA931FE0 EQ PUSH2 0x3C4 JUMPI DUP1 PUSH4 0xE240B53C EQ PUSH2 0x3CC JUMPI DUP1 PUSH4 0xEE2BBDA7 EQ PUSH2 0x471 JUMPI PUSH2 0x160 JUMP JUMPDEST DUP1 PUSH4 0xC486AB9E EQ PUSH2 0x273 JUMPI DUP1 PUSH4 0xC9CA4895 EQ PUSH2 0x288 JUMPI DUP1 PUSH4 0xCD635B71 EQ PUSH2 0x2BB JUMPI DUP1 PUSH4 0xD509B16C EQ PUSH2 0x2EE JUMPI PUSH2 0x160 JUMP JUMPDEST DUP1 PUSH4 0x94985DDD GT PUSH2 0xC6 JUMPI DUP1 PUSH4 0x94985DDD EQ PUSH2 0x1B6 JUMPI DUP1 PUSH4 0xA253FBFA EQ PUSH2 0x1E6 JUMPI DUP1 PUSH4 0xAD093409 EQ PUSH2 0x203 JUMPI DUP1 PUSH4 0xB37217A4 EQ PUSH2 0x249 JUMPI PUSH2 0x160 JUMP JUMPDEST DUP1 PUSH4 0x3F80E55 EQ PUSH2 0x165 JUMPI DUP1 PUSH4 0x3BDCD060 EQ PUSH2 0x18C JUMPI DUP1 PUSH4 0x6F9FB98A EQ PUSH2 0x1A1 JUMPI PUSH2 0x160 JUMP JUMPDEST CALLDATASIZE PUSH2 0x160 JUMPI PUSH1 0x16 SLOAD PUSH1 0x1 PUSH1 0x1 PUSH1 0xA0 SHL SUB AND CALLER EQ DUP1 ISZERO SWAP1 PUSH2 0x117 JUMPI POP PUSH1 0x17 SLOAD PUSH1 0x1 PUSH1 0x1 PUSH1 0xA0 SHL SUB AND CALLER EQ ISZERO JUMPDEST ISZERO PUSH2 0x15E JUMPI PUSH1 0x10 SLOAD PUSH1 0x40 MLOAD PUSH1 0x1 PUSH1 0x1 PUSH1 0xA0 SHL SUB PUSH2 0x100 SWAP1 SWAP3 DIV SWAP2 SWAP1 SWAP2 AND SWAP1 CALLVALUE DUP1 ISZERO PUSH2 0x8FC MUL SWAP2 PUSH1 0x0 DUP2 DUP2 DUP2 DUP6 DUP9 DUP9 CALL SWAP4 POP POP POP POP ISZERO DUP1 ISZERO PUSH2 0x15C JUMPI RETURNDATASIZE PUSH1 0x0 DUP1 RETURNDATACOPY RETURNDATASIZE PUSH1 0x0 REVERT JUMPDEST POP JUMPDEST STOP JUMPDEST PUSH1 0x0 DUP1 REVERT JUMPDEST CALLVALUE DUP1 ISZERO PUSH2 0x171 JUMPI PUSH1 0x0 DUP1 REVERT JUMPDEST POP PUSH2 0x17A PUSH2 0x49B JUMP JUMPDEST PUSH1 0x40 DUP1 MLOAD SWAP2 DUP3 MSTORE MLOAD SWAP1 DUP2 SWAP1 SUB PUSH1 0x20 ADD SWAP1 RETURN JUMPDEST CALLVALUE DUP1 ISZERO PUSH2 0x198 JUMPI PUSH1 0x0 DUP1 REVERT JUMPDEST POP PUSH2 0x17A PUSH2 0x501 JUMP JUMPDEST CALLVALUE DUP1 ISZERO PUSH2 0x1AD JUMPI PUSH1 0x0 DUP1 REVERT JUMPDEST POP PUSH2 0x17A PUSH2 0x51A JUMP JUMPDEST CALLVALUE DUP1 ISZERO PUSH2 0x1C2 JUMPI PUSH1 0x0 DUP1 REVERT JUMPDEST POP PUSH2 0x15E PUSH1 0x4 DUP1 CALLDATASIZE SUB PUSH1 0x40 DUP2 LT ISZERO PUSH2 0x1D9 JUMPI PUSH1 0x0 DUP1 REVERT JUMPDEST POP DUP1 CALLDATALOAD SWAP1 PUSH1 0x20 ADD CALLDATALOAD PUSH2 0x51E JUMP JUMPDEST PUSH2 0x15E PUSH1 0x4 DUP1 CALLDATASIZE SUB PUSH1 0x20 DUP2 LT ISZERO PUSH2 0x1FC JUMPI PUSH1 0x0 DUP1 REVERT JUMPDEST POP CALLDATALOAD PUSH2 0x5A9 JUMP JUMPDEST CALLVALUE DUP1 ISZERO PUSH2 0x20F JUMPI PUSH1 0x0 DUP1 REVERT JUMPDEST POP PUSH2 0x22D PUSH1 0x4 DUP1 CALLDATASIZE SUB PUSH1 0x20 DUP2 LT ISZERO PUSH2 0x226 JUMPI PUSH1 0x0 DUP1 REVERT JUMPDEST POP CALLDATALOAD PUSH2 0x83E JUMP JUMPDEST PUSH1 0x40 DUP1 MLOAD PUSH1 0x1 PUSH1 0x1 PUSH1 0xA0 SHL SUB SWAP1 SWAP3 AND DUP3 MSTORE MLOAD SWAP1 DUP2 SWAP1 SUB PUSH1 0x20 ADD SWAP1 RETURN JUMPDEST CALLVALUE DUP1 ISZERO PUSH2 0x255 JUMPI PUSH1 0x0 DUP1 REVERT JUMPDEST POP PUSH2 0x17A PUSH1 0x4 DUP1 CALLDATASIZE SUB PUSH1 0x20 DUP2 LT ISZERO PUSH2 0x26C JUMPI PUSH1 0x0 DUP1 REVERT JUMPDEST POP CALLDATALOAD PUSH2 0x8B5 JUMP JUMPDEST CALLVALUE DUP1 ISZERO PUSH2 0x27F JUMPI PUSH1 0x0 DUP1 REVERT JUMPDEST POP PUSH2 0x17A PUSH2 0x9F1 JUMP JUMPDEST CALLVALUE DUP1 ISZERO PUSH2 0x294 JUMPI PUSH1 0x0 DUP1 REVERT JUMPDEST POP PUSH2 0x15E PUSH1 0x4 DUP1 CALLDATASIZE SUB PUSH1 0x20 DUP2 LT ISZERO PUSH2 0x2AB JUMPI PUSH1 0x0 DUP1 REVERT JUMPDEST POP CALLDATALOAD PUSH1 0x1 PUSH1 0x1 PUSH1 0xA0 SHL SUB AND PUSH2 0x9FA JUMP JUMPDEST CALLVALUE DUP1 ISZERO PUSH2 0x2C7 JUMPI PUSH1 0x0 DUP1 REVERT JUMPDEST POP PUSH2 0x15E PUSH1 0x4 DUP1 CALLDATASIZE SUB PUSH1 0x20 DUP2 LT ISZERO PUSH2 0x2DE JUMPI PUSH1 0x0 DUP1 REVERT JUMPDEST POP CALLDATALOAD PUSH1 0x1 PUSH1 0x1 PUSH1 0xA0 SHL SUB AND PUSH2 0xA6E JUMP JUMPDEST CALLVALUE DUP1 ISZERO PUSH2 0x2FA JUMPI PUSH1 0x0 DUP1 REVERT JUMPDEST POP PUSH2 0x15E PUSH2 0xAE8 JUMP JUMPDEST CALLVALUE DUP1 ISZERO PUSH2 0x30F JUMPI PUSH1 0x0 DUP1 REVERT JUMPDEST POP PUSH2 0x32D PUSH1 0x4 DUP1 CALLDATASIZE SUB PUSH1 0x20 DUP2 LT ISZERO PUSH2 0x326 JUMPI PUSH1 0x0 DUP1 REVERT JUMPDEST POP CALLDATALOAD PUSH2 0xB7D JUMP JUMPDEST PUSH1 0x40 MLOAD DUP1 DUP10 DUP2 MSTORE PUSH1 0x20 ADD DUP9 DUP2 MSTORE PUSH1 0x20 ADD DUP8 DUP2 MSTORE PUSH1 0x20 ADD DUP7 DUP2 MSTORE PUSH1 0x20 ADD DUP6 DUP2 MSTORE PUSH1 0x20 ADD DUP5 DUP2 MSTORE PUSH1 0x20 ADD DUP1 PUSH1 0x20 ADD DUP4 PUSH1 0x1 PUSH1 0x1 PUSH1 0xA0 SHL SUB AND PUSH1 0x1 PUSH1 0x1 PUSH1 0xA0 SHL SUB AND DUP2 MSTORE PUSH1 0x20 ADD DUP3 DUP2 SUB DUP3 MSTORE DUP5 DUP2 DUP2 MLOAD DUP2 MSTORE PUSH1 0x20 ADD SWAP2 POP DUP1 MLOAD SWAP1 PUSH1 0x20 ADD SWAP1 PUSH1 0x20 MUL DUP1 DUP4 DUP4 PUSH1 0x0 JUMPDEST DUP4 DUP2 LT ISZERO PUSH2 0x3A9 JUMPI DUP2 DUP2 ADD MLOAD DUP4 DUP3 ADD MSTORE PUSH1 0x20 ADD PUSH2 0x391 JUMP JUMPDEST POP POP POP POP SWAP1 POP ADD SWAP10 POP POP POP POP POP POP POP POP POP POP PUSH1 0x40 MLOAD DUP1 SWAP2 SUB SWAP1 RETURN JUMPDEST PUSH2 0x15E PUSH2 0xCB7 JUMP JUMPDEST CALLVALUE DUP1 ISZERO PUSH2 0x3D8 JUMPI PUSH1 0x0 DUP1 REVERT JUMPDEST POP PUSH2 0x3E1 PUSH2 0x12CD JUMP JUMPDEST PUSH1 0x40 MLOAD DUP1 DUP9 DUP2 MSTORE PUSH1 0x20 ADD DUP8 DUP2 MSTORE PUSH1 0x20 ADD DUP7 DUP2 MSTORE PUSH1 0x20 ADD DUP6 DUP2 MSTORE PUSH1 0x20 ADD DUP5 DUP2 MSTORE PUSH1 0x20 ADD DUP1 PUSH1 0x20 ADD DUP4 PUSH1 0x1 PUSH1 0x1 PUSH1 0xA0 SHL SUB AND PUSH1 0x1 PUSH1 0x1 PUSH1 0xA0 SHL SUB AND DUP2 MSTORE PUSH1 0x20 ADD DUP3 DUP2 SUB DUP3 MSTORE DUP5 DUP2 DUP2 MLOAD DUP2 MSTORE PUSH1 0x20 ADD SWAP2 POP DUP1 MLOAD SWAP1 PUSH1 0x20 ADD SWAP1 PUSH1 0x20 MUL DUP1 DUP4 DUP4 PUSH1 0x0 JUMPDEST DUP4 DUP2 LT ISZERO PUSH2 0x457 JUMPI DUP2 DUP2 ADD MLOAD DUP4 DUP3 ADD MSTORE PUSH1 0x20 ADD PUSH2 0x43F JUMP JUMPDEST POP POP POP POP SWAP1 POP ADD SWAP9 POP POP POP POP POP POP POP POP POP PUSH1 0x40 MLOAD DUP1 SWAP2 SUB SWAP1 RETURN JUMPDEST CALLVALUE DUP1 ISZERO PUSH2 0x47D JUMPI PUSH1 0x0 DUP1 REVERT JUMPDEST POP PUSH2 0x15E PUSH1 0x4 DUP1 CALLDATASIZE SUB PUSH1 0x20 DUP2 LT ISZERO PUSH2 0x494 JUMPI PUSH1 0x0 DUP1 REVERT JUMPDEST POP CALLDATALOAD PUSH2 0x138A JUMP JUMPDEST PUSH1 0x0 DUP1 PUSH1 0x10 SLOAD PUSH1 0xFF AND PUSH1 0x2 DUP2 GT ISZERO PUSH2 0x4AF JUMPI INVALID JUMPDEST EQ PUSH2 0x4F6 JUMPI PUSH1 0x40 DUP1 MLOAD PUSH3 0x461BCD PUSH1 0xE5 SHL DUP2 MSTORE PUSH1 0x20 PUSH1 0x4 DUP3 ADD MSTORE PUSH1 0x12 PUSH1 0x24 DUP3 ADD MSTORE PUSH18 0x81B9BC81858DD1A5D99481A9858DADC1BDD PUSH1 0x72 SHL PUSH1 0x44 DUP3 ADD MSTORE SWAP1 MLOAD SWAP1 DUP2 SWAP1 SUB PUSH1 0x64 ADD SWAP1 REVERT JUMPDEST POP PUSH1 0x6 SLOAD TIMESTAMP SWAP1 SUB JUMPDEST SWAP1 JUMP JUMPDEST PUSH1 0x10 SLOAD PUSH1 0x0 SWAP1 PUSH1 0xFF AND PUSH1 0x2 DUP2 GT ISZERO PUSH2 0x515 JUMPI INVALID JUMPDEST SWAP1 POP SWAP1 JUMP JUMPDEST SELFBALANCE SWAP1 JUMP JUMPDEST CALLER PUSH1 0x1 PUSH1 0x1 PUSH1 0xA0 SHL SUB PUSH32 0x0 AND EQ PUSH2 0x59B JUMPI PUSH1 0x40 DUP1 MLOAD PUSH3 0x461BCD PUSH1 0xE5 SHL DUP2 MSTORE PUSH1 0x20 PUSH1 0x4 DUP3 ADD MSTORE PUSH1 0x1F PUSH1 0x24 DUP3 ADD MSTORE PUSH32 0x4F6E6C7920565246436F6F7264696E61746F722063616E2066756C66696C6C00 PUSH1 0x44 DUP3 ADD MSTORE SWAP1 MLOAD SWAP1 DUP2 SWAP1 SUB PUSH1 0x64 ADD SWAP1 REVERT JUMPDEST PUSH2 0x5A5 DUP3 DUP3 PUSH2 0x13E1 JUMP JUMPDEST POP POP JUMP JUMPDEST PUSH1 0x1 PUSH1 0x10 SLOAD PUSH1 0xFF AND PUSH1 0x2 DUP2 GT ISZERO PUSH2 0x5BC JUMPI INVALID JUMPDEST EQ PUSH2 0x607 JUMPI PUSH1 0x40 DUP1 MLOAD PUSH3 0x461BCD PUSH1 0xE5 SHL DUP2 MSTORE PUSH1 0x20 PUSH1 0x4 DUP3 ADD MSTORE PUSH1 0x16 PUSH1 0x24 DUP3 ADD MSTORE PUSH22 0x4A61636B706F7420616C726561647920616374697665 PUSH1 0x50 SHL PUSH1 0x44 DUP3 ADD MSTORE SWAP1 MLOAD SWAP1 DUP2 SWAP1 SUB PUSH1 0x64 ADD SWAP1 REVERT JUMPDEST PUSH1 0xF SLOAD DUP2 GT ISZERO PUSH2 0x648 JUMPI PUSH1 0x40 MLOAD PUSH3 0x461BCD PUSH1 0xE5 SHL DUP2 MSTORE PUSH1 0x4 ADD DUP1 DUP1 PUSH1 0x20 ADD DUP3 DUP2 SUB DUP3 MSTORE PUSH1 0x28 DUP2 MSTORE PUSH1 0x20 ADD DUP1 PUSH2 0x1B7F PUSH1 0x28 SWAP2 CODECOPY PUSH1 0x40 ADD SWAP2 POP POP PUSH1 0x40 MLOAD DUP1 SWAP2 SUB SWAP1 REVERT JUMPDEST PUSH1 0x10 DUP1 SLOAD PUSH1 0xFF NOT AND SWAP1 SSTORE PUSH1 0x40 DUP1 MLOAD PUSH2 0x100 DUP2 ADD DUP3 MSTORE PUSH1 0xD SLOAD DUP2 MSTORE CALLVALUE PUSH1 0x20 DUP1 DUP4 ADD SWAP2 SWAP1 SWAP2 MSTORE TIMESTAMP DUP3 DUP5 ADD DUP2 SWAP1 MSTORE PUSH1 0x3C DUP6 MUL ADD PUSH1 0x60 DUP4 ADD MSTORE PUSH1 0x0 PUSH1 0x80 DUP4 ADD DUP2 SWAP1 MSTORE PUSH1 0xA0 DUP4 ADD MSTORE PUSH1 0xC DUP1 SLOAD DUP5 MLOAD DUP2 DUP5 MUL DUP2 ADD DUP5 ADD SWAP1 SWAP6 MSTORE DUP1 DUP6 MSTORE SWAP3 SWAP4 PUSH1 0xC0 DUP6 ADD SWAP4 SWAP1 SWAP3 DUP4 ADD DUP3 DUP3 DUP1 ISZERO PUSH2 0x6E0 JUMPI PUSH1 0x20 MUL DUP3 ADD SWAP2 SWAP1 PUSH1 0x0 MSTORE PUSH1 0x20 PUSH1 0x0 KECCAK256 SWAP1 JUMPDEST DUP2 SLOAD PUSH1 0x1 PUSH1 0x1 PUSH1 0xA0 SHL SUB AND DUP2 MSTORE PUSH1 0x1 SWAP1 SWAP2 ADD SWAP1 PUSH1 0x20 ADD DUP1 DUP4 GT PUSH2 0x6C2 JUMPI JUMPDEST POP POP POP SWAP2 DUP4 MSTORE POP POP ADDRESS PUSH1 0x20 SWAP2 DUP3 ADD MSTORE DUP2 MLOAD PUSH1 0x3 SWAP1 DUP2 SSTORE DUP3 DUP3 ADD MLOAD PUSH1 0x4 SSTORE PUSH1 0x40 DUP4 ADD MLOAD PUSH1 0x5 SSTORE PUSH1 0x60 DUP4 ADD MLOAD PUSH1 0x6 SSTORE PUSH1 0x80 DUP4 ADD MLOAD PUSH1 0x7 SSTORE PUSH1 0xA0 DUP4 ADD MLOAD PUSH1 0x8 SSTORE PUSH1 0xC0 DUP4 ADD MLOAD DUP1 MLOAD SWAP2 SWAP3 PUSH2 0x736 SWAP3 PUSH1 0x9 SWAP3 SWAP1 SWAP2 ADD SWAP1 PUSH2 0x1A5C JUMP JUMPDEST POP PUSH1 0xE0 SWAP2 SWAP1 SWAP2 ADD MLOAD PUSH1 0x7 SWAP2 DUP3 ADD DUP1 SLOAD PUSH1 0x1 PUSH1 0x1 PUSH1 0xA0 SHL SUB NOT SWAP1 DUP2 AND PUSH1 0x1 PUSH1 0x1 PUSH1 0xA0 SHL SUB SWAP1 SWAP4 AND SWAP3 SWAP1 SWAP3 OR SWAP1 SSTORE PUSH1 0x9 DUP1 SLOAD PUSH1 0x1 DUP2 ADD SWAP1 SWAP2 SSTORE PUSH32 0x6E1540171B6C0C960B71A7020D9F60077F6AF931A8BBF590DA0223DACF75C7AF ADD DUP1 SLOAD CALLER SWAP3 AND DUP3 OR SWAP1 SSTORE PUSH1 0x0 SWAP1 DUP2 MSTORE PUSH1 0x13 PUSH1 0x20 MSTORE PUSH1 0x40 SWAP1 KECCAK256 CALLVALUE SWAP1 DUP2 SWAP1 SSTORE SWAP1 SLOAD SWAP1 PUSH8 0xDE0B6B3A7640000 SWAP1 DIV JUMPDEST PUSH1 0x7 SLOAD DUP3 DUP3 ADD GT ISZERO PUSH2 0x7F4 JUMPI PUSH1 0x7 DUP1 SLOAD PUSH1 0x0 SWAP1 DUP2 MSTORE PUSH1 0x12 PUSH1 0x20 MSTORE PUSH1 0x40 SWAP1 KECCAK256 DUP1 SLOAD PUSH1 0x1 PUSH1 0x1 PUSH1 0xA0 SHL SUB NOT AND CALLER OR SWAP1 SSTORE DUP1 SLOAD PUSH1 0x1 ADD SWAP1 SSTORE PUSH2 0x7BA JUMP JUMPDEST PUSH1 0xD SLOAD PUSH1 0x4 SLOAD PUSH1 0x40 DUP1 MLOAD SWAP3 DUP4 MSTORE TIMESTAMP PUSH1 0x20 DUP5 ADD MSTORE DUP3 DUP2 ADD SWAP2 SWAP1 SWAP2 MSTORE MLOAD PUSH32 0x8083F0E738C5B215730E4D3424BAAF5B503AD4D2AA9E819F01ABA8CECC3A2C19 SWAP2 DUP2 SWAP1 SUB PUSH1 0x60 ADD SWAP1 LOG1 POP POP POP JUMP JUMPDEST PUSH1 0x0 DUP1 PUSH1 0x10 SLOAD PUSH1 0xFF AND PUSH1 0x2 DUP2 GT ISZERO PUSH2 0x852 JUMPI INVALID JUMPDEST EQ PUSH2 0x899 JUMPI PUSH1 0x40 DUP1 MLOAD PUSH3 0x461BCD PUSH1 0xE5 SHL DUP2 MSTORE PUSH1 0x20 PUSH1 0x4 DUP3 ADD MSTORE PUSH1 0x12 PUSH1 0x24 DUP3 ADD MSTORE PUSH18 0x81B9BC81858DD1A5D99481A9858DADC1BDD PUSH1 0x72 SHL PUSH1 0x44 DUP3 ADD MSTORE SWAP1 MLOAD SWAP1 DUP2 SWAP1 SUB PUSH1 0x64 ADD SWAP1 REVERT JUMPDEST POP PUSH1 0x0 SWAP1 DUP2 MSTORE PUSH1 0x12 PUSH1 0x20 MSTORE PUSH1 0x40 SWAP1 KECCAK256 SLOAD PUSH1 0x1 PUSH1 0x1 PUSH1 0xA0 SHL SUB AND SWAP1 JUMP JUMPDEST PUSH1 0x10 SLOAD PUSH1 0x0 SWAP1 PUSH2 0x100 SWAP1 DIV PUSH1 0x1 PUSH1 0x1 PUSH1 0xA0 SHL SUB AND CALLER EQ PUSH2 0x90A JUMPI PUSH1 0x40 DUP1 MLOAD PUSH3 0x461BCD PUSH1 0xE5 SHL DUP2 MSTORE PUSH1 0x20 PUSH1 0x4 DUP3 ADD MSTORE PUSH1 0x1F PUSH1 0x24 DUP3 ADD MSTORE PUSH1 0x0 DUP1 MLOAD PUSH1 0x20 PUSH2 0x1B5F DUP4 CODECOPY DUP2 MLOAD SWAP2 MSTORE PUSH1 0x44 DUP3 ADD MSTORE SWAP1 MLOAD SWAP1 DUP2 SWAP1 SUB PUSH1 0x64 ADD SWAP1 REVERT JUMPDEST PUSH1 0x2 SLOAD PUSH1 0x40 DUP1 MLOAD PUSH4 0x70A08231 PUSH1 0xE0 SHL DUP2 MSTORE ADDRESS PUSH1 0x4 DUP3 ADD MSTORE SWAP1 MLOAD PUSH1 0x1 PUSH1 0x1 PUSH1 0xA0 SHL SUB PUSH32 0x0 AND SWAP2 PUSH4 0x70A08231 SWAP2 PUSH1 0x24 DUP1 DUP4 ADD SWAP3 PUSH1 0x20 SWAP3 SWAP2 SWAP1 DUP3 SWAP1 SUB ADD DUP2 DUP7 DUP1 EXTCODESIZE ISZERO DUP1 ISZERO PUSH2 0x973 JUMPI PUSH1 0x0 DUP1 REVERT JUMPDEST POP GAS STATICCALL ISZERO DUP1 ISZERO PUSH2 0x987 JUMPI RETURNDATASIZE PUSH1 0x0 DUP1 RETURNDATACOPY RETURNDATASIZE PUSH1 0x0 REVERT JUMPDEST POP POP POP POP PUSH1 0x40 MLOAD RETURNDATASIZE PUSH1 0x20 DUP2 LT ISZERO PUSH2 0x99D JUMPI PUSH1 0x0 DUP1 REVERT JUMPDEST POP MLOAD LT ISZERO PUSH2 0x9DC JUMPI PUSH1 0x40 MLOAD PUSH3 0x461BCD PUSH1 0xE5 SHL DUP2 MSTORE PUSH1 0x4 ADD DUP1 DUP1 PUSH1 0x20 ADD DUP3 DUP2 SUB DUP3 MSTORE PUSH1 0x2B DUP2 MSTORE PUSH1 0x20 ADD DUP1 PUSH2 0x1B34 PUSH1 0x2B SWAP2 CODECOPY PUSH1 0x40 ADD SWAP2 POP POP PUSH1 0x40 MLOAD DUP1 SWAP2 SUB SWAP1 REVERT JUMPDEST PUSH2 0x9EB PUSH1 0x1 SLOAD PUSH1 0x2 SLOAD DUP5 PUSH2 0x16DE JUMP JUMPDEST SWAP3 SWAP2 POP POP JUMP JUMPDEST PUSH1 0xD SLOAD PUSH1 0x1 ADD SWAP1 JUMP JUMPDEST PUSH1 0x10 SLOAD PUSH2 0x100 SWAP1 DIV PUSH1 0x1 PUSH1 0x1 PUSH1 0xA0 SHL SUB AND CALLER EQ PUSH2 0xA4C JUMPI PUSH1 0x40 DUP1 MLOAD PUSH3 0x461BCD PUSH1 0xE5 SHL DUP2 MSTORE PUSH1 0x20 PUSH1 0x4 DUP3 ADD MSTORE PUSH1 0x1F PUSH1 0x24 DUP3 ADD MSTORE PUSH1 0x0 DUP1 MLOAD PUSH1 0x20 PUSH2 0x1B5F DUP4 CODECOPY DUP2 MLOAD SWAP2 MSTORE PUSH1 0x44 DUP3 ADD MSTORE SWAP1 MLOAD SWAP1 DUP2 SWAP1 SUB PUSH1 0x64 ADD SWAP1 REVERT JUMPDEST PUSH1 0x11 DUP1 SLOAD PUSH1 0x1 PUSH1 0x1 PUSH1 0xA0 SHL SUB NOT AND PUSH1 0x1 PUSH1 0x1 PUSH1 0xA0 SHL SUB SWAP3 SWAP1 SWAP3 AND SWAP2 SWAP1 SWAP2 OR SWAP1 SSTORE JUMP JUMPDEST PUSH1 0x10 SLOAD PUSH2 0x100 SWAP1 DIV PUSH1 0x1 PUSH1 0x1 PUSH1 0xA0 SHL SUB AND CALLER EQ PUSH2 0xAC0 JUMPI PUSH1 0x40 DUP1 MLOAD PUSH3 0x461BCD PUSH1 0xE5 SHL DUP2 MSTORE PUSH1 0x20 PUSH1 0x4 DUP3 ADD MSTORE PUSH1 0x1F PUSH1 0x24 DUP3 ADD MSTORE PUSH1 0x0 DUP1 MLOAD PUSH1 0x20 PUSH2 0x1B5F DUP4 CODECOPY DUP2 MLOAD SWAP2 MSTORE PUSH1 0x44 DUP3 ADD MSTORE SWAP1 MLOAD SWAP1 DUP2 SWAP1 SUB PUSH1 0x64 ADD SWAP1 REVERT JUMPDEST PUSH1 0x10 DUP1 SLOAD PUSH1 0x1 PUSH1 0x1 PUSH1 0xA0 SHL SUB SWAP1 SWAP3 AND PUSH2 0x100 MUL PUSH2 0x100 PUSH1 0x1 PUSH1 0xA8 SHL SUB NOT SWAP1 SWAP3 AND SWAP2 SWAP1 SWAP2 OR SWAP1 SSTORE JUMP JUMPDEST PUSH1 0x10 SLOAD PUSH2 0x100 SWAP1 DIV PUSH1 0x1 PUSH1 0x1 PUSH1 0xA0 SHL SUB AND CALLER EQ PUSH2 0xB3A JUMPI PUSH1 0x40 DUP1 MLOAD PUSH3 0x461BCD PUSH1 0xE5 SHL DUP2 MSTORE PUSH1 0x20 PUSH1 0x4 DUP3 ADD MSTORE PUSH1 0x1F PUSH1 0x24 DUP3 ADD MSTORE PUSH1 0x0 DUP1 MLOAD PUSH1 0x20 PUSH2 0x1B5F DUP4 CODECOPY DUP2 MLOAD SWAP2 MSTORE PUSH1 0x44 DUP3 ADD MSTORE SWAP1 MLOAD SWAP1 DUP2 SWAP1 SUB PUSH1 0x64 ADD SWAP1 REVERT JUMPDEST PUSH1 0x10 SLOAD PUSH1 0x40 MLOAD PUSH1 0x1 PUSH1 0x1 PUSH1 0xA0 SHL SUB PUSH2 0x100 SWAP1 SWAP3 DIV SWAP2 SWAP1 SWAP2 AND SWAP1 SELFBALANCE DUP1 ISZERO PUSH2 0x8FC MUL SWAP2 PUSH1 0x0 DUP2 DUP2 DUP2 DUP6 DUP9 DUP9 CALL SWAP4 POP POP POP POP ISZERO DUP1 ISZERO PUSH2 0xB7A JUMPI RETURNDATASIZE PUSH1 0x0 DUP1 RETURNDATACOPY RETURNDATASIZE PUSH1 0x0 REVERT JUMPDEST POP JUMP JUMPDEST PUSH1 0x0 DUP1 PUSH1 0x0 DUP1 PUSH1 0x0 DUP1 PUSH1 0x60 PUSH1 0x0 PUSH2 0xB92 PUSH2 0x1AC1 JUMP JUMPDEST PUSH1 0x0 DUP11 DUP2 MSTORE PUSH1 0x14 PUSH1 0x20 SWAP1 DUP2 MSTORE PUSH1 0x40 SWAP2 DUP3 SWAP1 KECCAK256 DUP3 MLOAD PUSH2 0x100 DUP2 ADD DUP5 MSTORE DUP2 SLOAD DUP2 MSTORE PUSH1 0x1 DUP3 ADD SLOAD DUP2 DUP5 ADD MSTORE PUSH1 0x2 DUP3 ADD SLOAD DUP2 DUP6 ADD MSTORE PUSH1 0x3 DUP3 ADD SLOAD PUSH1 0x60 DUP3 ADD MSTORE PUSH1 0x4 DUP3 ADD SLOAD PUSH1 0x80 DUP3 ADD MSTORE PUSH1 0x5 DUP3 ADD SLOAD PUSH1 0xA0 DUP3 ADD MSTORE PUSH1 0x6 DUP3 ADD DUP1 SLOAD DUP6 MLOAD DUP2 DUP7 MUL DUP2 ADD DUP7 ADD SWAP1 SWAP7 MSTORE DUP1 DUP7 MSTORE SWAP2 SWAP5 SWAP3 SWAP4 PUSH1 0xC0 DUP7 ADD SWAP4 SWAP3 SWAP1 DUP4 ADD DUP3 DUP3 DUP1 ISZERO PUSH2 0xC3A JUMPI PUSH1 0x20 MUL DUP3 ADD SWAP2 SWAP1 PUSH1 0x0 MSTORE PUSH1 0x20 PUSH1 0x0 KECCAK256 SWAP1 JUMPDEST DUP2 SLOAD PUSH1 0x1 PUSH1 0x1 PUSH1 0xA0 SHL SUB AND DUP2 MSTORE PUSH1 0x1 SWAP1 SWAP2 ADD SWAP1 PUSH1 0x20 ADD DUP1 DUP4 GT PUSH2 0xC1C JUMPI JUMPDEST POP POP POP POP POP DUP2 MSTORE PUSH1 0x20 ADD PUSH1 0x7 DUP3 ADD PUSH1 0x0 SWAP1 SLOAD SWAP1 PUSH2 0x100 EXP SWAP1 DIV PUSH1 0x1 PUSH1 0x1 PUSH1 0xA0 SHL SUB AND PUSH1 0x1 PUSH1 0x1 PUSH1 0xA0 SHL SUB AND PUSH1 0x1 PUSH1 0x1 PUSH1 0xA0 SHL SUB AND DUP2 MSTORE POP POP SWAP1 POP DUP10 DUP2 PUSH1 0x20 ADD MLOAD DUP3 PUSH1 0x40 ADD MLOAD DUP4 PUSH1 0x60 ADD MLOAD DUP5 PUSH1 0x80 ADD MLOAD DUP6 PUSH1 0xA0 ADD MLOAD DUP7 PUSH1 0xC0 ADD MLOAD DUP8 PUSH1 0xE0 ADD MLOAD DUP1 SWAP1 POP SWAP9 POP SWAP9 POP SWAP9 POP SWAP9 POP SWAP9 POP SWAP9 POP SWAP9 POP SWAP9 POP POP SWAP2 SWAP4 SWAP6 SWAP8 POP SWAP2 SWAP4 SWAP6 SWAP8 JUMP JUMPDEST PUSH1 0x0 PUSH1 0x10 SLOAD PUSH1 0xFF AND PUSH1 0x2 DUP2 GT ISZERO PUSH2 0xCCA JUMPI INVALID JUMPDEST EQ PUSH2 0xD1C JUMPI PUSH1 0x40 DUP1 MLOAD PUSH3 0x461BCD PUSH1 0xE5 SHL DUP2 MSTORE PUSH1 0x20 PUSH1 0x4 DUP3 ADD MSTORE PUSH1 0x19 PUSH1 0x24 DUP3 ADD MSTORE PUSH32 0x6E6F20616374697665206A61636B706F7420746F206A6F696E00000000000000 PUSH1 0x44 DUP3 ADD MSTORE SWAP1 MLOAD SWAP1 DUP2 SWAP1 SUB PUSH1 0x64 ADD SWAP1 REVERT JUMPDEST PUSH1 0x9 DUP1 SLOAD PUSH1 0x1 DUP2 ADD SWAP1 SWAP2 SSTORE PUSH32 0x6E1540171B6C0C960B71A7020D9F60077F6AF931A8BBF590DA0223DACF75C7AF ADD DUP1 SLOAD PUSH1 0x1 PUSH1 0x1 PUSH1 0xA0 SHL SUB NOT AND CALLER SWAP1 DUP2 OR SWAP1 SWAP2 SSTORE PUSH1 0x4 DUP1 SLOAD CALLVALUE SWAP1 DUP2 ADD SWAP1 SWAP2 SSTORE PUSH1 0x0 SWAP2 DUP3 MSTORE PUSH1 0x13 PUSH1 0x20 MSTORE PUSH1 0x40 SWAP1 SWAP2 KECCAK256 DUP2 SWAP1 SSTORE PUSH1 0x7 SLOAD SWAP1 PUSH8 0xDE0B6B3A7640000 SWAP1 DIV JUMPDEST PUSH1 0x7 SLOAD DUP3 DUP3 ADD GT ISZERO PUSH2 0xDC3 JUMPI PUSH1 0x7 DUP1 SLOAD PUSH1 0x0 SWAP1 DUP2 MSTORE PUSH1 0x12 PUSH1 0x20 MSTORE PUSH1 0x40 SWAP1 KECCAK256 DUP1 SLOAD PUSH1 0x1 PUSH1 0x1 PUSH1 0xA0 SHL SUB NOT AND CALLER OR SWAP1 SSTORE DUP1 SLOAD PUSH1 0x1 ADD SWAP1 SSTORE PUSH2 0xD89 JUMP JUMPDEST PUSH1 0x4 SLOAD PUSH1 0x40 DUP1 MLOAD CALLVALUE DUP2 MSTORE CALLER PUSH1 0x20 DUP3 ADD MSTORE DUP1 DUP3 ADD SWAP3 SWAP1 SWAP3 MSTORE MLOAD PUSH32 0xDA8725169A059F8FD7AD1AB64B4D218E8A5C396C2CF9F402FC36E05EFAFDAA9B SWAP2 DUP2 SWAP1 SUB PUSH1 0x60 ADD SWAP1 LOG1 PUSH1 0x6 SLOAD TIMESTAMP LT PUSH2 0x5A5 JUMPI PUSH1 0x10 DUP1 SLOAD PUSH1 0xFF NOT AND PUSH1 0x2 OR SWAP1 SSTORE PUSH1 0x4 SLOAD PUSH1 0x9 SLOAD PUSH1 0x40 DUP1 MLOAD TIMESTAMP DUP2 MSTORE PUSH1 0x20 DUP2 ADD SWAP4 SWAP1 SWAP4 MSTORE DUP3 DUP2 ADD SWAP2 SWAP1 SWAP2 MSTORE MLOAD PUSH32 0x6494056C073C6B6EF5D6DA231A067CA5822ED0EF788F0C6760E1F4499D5DFA8 SWAP2 PUSH1 0x60 SWAP1 DUP3 SWAP1 SUB ADD SWAP1 LOG1 PUSH1 0x60 PUSH2 0xE6D PUSH2 0x18A0 JUMP JUMPDEST PUSH1 0x16 SLOAD PUSH1 0x2 SLOAD PUSH1 0x40 DUP1 MLOAD PUSH4 0x7C0329D PUSH1 0xE2 SHL DUP2 MSTORE PUSH1 0x4 DUP2 ADD DUP4 DUP2 MSTORE PUSH1 0x24 DUP3 ADD SWAP3 DUP4 MSTORE DUP6 MLOAD PUSH1 0x44 DUP4 ADD MSTORE DUP6 MLOAD SWAP6 SWAP7 POP PUSH1 0x0 SWAP6 PUSH1 0x1 PUSH1 0x1 PUSH1 0xA0 SHL SUB SWAP1 SWAP6 AND SWAP5 PUSH4 0x1F00CA74 SWAP5 SWAP4 DUP9 SWAP4 SWAP1 SWAP2 PUSH1 0x64 SWAP1 SWAP2 ADD SWAP1 PUSH1 0x20 DUP1 DUP7 ADD SWAP2 MUL DUP1 DUP4 DUP4 DUP13 JUMPDEST DUP4 DUP2 LT ISZERO PUSH2 0xEDF JUMPI DUP2 DUP2 ADD MLOAD DUP4 DUP3 ADD MSTORE PUSH1 0x20 ADD PUSH2 0xEC7 JUMP JUMPDEST POP POP POP POP SWAP1 POP ADD SWAP4 POP POP POP POP PUSH1 0x0 PUSH1 0x40 MLOAD DUP1 DUP4 SUB DUP2 DUP7 DUP1 EXTCODESIZE ISZERO DUP1 ISZERO PUSH2 0xF03 JUMPI PUSH1 0x0 DUP1 REVERT JUMPDEST POP GAS STATICCALL ISZERO DUP1 ISZERO PUSH2 0xF17 JUMPI RETURNDATASIZE PUSH1 0x0 DUP1 RETURNDATACOPY RETURNDATASIZE PUSH1 0x0 REVERT JUMPDEST POP POP POP POP PUSH1 0x40 MLOAD RETURNDATASIZE PUSH1 0x0 DUP3 RETURNDATACOPY PUSH1 0x1F RETURNDATASIZE SWAP1 DUP2 ADD PUSH1 0x1F NOT AND DUP3 ADD PUSH1 0x40 MSTORE PUSH1 0x20 DUP2 LT ISZERO PUSH2 0xF40 JUMPI PUSH1 0x0 DUP1 REVERT JUMPDEST DUP2 ADD SWAP1 DUP1 DUP1 MLOAD PUSH1 0x40 MLOAD SWAP4 SWAP3 SWAP2 SWAP1 DUP5 PUSH5 0x100000000 DUP3 GT ISZERO PUSH2 0xF60 JUMPI PUSH1 0x0 DUP1 REVERT JUMPDEST SWAP1 DUP4 ADD SWAP1 PUSH1 0x20 DUP3 ADD DUP6 DUP2 GT ISZERO PUSH2 0xF75 JUMPI PUSH1 0x0 DUP1 REVERT JUMPDEST DUP3 MLOAD DUP7 PUSH1 0x20 DUP3 MUL DUP4 ADD GT PUSH5 0x100000000 DUP3 GT OR ISZERO PUSH2 0xF92 JUMPI PUSH1 0x0 DUP1 REVERT JUMPDEST DUP3 MSTORE POP DUP2 MLOAD PUSH1 0x20 SWAP2 DUP3 ADD SWAP3 DUP3 ADD SWAP2 MUL DUP1 DUP4 DUP4 PUSH1 0x0 JUMPDEST DUP4 DUP2 LT ISZERO PUSH2 0xFBF JUMPI DUP2 DUP2 ADD MLOAD DUP4 DUP3 ADD MSTORE PUSH1 0x20 ADD PUSH2 0xFA7 JUMP JUMPDEST POP POP POP POP SWAP1 POP ADD PUSH1 0x40 MSTORE POP POP POP PUSH1 0x0 DUP2 MLOAD DUP2 LT PUSH2 0xFD8 JUMPI INVALID JUMPDEST PUSH1 0x20 MUL PUSH1 0x20 ADD ADD MLOAD SWAP1 POP PUSH1 0x16 PUSH1 0x0 SWAP1 SLOAD SWAP1 PUSH2 0x100 EXP SWAP1 DIV PUSH1 0x1 PUSH1 0x1 PUSH1 0xA0 SHL SUB AND PUSH1 0x1 PUSH1 0x1 PUSH1 0xA0 SHL SUB AND PUSH4 0xFB3BDB41 DUP3 PUSH1 0x2 SLOAD DUP6 ADDRESS TIMESTAMP PUSH1 0xF ADD PUSH1 0x40 MLOAD DUP7 PUSH4 0xFFFFFFFF AND PUSH1 0xE0 SHL DUP2 MSTORE PUSH1 0x4 ADD DUP1 DUP6 DUP2 MSTORE PUSH1 0x20 ADD DUP1 PUSH1 0x20 ADD DUP5 PUSH1 0x1 PUSH1 0x1 PUSH1 0xA0 SHL SUB AND PUSH1 0x1 PUSH1 0x1 PUSH1 0xA0 SHL SUB AND DUP2 MSTORE PUSH1 0x20 ADD DUP4 DUP2 MSTORE PUSH1 0x20 ADD DUP3 DUP2 SUB DUP3 MSTORE DUP6 DUP2 DUP2 MLOAD DUP2 MSTORE PUSH1 0x20 ADD SWAP2 POP DUP1 MLOAD SWAP1 PUSH1 0x20 ADD SWAP1 PUSH1 0x20 MUL DUP1 DUP4 DUP4 PUSH1 0x0 JUMPDEST DUP4 DUP2 LT ISZERO PUSH2 0x1083 JUMPI DUP2 DUP2 ADD MLOAD DUP4 DUP3 ADD MSTORE PUSH1 0x20 ADD PUSH2 0x106B JUMP JUMPDEST POP POP POP POP SWAP1 POP ADD SWAP6 POP POP POP POP POP POP PUSH1 0x0 PUSH1 0x40 MLOAD DUP1 DUP4 SUB DUP2 DUP6 DUP9 DUP1 EXTCODESIZE ISZERO DUP1 ISZERO PUSH2 0x10AA JUMPI PUSH1 0x0 DUP1 REVERT JUMPDEST POP GAS CALL ISZERO DUP1 ISZERO PUSH2 0x10BE JUMPI RETURNDATASIZE PUSH1 0x0 DUP1 RETURNDATACOPY RETURNDATASIZE PUSH1 0x0 REVERT JUMPDEST POP POP POP POP POP PUSH1 0x40 MLOAD RETURNDATASIZE PUSH1 0x0 DUP3 RETURNDATACOPY PUSH1 0x1F RETURNDATASIZE SWAP1 DUP2 ADD PUSH1 0x1F NOT AND DUP3 ADD PUSH1 0x40 MSTORE PUSH1 0x20 DUP2 LT ISZERO PUSH2 0x10E8 JUMPI PUSH1 0x0 DUP1 REVERT JUMPDEST DUP2 ADD SWAP1 DUP1 DUP1 MLOAD PUSH1 0x40 MLOAD SWAP4 SWAP3 SWAP2 SWAP1 DUP5 PUSH5 0x100000000 DUP3 GT ISZERO PUSH2 0x1108 JUMPI PUSH1 0x0 DUP1 REVERT JUMPDEST SWAP1 DUP4 ADD SWAP1 PUSH1 0x20 DUP3 ADD DUP6 DUP2 GT ISZERO PUSH2 0x111D JUMPI PUSH1 0x0 DUP1 REVERT JUMPDEST DUP3 MLOAD DUP7 PUSH1 0x20 DUP3 MUL DUP4 ADD GT PUSH5 0x100000000 DUP3 GT OR ISZERO PUSH2 0x113A JUMPI PUSH1 0x0 DUP1 REVERT JUMPDEST DUP3 MSTORE POP DUP2 MLOAD PUSH1 0x20 SWAP2 DUP3 ADD SWAP3 DUP3 ADD SWAP2 MUL DUP1 DUP4 DUP4 PUSH1 0x0 JUMPDEST DUP4 DUP2 LT ISZERO PUSH2 0x1167 JUMPI DUP2 DUP2 ADD MLOAD DUP4 DUP3 ADD MSTORE PUSH1 0x20 ADD PUSH2 0x114F JUMP JUMPDEST POP POP POP POP SWAP2 SWAP1 SWAP2 ADD PUSH1 0x40 DUP2 DUP2 MSTORE PUSH1 0x17 SLOAD PUSH1 0x2 SLOAD PUSH4 0x95EA7B3 PUSH1 0xE0 SHL DUP5 MSTORE PUSH1 0x1 PUSH1 0x1 PUSH1 0xA0 SHL SUB SWAP1 SWAP2 AND PUSH1 0x4 DUP5 ADD MSTORE PUSH1 0x24 DUP4 ADD MSTORE MLOAD PUSH20 0x53E0BCA35EC356BD5DDDFEBBD1FC0FD03FABAD39 SWAP7 POP PUSH4 0x95EA7B3 SWAP6 POP PUSH1 0x44 DUP1 DUP4 ADD SWAP6 POP PUSH1 0x20 SWAP5 POP SWAP1 SWAP3 POP SWAP1 DUP3 SWAP1 SUB ADD DUP2 PUSH1 0x0 DUP8 DUP1 EXTCODESIZE ISZERO DUP1 ISZERO PUSH2 0x11DD JUMPI PUSH1 0x0 DUP1 REVERT JUMPDEST POP GAS CALL ISZERO DUP1 ISZERO PUSH2 0x11F1 JUMPI RETURNDATASIZE PUSH1 0x0 DUP1 RETURNDATACOPY RETURNDATASIZE PUSH1 0x0 REVERT JUMPDEST POP POP POP POP PUSH1 0x40 MLOAD RETURNDATASIZE PUSH1 0x20 DUP2 LT ISZERO PUSH2 0x1207 JUMPI PUSH1 0x0 DUP1 REVERT JUMPDEST POP POP PUSH1 0x17 SLOAD PUSH1 0x2 SLOAD PUSH1 0x40 DUP1 MLOAD PUSH4 0x2B7F0923 PUSH1 0xE0 SHL DUP2 MSTORE PUSH1 0x4 DUP2 ADD SWAP3 SWAP1 SWAP3 MSTORE PUSH20 0x53E0BCA35EC356BD5DDDFEBBD1FC0FD03FABAD39 PUSH1 0x24 DUP4 ADD MSTORE PUSH1 0x1 PUSH1 0x1 PUSH1 0xA0 SHL SUB PUSH32 0x0 DUP2 AND PUSH1 0x44 DUP5 ADD MSTORE SWAP1 MLOAD SWAP3 AND SWAP2 PUSH4 0x2B7F0923 SWAP2 PUSH1 0x64 DUP1 DUP3 ADD SWAP3 PUSH1 0x0 SWAP3 SWAP1 SWAP2 SWAP1 DUP3 SWAP1 SUB ADD DUP2 DUP4 DUP8 DUP1 EXTCODESIZE ISZERO DUP1 ISZERO PUSH2 0x129B JUMPI PUSH1 0x0 DUP1 REVERT JUMPDEST POP GAS CALL ISZERO DUP1 ISZERO PUSH2 0x12AF JUMPI RETURNDATASIZE PUSH1 0x0 DUP1 RETURNDATACOPY RETURNDATASIZE PUSH1 0x0 REVERT JUMPDEST POP POP PUSH1 0x4 DUP1 SLOAD DUP5 SWAP1 SUB SWAP1 SSTORE POP PUSH2 0x12C6 SWAP1 POP TIMESTAMP PUSH2 0x8B5 JUMP JUMPDEST POP POP POP POP POP JUMP JUMPDEST PUSH1 0x0 DUP1 PUSH1 0x0 DUP1 PUSH1 0x0 PUSH1 0x60 PUSH1 0x0 PUSH1 0x3 PUSH1 0x0 ADD SLOAD PUSH1 0x3 PUSH1 0x1 ADD SLOAD PUSH1 0x3 PUSH1 0x2 ADD SLOAD PUSH1 0x3 DUP1 ADD SLOAD PUSH1 0x3 PUSH1 0x4 ADD SLOAD PUSH1 0x3 PUSH1 0x6 ADD PUSH1 0x3 PUSH1 0x7 ADD PUSH1 0x0 SWAP1 SLOAD SWAP1 PUSH2 0x100 EXP SWAP1 DIV PUSH1 0x1 PUSH1 0x1 PUSH1 0xA0 SHL SUB AND DUP2 DUP1 SLOAD DUP1 PUSH1 0x20 MUL PUSH1 0x20 ADD PUSH1 0x40 MLOAD SWAP1 DUP2 ADD PUSH1 0x40 MSTORE DUP1 SWAP3 SWAP2 SWAP1 DUP2 DUP2 MSTORE PUSH1 0x20 ADD DUP3 DUP1 SLOAD DUP1 ISZERO PUSH2 0x1369 JUMPI PUSH1 0x20 MUL DUP3 ADD SWAP2 SWAP1 PUSH1 0x0 MSTORE PUSH1 0x20 PUSH1 0x0 KECCAK256 SWAP1 JUMPDEST DUP2 SLOAD PUSH1 0x1 PUSH1 0x1 PUSH1 0xA0 SHL SUB AND DUP2 MSTORE PUSH1 0x1 SWAP1 SWAP2 ADD SWAP1 PUSH1 0x20 ADD DUP1 DUP4 GT PUSH2 0x134B JUMPI JUMPDEST POP POP POP POP POP SWAP2 POP DUP1 SWAP1 POP SWAP7 POP SWAP7 POP SWAP7 POP SWAP7 POP SWAP7 POP SWAP7 POP SWAP7 POP SWAP1 SWAP2 SWAP3 SWAP4 SWAP5 SWAP6 SWAP7 JUMP JUMPDEST PUSH1 0x10 SLOAD PUSH2 0x100 SWAP1 DIV PUSH1 0x1 PUSH1 0x1 PUSH1 0xA0 SHL SUB AND CALLER EQ PUSH2 0x13DC JUMPI PUSH1 0x40 DUP1 MLOAD PUSH3 0x461BCD PUSH1 0xE5 SHL DUP2 MSTORE PUSH1 0x20 PUSH1 0x4 DUP3 ADD MSTORE PUSH1 0x1F PUSH1 0x24 DUP3 ADD MSTORE PUSH1 0x0 DUP1 MLOAD PUSH1 0x20 PUSH2 0x1B5F DUP4 CODECOPY DUP2 MLOAD SWAP2 MSTORE PUSH1 0x44 DUP3 ADD MSTORE SWAP1 MLOAD SWAP1 DUP2 SWAP1 SUB PUSH1 0x64 ADD SWAP1 REVERT JUMPDEST PUSH1 0xF SSTORE JUMP JUMPDEST PUSH1 0x8 DUP2 SWAP1 SSTORE PUSH1 0x7 SLOAD PUSH1 0x0 SWAP1 DUP3 DUP2 PUSH2 0x13F4 JUMPI INVALID JUMPDEST MOD PUSH1 0x0 DUP2 DUP2 MSTORE PUSH1 0x12 PUSH1 0x20 MSTORE PUSH1 0x40 SWAP1 KECCAK256 SLOAD PUSH1 0xA DUP1 SLOAD PUSH1 0x1 PUSH1 0x1 PUSH1 0xA0 SHL SUB NOT AND PUSH1 0x1 PUSH1 0x1 PUSH1 0xA0 SHL SUB SWAP3 DUP4 AND OR SWAP1 DUP2 SWAP1 SSTORE PUSH1 0x4 SLOAD SWAP3 SWAP4 POP AND SWAP1 PUSH2 0x8FC SWAP1 PUSH1 0x2 SWAP1 DIV SWAP1 DUP2 ISZERO MUL SWAP1 PUSH1 0x40 MLOAD PUSH1 0x0 PUSH1 0x40 MLOAD DUP1 DUP4 SUB DUP2 DUP6 DUP9 DUP9 CALL SWAP4 POP POP POP POP ISZERO DUP1 ISZERO PUSH2 0x145D JUMPI RETURNDATASIZE PUSH1 0x0 DUP1 RETURNDATACOPY RETURNDATASIZE PUSH1 0x0 REVERT JUMPDEST POP PUSH2 0x1466 PUSH2 0x1AC1 JUMP JUMPDEST PUSH1 0x40 DUP1 MLOAD PUSH2 0x100 DUP2 ADD DUP3 MSTORE PUSH1 0x3 DUP1 SLOAD DUP3 MSTORE PUSH1 0x4 SLOAD PUSH1 0x20 DUP1 DUP5 ADD SWAP2 SWAP1 SWAP2 MSTORE PUSH1 0x5 SLOAD DUP4 DUP6 ADD MSTORE PUSH1 0x6 SLOAD PUSH1 0x60 DUP5 ADD MSTORE PUSH1 0x7 SLOAD PUSH1 0x80 DUP5 ADD MSTORE PUSH1 0x8 SLOAD PUSH1 0xA0 DUP5 ADD MSTORE PUSH1 0x9 DUP1 SLOAD DUP6 MLOAD DUP2 DUP5 MUL DUP2 ADD DUP5 ADD SWAP1 SWAP7 MSTORE DUP1 DUP7 MSTORE SWAP4 SWAP5 SWAP3 SWAP4 PUSH1 0xC0 DUP7 ADD SWAP4 SWAP3 DUP4 ADD DUP3 DUP3 DUP1 ISZERO PUSH2 0x14F8 JUMPI PUSH1 0x20 MUL DUP3 ADD SWAP2 SWAP1 PUSH1 0x0 MSTORE PUSH1 0x20 PUSH1 0x0 KECCAK256 SWAP1 JUMPDEST DUP2 SLOAD PUSH1 0x1 PUSH1 0x1 PUSH1 0xA0 SHL SUB AND DUP2 MSTORE PUSH1 0x1 SWAP1 SWAP2 ADD SWAP1 PUSH1 0x20 ADD DUP1 DUP4 GT PUSH2 0x14DA JUMPI JUMPDEST POP POP POP SWAP2 DUP4 MSTORE POP POP PUSH1 0x7 SWAP2 SWAP1 SWAP2 ADD SLOAD PUSH1 0x1 PUSH1 0x1 PUSH1 0xA0 SHL SUB AND PUSH1 0x20 SWAP2 DUP3 ADD MSTORE PUSH1 0xD SLOAD PUSH1 0x0 SWAP1 DUP2 MSTORE PUSH1 0x14 DUP3 MSTORE PUSH1 0x40 SWAP1 DUP2 SWAP1 KECCAK256 DUP4 MLOAD DUP2 SSTORE DUP4 DUP4 ADD MLOAD PUSH1 0x1 DUP3 ADD SSTORE SWAP1 DUP4 ADD MLOAD PUSH1 0x2 DUP3 ADD SSTORE PUSH1 0x60 DUP4 ADD MLOAD PUSH1 0x3 DUP3 ADD SSTORE PUSH1 0x80 DUP4 ADD MLOAD PUSH1 0x4 DUP3 ADD SSTORE PUSH1 0xA0 DUP4 ADD MLOAD PUSH1 0x5 DUP3 ADD SSTORE PUSH1 0xC0 DUP4 ADD MLOAD DUP1 MLOAD SWAP4 SWAP5 POP DUP5 SWAP4 SWAP2 SWAP3 PUSH2 0x157C SWAP3 PUSH1 0x6 DUP6 ADD SWAP3 SWAP1 SWAP2 ADD SWAP1 PUSH2 0x1A5C JUMP JUMPDEST POP PUSH1 0xE0 SWAP2 SWAP1 SWAP2 ADD MLOAD PUSH1 0x7 SWAP1 SWAP2 ADD DUP1 SLOAD PUSH1 0x1 PUSH1 0x1 PUSH1 0xA0 SHL SUB NOT AND PUSH1 0x1 PUSH1 0x1 PUSH1 0xA0 SHL SUB SWAP1 SWAP3 AND SWAP2 SWAP1 SWAP2 OR SWAP1 SSTORE PUSH1 0x0 DUP5 DUP2 MSTORE PUSH1 0x15 PUSH1 0x20 SWAP1 DUP2 MSTORE PUSH1 0x40 SWAP2 DUP3 SWAP1 KECCAK256 DUP4 MLOAD DUP2 SSTORE DUP4 DUP3 ADD MLOAD PUSH1 0x1 DUP3 ADD SSTORE SWAP2 DUP4 ADD MLOAD PUSH1 0x2 DUP4 ADD SSTORE PUSH1 0x60 DUP4 ADD MLOAD PUSH1 0x3 DUP4 ADD SSTORE PUSH1 0x80 DUP4 ADD MLOAD PUSH1 0x4 DUP4 ADD SSTORE PUSH1 0xA0 DUP4 ADD MLOAD PUSH1 0x5 DUP4 ADD SSTORE PUSH1 0xC0 DUP4 ADD MLOAD DUP1 MLOAD DUP5 SWAP4 SWAP3 PUSH2 0x1607 SWAP3 PUSH1 0x6 DUP6 ADD SWAP3 SWAP2 ADD SWAP1 PUSH2 0x1A5C JUMP JUMPDEST POP PUSH1 0xE0 SWAP2 SWAP1 SWAP2 ADD MLOAD PUSH1 0x7 SWAP1 SWAP2 ADD DUP1 SLOAD PUSH1 0x1 PUSH1 0x1 PUSH1 0xA0 SHL SUB NOT AND PUSH1 0x1 PUSH1 0x1 PUSH1 0xA0 SHL SUB SWAP1 SWAP3 AND SWAP2 SWAP1 SWAP2 OR SWAP1 SSTORE PUSH1 0x3 SLOAD PUSH1 0x5 SWAP1 MOD PUSH2 0x1677 JUMPI PUSH1 0x11 SLOAD PUSH1 0x40 MLOAD PUSH1 0x1 PUSH1 0x1 PUSH1 0xA0 SHL SUB SWAP1 SWAP2 AND SWAP1 SELFBALANCE DUP1 ISZERO PUSH2 0x8FC MUL SWAP2 PUSH1 0x0 DUP2 DUP2 DUP2 DUP6 DUP9 DUP9 CALL SWAP4 POP POP POP POP ISZERO DUP1 ISZERO PUSH2 0x1675 JUMPI RETURNDATASIZE PUSH1 0x0 DUP1 RETURNDATACOPY RETURNDATASIZE PUSH1 0x0 REVERT JUMPDEST POP JUMPDEST PUSH1 0xD DUP1 SLOAD PUSH1 0x1 ADD SWAP1 SSTORE PUSH1 0xA SLOAD PUSH1 0x4 SLOAD PUSH1 0x40 DUP1 MLOAD PUSH1 0x1 PUSH1 0x1 PUSH1 0xA0 SHL SUB SWAP1 SWAP4 AND DUP4 MSTORE PUSH1 0x20 DUP4 ADD SWAP2 SWAP1 SWAP2 MSTORE DUP1 MLOAD PUSH32 0x180C1BE73088C081B2C1A00F1D83378314862D2C6AE815DF41C75A0EB1FB032F SWAP3 DUP2 SWAP1 SUB SWAP1 SWAP2 ADD SWAP1 LOG1 POP POP PUSH1 0x10 DUP1 SLOAD PUSH1 0xFF NOT AND PUSH1 0x1 OR SWAP1 SSTORE POP POP JUMP JUMPDEST PUSH1 0x0 PUSH32 0x0 PUSH1 0x1 PUSH1 0x1 PUSH1 0xA0 SHL SUB AND PUSH4 0x4000AEA0 PUSH32 0x0 DUP6 DUP8 DUP7 PUSH1 0x40 MLOAD PUSH1 0x20 ADD DUP1 DUP4 DUP2 MSTORE PUSH1 0x20 ADD DUP3 DUP2 MSTORE PUSH1 0x20 ADD SWAP3 POP POP POP PUSH1 0x40 MLOAD PUSH1 0x20 DUP2 DUP4 SUB SUB DUP2 MSTORE SWAP1 PUSH1 0x40 MSTORE PUSH1 0x40 MLOAD DUP5 PUSH4 0xFFFFFFFF AND PUSH1 0xE0 SHL DUP2 MSTORE PUSH1 0x4 ADD DUP1 DUP5 PUSH1 0x1 PUSH1 0x1 PUSH1 0xA0 SHL SUB AND PUSH1 0x1 PUSH1 0x1 PUSH1 0xA0 SHL SUB AND DUP2 MSTORE PUSH1 0x20 ADD DUP4 DUP2 MSTORE PUSH1 0x20 ADD DUP1 PUSH1 0x20 ADD DUP3 DUP2 SUB DUP3 MSTORE DUP4 DUP2 DUP2 MLOAD DUP2 MSTORE PUSH1 0x20 ADD SWAP2 POP DUP1 MLOAD SWAP1 PUSH1 0x20 ADD SWAP1 DUP1 DUP4 DUP4 PUSH1 0x0 JUMPDEST DUP4 DUP2 LT ISZERO PUSH2 0x17C3 JUMPI DUP2 DUP2 ADD MLOAD DUP4 DUP3 ADD MSTORE PUSH1 0x20 ADD PUSH2 0x17AB JUMP JUMPDEST POP POP POP POP SWAP1 POP SWAP1 DUP2 ADD SWAP1 PUSH1 0x1F AND DUP1 ISZERO PUSH2 0x17F0 JUMPI DUP1 DUP3 SUB DUP1 MLOAD PUSH1 0x1 DUP4 PUSH1 0x20 SUB PUSH2 0x100 EXP SUB NOT AND DUP2 MSTORE PUSH1 0x20 ADD SWAP2 POP JUMPDEST POP SWAP5 POP POP POP POP POP PUSH1 0x20 PUSH1 0x40 MLOAD DUP1 DUP4 SUB DUP2 PUSH1 0x0 DUP8 DUP1 EXTCODESIZE ISZERO DUP1 ISZERO PUSH2 0x1811 JUMPI PUSH1 0x0 DUP1 REVERT JUMPDEST POP GAS CALL ISZERO DUP1 ISZERO PUSH2 0x1825 JUMPI RETURNDATASIZE PUSH1 0x0 DUP1 RETURNDATACOPY RETURNDATASIZE PUSH1 0x0 REVERT JUMPDEST POP POP POP POP PUSH1 0x40 MLOAD RETURNDATASIZE PUSH1 0x20 DUP2 LT ISZERO PUSH2 0x183B JUMPI PUSH1 0x0 DUP1 REVERT JUMPDEST POP POP PUSH1 0x0 DUP5 DUP2 MSTORE PUSH1 0x20 DUP2 SWAP1 MSTORE PUSH1 0x40 DUP2 KECCAK256 SLOAD PUSH2 0x185B SWAP1 DUP7 SWAP1 DUP6 SWAP1 ADDRESS SWAP1 PUSH2 0x1988 JUMP JUMPDEST PUSH1 0x0 DUP7 DUP2 MSTORE PUSH1 0x20 DUP2 SWAP1 MSTORE PUSH1 0x40 SWAP1 KECCAK256 SLOAD SWAP1 SWAP2 POP PUSH2 0x187E SWAP1 PUSH1 0x1 PUSH4 0xFFFFFFFF PUSH2 0x19CF AND JUMP JUMPDEST PUSH1 0x0 DUP7 DUP2 MSTORE PUSH1 0x20 DUP2 SWAP1 MSTORE PUSH1 0x40 SWAP1 KECCAK256 SSTORE PUSH2 0x1897 DUP6 DUP3 PUSH2 0x1A30 JUMP JUMPDEST SWAP6 SWAP5 POP POP POP POP POP JUMP JUMPDEST PUSH1 0x40 DUP1 MLOAD PUSH1 0x3 DUP1 DUP3 MSTORE PUSH1 0x80 DUP3 ADD SWAP1 SWAP3 MSTORE PUSH1 0x60 SWAP2 DUP3 SWAP2 SWAP1 PUSH1 0x20 DUP3 ADD DUP4 DUP1 CALLDATASIZE DUP4 CALLDATACOPY ADD SWAP1 POP POP SWAP1 POP PUSH20 0xD500B1D8E8EF31E21C99D1DB9A6444D3ADF1270 DUP2 PUSH1 0x0 DUP2 MLOAD DUP2 LT PUSH2 0x18E7 JUMPI INVALID JUMPDEST PUSH1 0x20 MUL PUSH1 0x20 ADD ADD SWAP1 PUSH1 0x1 PUSH1 0x1 PUSH1 0xA0 SHL SUB AND SWAP1 DUP2 PUSH1 0x1 PUSH1 0x1 PUSH1 0xA0 SHL SUB AND DUP2 MSTORE POP POP PUSH20 0x7CEB23FD6BC0ADD59E62AC25578270CFF1B9F619 DUP2 PUSH1 0x1 DUP2 MLOAD DUP2 LT PUSH2 0x1929 JUMPI INVALID JUMPDEST PUSH1 0x20 MUL PUSH1 0x20 ADD ADD SWAP1 PUSH1 0x1 PUSH1 0x1 PUSH1 0xA0 SHL SUB AND SWAP1 DUP2 PUSH1 0x1 PUSH1 0x1 PUSH1 0xA0 SHL SUB AND DUP2 MSTORE POP POP PUSH20 0x53E0BCA35EC356BD5DDDFEBBD1FC0FD03FABAD39 DUP2 PUSH1 0x2 DUP2 MLOAD DUP2 LT PUSH2 0x196B JUMPI INVALID JUMPDEST PUSH1 0x1 PUSH1 0x1 PUSH1 0xA0 SHL SUB SWAP1 SWAP3 AND PUSH1 0x20 SWAP3 DUP4 MUL SWAP2 SWAP1 SWAP2 ADD SWAP1 SWAP2 ADD MSTORE SWAP1 POP SWAP1 JUMP JUMPDEST PUSH1 0x40 DUP1 MLOAD PUSH1 0x20 DUP1 DUP3 ADD SWAP7 SWAP1 SWAP7 MSTORE DUP1 DUP3 ADD SWAP5 SWAP1 SWAP5 MSTORE PUSH1 0x1 PUSH1 0x1 PUSH1 0xA0 SHL SUB SWAP3 SWAP1 SWAP3 AND PUSH1 0x60 DUP5 ADD MSTORE PUSH1 0x80 DUP1 DUP5 ADD SWAP2 SWAP1 SWAP2 MSTORE DUP2 MLOAD DUP1 DUP5 SUB SWAP1 SWAP2 ADD DUP2 MSTORE PUSH1 0xA0 SWAP1 SWAP3 ADD SWAP1 MSTORE DUP1 MLOAD SWAP2 ADD KECCAK256 SWAP1 JUMP JUMPDEST PUSH1 0x0 DUP3 DUP3 ADD DUP4 DUP2 LT ISZERO PUSH2 0x1A29 JUMPI PUSH1 0x40 DUP1 MLOAD PUSH3 0x461BCD PUSH1 0xE5 SHL DUP2 MSTORE PUSH1 0x20 PUSH1 0x4 DUP3 ADD MSTORE PUSH1 0x1B PUSH1 0x24 DUP3 ADD MSTORE PUSH32 0x536166654D6174683A206164646974696F6E206F766572666C6F770000000000 PUSH1 0x44 DUP3 ADD MSTORE SWAP1 MLOAD SWAP1 DUP2 SWAP1 SUB PUSH1 0x64 ADD SWAP1 REVERT JUMPDEST SWAP4 SWAP3 POP POP POP JUMP JUMPDEST PUSH1 0x40 DUP1 MLOAD PUSH1 0x20 DUP1 DUP3 ADD SWAP5 SWAP1 SWAP5 MSTORE DUP1 DUP3 ADD SWAP3 SWAP1 SWAP3 MSTORE DUP1 MLOAD DUP1 DUP4 SUB DUP3 ADD DUP2 MSTORE PUSH1 0x60 SWAP1 SWAP3 ADD SWAP1 MSTORE DUP1 MLOAD SWAP2 ADD KECCAK256 SWAP1 JUMP JUMPDEST DUP3 DUP1 SLOAD DUP3 DUP3 SSTORE SWAP1 PUSH1 0x0 MSTORE PUSH1 0x20 PUSH1 0x0 KECCAK256 SWAP1 DUP2 ADD SWAP3 DUP3 ISZERO PUSH2 0x1AB1 JUMPI SWAP2 PUSH1 0x20 MUL DUP3 ADD JUMPDEST DUP3 DUP2 GT ISZERO PUSH2 0x1AB1 JUMPI DUP3 MLOAD DUP3 SLOAD PUSH1 0x1 PUSH1 0x1 PUSH1 0xA0 SHL SUB NOT AND PUSH1 0x1 PUSH1 0x1 PUSH1 0xA0 SHL SUB SWAP1 SWAP2 AND OR DUP3 SSTORE PUSH1 0x20 SWAP1 SWAP3 ADD SWAP2 PUSH1 0x1 SWAP1 SWAP2 ADD SWAP1 PUSH2 0x1A7C JUMP JUMPDEST POP PUSH2 0x1ABD SWAP3 SWAP2 POP PUSH2 0x1B0F JUMP JUMPDEST POP SWAP1 JUMP JUMPDEST PUSH1 0x40 MLOAD DUP1 PUSH2 0x100 ADD PUSH1 0x40 MSTORE DUP1 PUSH1 0x0 DUP2 MSTORE PUSH1 0x20 ADD PUSH1 0x0 DUP2 MSTORE PUSH1 0x20 ADD PUSH1 0x0 DUP2 MSTORE PUSH1 0x20 ADD PUSH1 0x0 DUP2 MSTORE PUSH1 0x20 ADD PUSH1 0x0 DUP2 MSTORE PUSH1 0x20 ADD PUSH1 0x0 DUP2 MSTORE PUSH1 0x20 ADD PUSH1 0x60 DUP2 MSTORE PUSH1 0x20 ADD PUSH1 0x0 PUSH1 0x1 PUSH1 0x1 PUSH1 0xA0 SHL SUB AND DUP2 MSTORE POP SWAP1 JUMP JUMPDEST PUSH2 0x4FE SWAP2 SWAP1 JUMPDEST DUP1 DUP3 GT ISZERO PUSH2 0x1ABD JUMPI DUP1 SLOAD PUSH1 0x1 PUSH1 0x1 PUSH1 0xA0 SHL SUB NOT AND DUP2 SSTORE PUSH1 0x1 ADD PUSH2 0x1B15 JUMP INVALID 0x4E PUSH16 0x7420656E6F756768204C494E4B202D20 PUSH7 0x696C6C20636F6E PUSH21 0x7261637420776974682066617563657446756E6374 PUSH10 0x6F6E206F6E6C79206361 PUSH13 0x6C61626C65206279206F776E65 PUSH19 0x6A61636B706F7420746F6F206C6F6E672C20 PUSH4 0x6865636B KECCAK256 PUSH14 0x617874696D65207661726961626C PUSH6 0xA26469706673 PC 0x22 SLT KECCAK256 EQ 0xCA 0xE8 0xA9 0x4E CALLCODE 0x2F NOT RETURNDATACOPY 0x28 0xE3 SWAP7 RETURNDATASIZE SDIV DUP11 LOG0 PUSH5 0x1FFAF2DDF8 SGT REVERT 0xAA 0xC6 SMOD 0xA8 SHR 0xD3 0x2B SWAP11 PUSH5 0x736F6C6343 STOP MOD MOD STOP CALLER ",
  "sha1": "e4ff31a4b5de7c08afb4d3f870c99d706cc3bd30",
  "source": "// SPDX-License-Identifier: MIT\n//TO DO\n//DONE just take 1% cut from final jackpot dispersal\n//DONE give tickets based on .1 matic per ticket\n\npragma solidity 0.6.6;\n\nimport \"@chainlink/contracts/src/v0.6/VRFConsumerBase.sol\";\n\n//import \"https://raw.githubusercontent.com/smartcontractkit/chainlink/master/evm-contracts/src/v0.6/VRFConsumerBase.sol\";\n\ninterface IUniswapV2Router02 {\n    function swapETHForExactTokens(\n        uint256 amountOut,\n        address[] calldata path,\n        address to,\n        uint256 deadline\n    ) external payable returns (uint256[] memory amounts);\n\n    function getAmountsIn(uint256 amountOut, address[] calldata path)\n        external\n        view\n        returns (uint256[] memory amounts);\n}\n\n//swaps non-compatible link to oracle compatible link\ninterface IPegSwap {\n    function swap(\n        uint256 amount,\n        address source,\n        address target\n    ) external;\n}\n\ninterface IERC20 {\n    function approve(address spender, uint256 amount) external returns (bool);\n}\n\n//author => kribs.eth\ncontract JackpotGame is VRFConsumerBase {\n    event NewJackpot(uint256 index, uint256 blockstamp, uint256 size);\n    event PlayerJoin(uint256 bet, address player, uint256 size);\n    event JackpotResult(address winner, uint256 jackpotSize);\n    event PickingWinner(\n        uint256 time,\n        uint256 jackpotSize,\n        uint256 numOfPlayers\n    );\n\n    // chainlink vrf variables\n    bytes32 internal keyHash;\n    uint256 internal fee;\n\n    //jackpot struct to organize each jackpot info\n    struct Jackpot {\n        uint256 index;\n        uint256 size;\n        uint256 blockstamp;\n        uint256 jackpotEndTime;\n        uint256 ticketIndex;\n        uint256 randomNumberUsed;\n        address[] players;\n        address payable winner;\n    }\n\n    // used to track game information\n\n    Jackpot currentJackpot;\n\n    uint256[] playerTicketArray;\n    address[] players;\n    uint256 index;\n    uint256 totalTickets;\n    uint256 maxLength;\n    enum jackpotStatus {Active, Inactive, PickingWinner}\n    jackpotStatus currentJackpotStatus;\n    address owner;\n    address payoutRecipient;\n\n    mapping(uint256 => address) ticketToPlayer;\n    mapping(address => uint256) playerBet;\n    mapping(uint256 => Jackpot) jackpotIndex;\n    mapping(bytes32 => Jackpot) requestIndex;\n\n    // Routers for automated link oracle payment\n    IUniswapV2Router02 UNIQuickSwap = IUniswapV2Router02(\n        0xa5E0829CaCEd8fFDD4De3c43696c57F7D7A678ff\n    );\n    IPegSwap PegSwap = IPegSwap(0xAA1DC356dc4B18f30C347798FD5379F3D77ABC5b);\n\n    modifier onlyOwner() {\n        require(msg.sender == owner, \"Function only callable by owner\");\n        _;\n    }\n\n    receive() external payable {\n        if (\n            (msg.sender != address(UNIQuickSwap)) &&\n            (msg.sender != address(PegSwap))\n        ) {\n            /* Donations welcomed :) */\n            payable(owner).transfer(msg.value);\n        }\n    }\n\n    //  Network: Matic Mumbai Testnet\n    //  LINK Token:\t        0x326C977E6efc84E512bB9C30f76E30c160eD06FB\n    //  VRF Coordinator:\t0x8C7382F9D8f56b33781fE506E897a4F1e2d17255\n    //  Key Hash:\t        0x6e75b569a01ef56d18cab6a8e71e6600d6ce853834d4a5748b720d06f878b3a4\n    //  Fee:\t            0.0001 LINK\n\n    //   Network: Matic\n    //   VRF Coordinator:    0x3d2341ADb2D31f1c5530cDC622016af293177AE0\n    //   LINK token address: 0xb0897686c545045aFc77CF20eC7A532E3120E0F1\n    //   Key Hash:           0xf86195cf7690c55907b2b611ebb7343a6f649bff128701cc542f0569e2c549da\n    //   Fee:                0.0001 LINK\n\n    constructor()\n        public\n        VRFConsumerBase(\n            0x3d2341ADb2D31f1c5530cDC622016af293177AE0, // VRF Coordinator\n            0xb0897686c545045aFc77CF20eC7A532E3120E0F1 // Link Token Address\n        )\n    {\n        currentJackpotStatus = jackpotStatus.Inactive;\n        keyHash = 0xf86195cf7690c55907b2b611ebb7343a6f649bff128701cc542f0569e2c549da;\n        fee = 0.0001 * 10**18;\n        index = 0;\n        owner = msg.sender;\n        payoutRecipient = msg.sender;\n        maxLength = 60;\n    }\n\n    function newJackpot(uint256 timeInMinutes) public payable {\n        require(\n            currentJackpotStatus == jackpotStatus.Inactive,\n            \"Jackpot already active\"\n        );\n        require(\n            timeInMinutes <= maxLength,\n            \"jackpot too long, check maxtime variable\"\n        );\n        currentJackpotStatus = jackpotStatus.Active;\n        currentJackpot = Jackpot(\n            index,\n            msg.value,\n            block.timestamp,\n            block.timestamp + (timeInMinutes * 1 minutes),\n            0,\n            0,\n            players,\n            address(this)\n        );\n        currentJackpot.players.push(msg.sender);\n\n        playerBet[msg.sender] = msg.value;\n\n        uint256 startingTicket = currentJackpot.ticketIndex;\n\n        uint256 tickets = msg.value / (10**18);\n\n        for (\n            currentJackpot.ticketIndex;\n            currentJackpot.ticketIndex < startingTicket + tickets;\n            currentJackpot.ticketIndex++\n        ) {\n            ticketToPlayer[currentJackpot.ticketIndex] = msg.sender;\n        }\n        emit NewJackpot(index, block.timestamp, currentJackpot.size);\n    }\n\n    function enterJackpot() public payable {\n        require(\n            currentJackpotStatus == jackpotStatus.Active,\n            \"no active jackpot to join\"\n        );\n        currentJackpot.players.push(msg.sender);\n        currentJackpot.size += msg.value;\n        playerBet[msg.sender] = msg.value;\n\n        uint256 startingTicket = currentJackpot.ticketIndex;\n        uint256 tickets = msg.value / (10**18);\n\n        for (\n            currentJackpot.ticketIndex;\n            currentJackpot.ticketIndex < startingTicket + tickets;\n            currentJackpot.ticketIndex++\n        ) {\n            ticketToPlayer[currentJackpot.ticketIndex] = msg.sender;\n        }\n        emit PlayerJoin(msg.value, msg.sender, currentJackpot.size);\n\n        if (now >= currentJackpot.jackpotEndTime) {\n            currentJackpotStatus = jackpotStatus.PickingWinner;\n\n            emit PickingWinner(\n                block.timestamp,\n                currentJackpot.size,\n                currentJackpot.players.length\n            );\n\n            address[] memory path = get_path();\n\n            /*Convert bets. MATIC => WETH => LINK (ERC-20) => LINK (ERC-621) */\n            uint256 amountIn = UNIQuickSwap.getAmountsIn(fee, path)[0];\n            UNIQuickSwap.swapETHForExactTokens{value: amountIn}(\n                fee,\n                path,\n                address(this),\n                block.timestamp + 15\n            );\n            IERC20(0x53E0bca35eC356BD5ddDFebbD1Fc0fD03FaBad39).approve(\n                address(PegSwap),\n                fee\n            );\n            PegSwap.swap(\n                fee,\n                0x53E0bca35eC356BD5ddDFebbD1Fc0fD03FaBad39,\n                address(LINK)\n            );\n\n            currentJackpot.size -= amountIn;\n\n            getRandomNumber(block.timestamp);\n        }\n    }\n\n    function ownerShipTransfer(address _newOwner) public onlyOwner {\n        owner = _newOwner;\n    }\n\n    function getJackpotCount() external view returns (uint256) {\n        return index + 1;\n    }\n\n    function getTicketOwner(uint256 ticketNumber)\n        external\n        view\n        returns (address)\n    {\n        require(\n            currentJackpotStatus == jackpotStatus.Active,\n            \" no active jackpot\"\n        );\n        return ticketToPlayer[ticketNumber];\n    }\n\n    function changePayoutRecipient(address newRecipient) public onlyOwner {\n        payoutRecipient = newRecipient;\n    }\n\n    function changeMaxLength(uint256 _newMaxLength) public onlyOwner {\n        maxLength = _newMaxLength;\n    }\n\n    function timeLeftOnCurrentJackpot() external view returns (uint256) {\n        require(\n            currentJackpotStatus == jackpotStatus.Active,\n            \" no active jackpot\"\n        );\n        return (currentJackpot.jackpotEndTime - now);\n    }\n\n    function getCurrentJackpotInfo()\n        public\n        view\n        returns (\n            uint256 _index,\n            uint256 _size,\n            uint256 _blockstamp,\n            uint256 _jackpotEndTime,\n            uint256 _ticketIndex,\n            address[] memory _players,\n            address winner\n        )\n    {\n        return (\n            currentJackpot.index,\n            currentJackpot.size,\n            currentJackpot.blockstamp,\n            currentJackpot.jackpotEndTime,\n            currentJackpot.ticketIndex,\n            currentJackpot.players,\n            currentJackpot.winner\n        );\n    }\n\n    function getPriorJackpotInfo(uint256 _i)\n        external\n        view\n        returns (\n            uint256 _index,\n            uint256 _size,\n            uint256 _blockstamp,\n            uint256 _jackpotEndTime,\n            uint256 _ticketIndex,\n            uint256 _randomNumberUsed,\n            address[] memory _players,\n            address winner\n        )\n    {\n        Jackpot memory jackpot = jackpotIndex[_i];\n        return (\n            _i,\n            jackpot.size,\n            jackpot.blockstamp,\n            jackpot.jackpotEndTime,\n            jackpot.ticketIndex,\n            jackpot.randomNumberUsed,\n            jackpot.players,\n            jackpot.winner\n        );\n    }\n\n    function getContractBalance() external view returns (uint256) {\n        return address(this).balance;\n    }\n\n    function getJackpotStatus() external view returns (uint256) {\n        return uint256(currentJackpotStatus);\n    }\n\n    //only for testing purposes when contract is in developement to avoid lost funds\n    function testWithdraw() public onlyOwner {\n        payable(owner).transfer(address(this).balance);\n    }\n\n    //CHAINLINK VRF FUNCTIONS BELOW\n\n    function get_path() internal pure returns (address[] memory _path) {\n        address[] memory path = new address[](3);\n        path[0] = 0x0d500B1d8E8eF31E21C99d1Db9A6444d3ADf1270; //WMatic\n        path[1] = 0x7ceB23fD6bC0adD59E62ac25578270cFf1b9f619; //WETH\n        path[2] = 0x53E0bca35eC356BD5ddDFebbD1Fc0fD03FaBad39; //LINK\n        return path;\n    }\n\n    function getRandomNumber(uint256 userProvidedSeed)\n        public\n        onlyOwner\n        returns (bytes32 requestId)\n    {\n        require(\n            LINK.balanceOf(address(this)) >= fee,\n            \"Not enough LINK - fill contract with faucet\"\n        );\n        return requestRandomness(keyHash, fee, userProvidedSeed);\n    }\n\n    function fulfillRandomness(bytes32 requestId, uint256 randomness)\n        internal\n        override\n    {\n        currentJackpot.randomNumberUsed = randomness;\n        uint256 winningTicket = randomness % currentJackpot.ticketIndex;\n        currentJackpot.winner = payable(ticketToPlayer[winningTicket]);\n        currentJackpot.winner.transfer((currentJackpot.size / 2));\n        Jackpot memory indexableJackpot = currentJackpot;\n        jackpotIndex[index] = indexableJackpot;\n        requestIndex[requestId] = indexableJackpot;\n\n        if (currentJackpot.index % 5 == 0) {\n            payable(payoutRecipient).transfer(address(this).balance);\n        }\n        index++;\n        emit JackpotResult(currentJackpot.winner, currentJackpot.size);\n        currentJackpotStatus = jackpotStatus.Inactive;\n    }\n}\n",
  "sourcePath": "contracts/Jackpot.sol",
  "type": "contract"
}