{
  "abi": [
    {
      "inputs": [],
      "stateMutability": "nonpayable",
      "type": "constructor"
    },
    {
      "anonymous": false,
      "inputs": [
        {
          "indexed": false,
          "internalType": "address",
          "name": "winner",
          "type": "address"
        },
        {
          "indexed": false,
          "internalType": "uint256",
          "name": "jackpotSize",
          "type": "uint256"
        }
      ],
      "name": "JackpotResult",
      "type": "event"
    },
    {
      "anonymous": false,
      "inputs": [
        {
          "indexed": false,
          "internalType": "uint256",
          "name": "index",
          "type": "uint256"
        },
        {
          "indexed": false,
          "internalType": "uint256",
          "name": "blockstamp",
          "type": "uint256"
        }
      ],
      "name": "NewJackpot",
      "type": "event"
    },
    {
      "anonymous": false,
      "inputs": [
        {
          "indexed": false,
          "internalType": "uint256",
          "name": "bet",
          "type": "uint256"
        },
        {
          "indexed": false,
          "internalType": "address",
          "name": "player",
          "type": "address"
        }
      ],
      "name": "PlayerJoin",
      "type": "event"
    },
    {
      "inputs": [
        {
          "internalType": "address",
          "name": "_newOwner",
          "type": "address"
        }
      ],
      "name": "changeOwner",
      "outputs": [],
      "stateMutability": "nonpayable",
      "type": "function"
    },
    {
      "inputs": [],
      "name": "enterJackpot",
      "outputs": [],
      "stateMutability": "payable",
      "type": "function"
    },
    {
      "inputs": [],
      "name": "getJackpotCount",
      "outputs": [
        {
          "internalType": "uint256",
          "name": "",
          "type": "uint256"
        }
      ],
      "stateMutability": "view",
      "type": "function"
    },
    {
      "inputs": [
        {
          "internalType": "uint256",
          "name": "_i",
          "type": "uint256"
        }
      ],
      "name": "getJackpotInfo",
      "outputs": [
        {
          "internalType": "uint256",
          "name": "_index",
          "type": "uint256"
        },
        {
          "internalType": "uint256",
          "name": "_size",
          "type": "uint256"
        },
        {
          "internalType": "uint256",
          "name": "_blockstamp",
          "type": "uint256"
        },
        {
          "internalType": "uint256",
          "name": "_jackpotEndTime",
          "type": "uint256"
        },
        {
          "internalType": "uint256",
          "name": "_ticketIndex",
          "type": "uint256"
        },
        {
          "internalType": "address[]",
          "name": "_players",
          "type": "address[]"
        },
        {
          "internalType": "address",
          "name": "winner",
          "type": "address"
        }
      ],
      "stateMutability": "view",
      "type": "function"
    },
    {
      "inputs": [
        {
          "internalType": "uint256",
          "name": "_lengthInHours",
          "type": "uint256"
        }
      ],
      "name": "newJackpot",
      "outputs": [],
      "stateMutability": "payable",
      "type": "function"
    },
    {
      "inputs": [
        {
          "internalType": "bytes32",
          "name": "requestId",
          "type": "bytes32"
        },
        {
          "internalType": "uint256",
          "name": "randomness",
          "type": "uint256"
        }
      ],
      "name": "rawFulfillRandomness",
      "outputs": [],
      "stateMutability": "nonpayable",
      "type": "function"
    },
    {
      "stateMutability": "payable",
      "type": "receive"
    }
  ],
  "bytecode": "60c0604052601280546001600160a01b031990811673a5e0829caced8ffdd4de3c43696c57f7d7a678ff179091556013805490911673aa1dc356dc4b18f30c347798fd5379f3d77abc5b17905534801561005857600080fd5b507f3d2341adb2d31f1c5530cdc622016af293177ae000000000000000000000000060a0527fb0897686c545045afc77cf20ec7a532e3120e0f10000000000000000000000006080527f6e75b569a01ef56d18cab6a8e71e6600d6ce853834d4a5748b720d06f878b3a4600155655af3107a400060025560006003819055600f8054610100600160a81b031916336101000217905573b0897686c545045afc77cf20ec7a532e3120e0f190733d2341adb2d31f1c5530cdc622016af293177ae090610ea3906101409039806103475280610b1852508061079e5280610ae95250610ea36000f3fe6080604052600436106100595760003560e01c806340605f42146100d257806394985ddd1461018c578063a253fbfa146101bc578063a6f9dae1146101d9578063c486ab9e1461020c578063da931fe014610233576100cd565b366100cd576012546001600160a01b0316331480159061008457506013546001600160a01b03163314155b156100cb57600f546040516001600160a01b0361010090920491909116903480156108fc02916000818181858888f193505050501580156100c9573d6000803e3d6000fd5b505b005b600080fd5b3480156100de57600080fd5b506100fc600480360360208110156100f557600080fd5b503561023b565b6040518088815260200187815260200186815260200185815260200184815260200180602001836001600160a01b03166001600160a01b03168152602001828103825284818151815260200191508051906020019060200280838360005b8381101561017257818101518382015260200161015a565b505050509050019850505050505050505060405180910390f35b34801561019857600080fd5b506100cb600480360360408110156101af57600080fd5b508035906020013561033c565b6100cb600480360360208110156101d257600080fd5b50356103c7565b3480156101e557600080fd5b506100cb600480360360208110156101fc57600080fd5b50356001600160a01b03166105b9565b34801561021857600080fd5b50610221610645565b60408051918252519081900360200190f35b6100cb61064c565b60008060008060006060600061024f610d7b565b600089815260056020818152604092839020835160e08101855281548152600182015481840152600282015481860152600382015460608201526004820154608082015292810180548551818502810185019096528086529394919360a08601938301828280156102e957602002820191906000526020600020905b81546001600160a01b031681526001909101906020018083116102cb575b5050509183525050600691909101546001600160a01b031660209182015281015160408201516060830151608084015160a085015160c0909501519d9e939d929c50909a50985091965090945092505050565b336001600160a01b037f000000000000000000000000000000000000000000000000000000000000000016146103b9576040805162461bcd60e51b815260206004820152601f60248201527f4f6e6c7920565246436f6f7264696e61746f722063616e2066756c66696c6c00604482015290519081900360640190fd5b6103c3828261078e565b5050565b600f5460ff1615610418576040805162461bcd60e51b81526020600482015260166024820152754a61636b706f7420616c72656164792061637469766560501b604482015290519081900360640190fd5b601881111561046e576040805162461bcd60e51b815260206004820152601a60248201527f323420686f7572206a61636b706f74206c656e677468206d6178000000000000604482015290519081900360640190fd5b600f805460ff191660011790556040805160e08101825260035481523460208083019190915242828401819052610e1085020160608301526000608083015260048054845181840281018401909552808552929360a0850193909283018282801561050257602002820191906000526020600020905b81546001600160a01b031681526001909101906020018083116104e4575b5050509183525050306020918201528151600690815582820151600755604083015160085560608301516009556080830151600a5560a08301518051919261055092600b9290910190610dc1565b5060c09190910151600690910180546001600160a01b0319166001600160a01b039092169190911790556003546040805191825242602083015280517f40118fe98a5e0b63db8ba04a6690f55022e70bbf133778fbc45d009a267c6d229281900390910190a150565b600f5461010090046001600160a01b0316331461061d576040805162461bcd60e51b815260206004820152601f60248201527f46756e6374696f6e206f6e6c792063616c6c61626c65206279206f776e657200604482015290519081900360640190fd5b600f80546001600160a01b0390921661010002610100600160a81b0319909216919091179055565b6003545b90565b600f5460ff1615156001146106a8576040805162461bcd60e51b815260206004820152601960248201527f6e6f20616374697665206a61636b706f7420746f206a6f696e00000000000000604482015290519081900360640190fd5b600b8054600181019091557f0175b7a638427703f0dbe7bb9bbf987a2551717b34e79f33b5b1008d1fa01db90180546001600160a01b031916339081179091556007805434908101909155600091825260116020526040909120555b600a54341061073b57600a8054600090815260106020526040902080546001600160a01b0319163317905580546001019055610704565b6040805134815233602082015281517fd1720e61a92fa62559986063d2ccde5c60221dd98ec4a9d490bafd5967177cd8929181900390910190a1600954421061078c57600b5461078a90610797565b505b565b6103c381610890565b60006002547f00000000000000000000000000000000000000000000000000000000000000006001600160a01b03166370a08231306040518263ffffffff1660e01b815260040180826001600160a01b03166001600160a01b0316815260200191505060206040518083038186803b15801561081257600080fd5b505afa158015610826573d6000803e3d6000fd5b505050506040513d602081101561083c57600080fd5b5051101561087b5760405162461bcd60e51b8152600401808060200182810382526023815260200180610e4b6023913960400191505060405180910390fd5b61088a60015460025484610ae5565b92915050565b600a54600090828161089e57fe5b06600081815260106020526040902054600c80546001600160a01b0319166001600160a01b03928316179081905560075492935016906108fc90606490606302049081150290604051600060405180830381858888f1935050505015801561090a573d6000803e3d6000fd5b50600f805460ff191690556006546005900661096257600f546040516001600160a01b0361010090920491909116904780156108fc02916000818181858888f19350505050158015610960573d6000803e3d6000fd5b505b61096a610d7b565b6040805160e081018252600680548252600754602080840191909152600854838501526009546060840152600a546080840152600b80548551818402810184019096528086529394929360a0860193928301828280156109f357602002820191906000526020600020905b81546001600160a01b031681526001909101906020018083116109d5575b5050509183525050600691909101546001600160a01b03166020918201526003805460009081526005808452604091829020855181558585015160018201559185015160028301556060850151928201929092556080840151600482015560a0840151805194955085949193610a6e93850192910190610dc1565b5060c09190910151600690910180546001600160a01b0319166001600160a01b03928316179055600380546001019055600c5460075460408051929093168252602082015281517f180c1be73088c081b2c1a00f1d83378314862d2c6ae815df41c75a0eb1fb032f929181900390910190a1505050565b60007f00000000000000000000000000000000000000000000000000000000000000006001600160a01b0316634000aea07f000000000000000000000000000000000000000000000000000000000000000085878660405160200180838152602001828152602001925050506040516020818303038152906040526040518463ffffffff1660e01b815260040180846001600160a01b03166001600160a01b0316815260200183815260200180602001828103825283818151815260200191508051906020019080838360005b83811015610bca578181015183820152602001610bb2565b50505050905090810190601f168015610bf75780820380516001836020036101000a031916815260200191505b50945050505050602060405180830381600087803b158015610c1857600080fd5b505af1158015610c2c573d6000803e3d6000fd5b505050506040513d6020811015610c4257600080fd5b5050600084815260208190526040812054610c6290869085903090610ca7565b600086815260208190526040902054909150610c8590600163ffffffff610cee16565b600086815260208190526040902055610c9e8582610d4f565b95945050505050565b60408051602080820196909652808201949094526001600160a01b039290921660608401526080808401919091528151808403909101815260a09092019052805191012090565b600082820183811015610d48576040805162461bcd60e51b815260206004820152601b60248201527f536166654d6174683a206164646974696f6e206f766572666c6f770000000000604482015290519081900360640190fd5b9392505050565b604080516020808201949094528082019290925280518083038201815260609092019052805191012090565b6040518060e0016040528060008152602001600081526020016000815260200160008152602001600081526020016060815260200160006001600160a01b031681525090565b828054828255906000526020600020908101928215610e16579160200282015b82811115610e1657825182546001600160a01b0319166001600160a01b03909116178255602090920191600190910190610de1565b50610e22929150610e26565b5090565b61064991905b80821115610e225780546001600160a01b0319168155600101610e2c56fe4e6f7420656e6f756768204c494e4b20666f7220565246207472616e73616374696f6ea264697066735822122039e2a323105b818c4dab7819c990693bae017f35b18f62fdbc9ff5781b9ee48764736f6c63430006060033",
  "bytecodeSha1": "ed8a46cf680caf3b844dd4c4348b41077d7a895b",
  "compiler": {
    "evm_version": "istanbul",
    "optimizer": {
      "enabled": true,
      "runs": 200
    },
    "version": "0.6.6+commit.6c089d02"
  },
  "contractName": "JackpotGame",
  "language": "Solidity",
  "natspec": {
    "methods": {}
  },
  "opcodes": "PUSH1 0x80 PUSH1 0x40 MSTORE PUSH1 0x4 CALLDATASIZE LT PUSH2 0x59 JUMPI PUSH1 0x0 CALLDATALOAD PUSH1 0xE0 SHR DUP1 PUSH4 0x40605F42 EQ PUSH2 0xD2 JUMPI DUP1 PUSH4 0x94985DDD EQ PUSH2 0x18C JUMPI DUP1 PUSH4 0xA253FBFA EQ PUSH2 0x1BC JUMPI DUP1 PUSH4 0xA6F9DAE1 EQ PUSH2 0x1D9 JUMPI DUP1 PUSH4 0xC486AB9E EQ PUSH2 0x20C JUMPI DUP1 PUSH4 0xDA931FE0 EQ PUSH2 0x233 JUMPI PUSH2 0xCD JUMP JUMPDEST CALLDATASIZE PUSH2 0xCD JUMPI PUSH1 0x12 SLOAD PUSH1 0x1 PUSH1 0x1 PUSH1 0xA0 SHL SUB AND CALLER EQ DUP1 ISZERO SWAP1 PUSH2 0x84 JUMPI POP PUSH1 0x13 SLOAD PUSH1 0x1 PUSH1 0x1 PUSH1 0xA0 SHL SUB AND CALLER EQ ISZERO JUMPDEST ISZERO PUSH2 0xCB JUMPI PUSH1 0xF SLOAD PUSH1 0x40 MLOAD PUSH1 0x1 PUSH1 0x1 PUSH1 0xA0 SHL SUB PUSH2 0x100 SWAP1 SWAP3 DIV SWAP2 SWAP1 SWAP2 AND SWAP1 CALLVALUE DUP1 ISZERO PUSH2 0x8FC MUL SWAP2 PUSH1 0x0 DUP2 DUP2 DUP2 DUP6 DUP9 DUP9 CALL SWAP4 POP POP POP POP ISZERO DUP1 ISZERO PUSH2 0xC9 JUMPI RETURNDATASIZE PUSH1 0x0 DUP1 RETURNDATACOPY RETURNDATASIZE PUSH1 0x0 REVERT JUMPDEST POP JUMPDEST STOP JUMPDEST PUSH1 0x0 DUP1 REVERT JUMPDEST CALLVALUE DUP1 ISZERO PUSH2 0xDE JUMPI PUSH1 0x0 DUP1 REVERT JUMPDEST POP PUSH2 0xFC PUSH1 0x4 DUP1 CALLDATASIZE SUB PUSH1 0x20 DUP2 LT ISZERO PUSH2 0xF5 JUMPI PUSH1 0x0 DUP1 REVERT JUMPDEST POP CALLDATALOAD PUSH2 0x23B JUMP JUMPDEST PUSH1 0x40 MLOAD DUP1 DUP9 DUP2 MSTORE PUSH1 0x20 ADD DUP8 DUP2 MSTORE PUSH1 0x20 ADD DUP7 DUP2 MSTORE PUSH1 0x20 ADD DUP6 DUP2 MSTORE PUSH1 0x20 ADD DUP5 DUP2 MSTORE PUSH1 0x20 ADD DUP1 PUSH1 0x20 ADD DUP4 PUSH1 0x1 PUSH1 0x1 PUSH1 0xA0 SHL SUB AND PUSH1 0x1 PUSH1 0x1 PUSH1 0xA0 SHL SUB AND DUP2 MSTORE PUSH1 0x20 ADD DUP3 DUP2 SUB DUP3 MSTORE DUP5 DUP2 DUP2 MLOAD DUP2 MSTORE PUSH1 0x20 ADD SWAP2 POP DUP1 MLOAD SWAP1 PUSH1 0x20 ADD SWAP1 PUSH1 0x20 MUL DUP1 DUP4 DUP4 PUSH1 0x0 JUMPDEST DUP4 DUP2 LT ISZERO PUSH2 0x172 JUMPI DUP2 DUP2 ADD MLOAD DUP4 DUP3 ADD MSTORE PUSH1 0x20 ADD PUSH2 0x15A JUMP JUMPDEST POP POP POP POP SWAP1 POP ADD SWAP9 POP POP POP POP POP POP POP POP POP PUSH1 0x40 MLOAD DUP1 SWAP2 SUB SWAP1 RETURN JUMPDEST CALLVALUE DUP1 ISZERO PUSH2 0x198 JUMPI PUSH1 0x0 DUP1 REVERT JUMPDEST POP PUSH2 0xCB PUSH1 0x4 DUP1 CALLDATASIZE SUB PUSH1 0x40 DUP2 LT ISZERO PUSH2 0x1AF JUMPI PUSH1 0x0 DUP1 REVERT JUMPDEST POP DUP1 CALLDATALOAD SWAP1 PUSH1 0x20 ADD CALLDATALOAD PUSH2 0x33C JUMP JUMPDEST PUSH2 0xCB PUSH1 0x4 DUP1 CALLDATASIZE SUB PUSH1 0x20 DUP2 LT ISZERO PUSH2 0x1D2 JUMPI PUSH1 0x0 DUP1 REVERT JUMPDEST POP CALLDATALOAD PUSH2 0x3C7 JUMP JUMPDEST CALLVALUE DUP1 ISZERO PUSH2 0x1E5 JUMPI PUSH1 0x0 DUP1 REVERT JUMPDEST POP PUSH2 0xCB PUSH1 0x4 DUP1 CALLDATASIZE SUB PUSH1 0x20 DUP2 LT ISZERO PUSH2 0x1FC JUMPI PUSH1 0x0 DUP1 REVERT JUMPDEST POP CALLDATALOAD PUSH1 0x1 PUSH1 0x1 PUSH1 0xA0 SHL SUB AND PUSH2 0x5B9 JUMP JUMPDEST CALLVALUE DUP1 ISZERO PUSH2 0x218 JUMPI PUSH1 0x0 DUP1 REVERT JUMPDEST POP PUSH2 0x221 PUSH2 0x645 JUMP JUMPDEST PUSH1 0x40 DUP1 MLOAD SWAP2 DUP3 MSTORE MLOAD SWAP1 DUP2 SWAP1 SUB PUSH1 0x20 ADD SWAP1 RETURN JUMPDEST PUSH2 0xCB PUSH2 0x64C JUMP JUMPDEST PUSH1 0x0 DUP1 PUSH1 0x0 DUP1 PUSH1 0x0 PUSH1 0x60 PUSH1 0x0 PUSH2 0x24F PUSH2 0xD7B JUMP JUMPDEST PUSH1 0x0 DUP10 DUP2 MSTORE PUSH1 0x5 PUSH1 0x20 DUP2 DUP2 MSTORE PUSH1 0x40 SWAP3 DUP4 SWAP1 KECCAK256 DUP4 MLOAD PUSH1 0xE0 DUP2 ADD DUP6 MSTORE DUP2 SLOAD DUP2 MSTORE PUSH1 0x1 DUP3 ADD SLOAD DUP2 DUP5 ADD MSTORE PUSH1 0x2 DUP3 ADD SLOAD DUP2 DUP7 ADD MSTORE PUSH1 0x3 DUP3 ADD SLOAD PUSH1 0x60 DUP3 ADD MSTORE PUSH1 0x4 DUP3 ADD SLOAD PUSH1 0x80 DUP3 ADD MSTORE SWAP3 DUP2 ADD DUP1 SLOAD DUP6 MLOAD DUP2 DUP6 MUL DUP2 ADD DUP6 ADD SWAP1 SWAP7 MSTORE DUP1 DUP7 MSTORE SWAP4 SWAP5 SWAP2 SWAP4 PUSH1 0xA0 DUP7 ADD SWAP4 DUP4 ADD DUP3 DUP3 DUP1 ISZERO PUSH2 0x2E9 JUMPI PUSH1 0x20 MUL DUP3 ADD SWAP2 SWAP1 PUSH1 0x0 MSTORE PUSH1 0x20 PUSH1 0x0 KECCAK256 SWAP1 JUMPDEST DUP2 SLOAD PUSH1 0x1 PUSH1 0x1 PUSH1 0xA0 SHL SUB AND DUP2 MSTORE PUSH1 0x1 SWAP1 SWAP2 ADD SWAP1 PUSH1 0x20 ADD DUP1 DUP4 GT PUSH2 0x2CB JUMPI JUMPDEST POP POP POP SWAP2 DUP4 MSTORE POP POP PUSH1 0x6 SWAP2 SWAP1 SWAP2 ADD SLOAD PUSH1 0x1 PUSH1 0x1 PUSH1 0xA0 SHL SUB AND PUSH1 0x20 SWAP2 DUP3 ADD MSTORE DUP2 ADD MLOAD PUSH1 0x40 DUP3 ADD MLOAD PUSH1 0x60 DUP4 ADD MLOAD PUSH1 0x80 DUP5 ADD MLOAD PUSH1 0xA0 DUP6 ADD MLOAD PUSH1 0xC0 SWAP1 SWAP6 ADD MLOAD SWAP14 SWAP15 SWAP4 SWAP14 SWAP3 SWAP13 POP SWAP1 SWAP11 POP SWAP9 POP SWAP2 SWAP7 POP SWAP1 SWAP5 POP SWAP3 POP POP POP JUMP JUMPDEST CALLER PUSH1 0x1 PUSH1 0x1 PUSH1 0xA0 SHL SUB PUSH32 0x0 AND EQ PUSH2 0x3B9 JUMPI PUSH1 0x40 DUP1 MLOAD PUSH3 0x461BCD PUSH1 0xE5 SHL DUP2 MSTORE PUSH1 0x20 PUSH1 0x4 DUP3 ADD MSTORE PUSH1 0x1F PUSH1 0x24 DUP3 ADD MSTORE PUSH32 0x4F6E6C7920565246436F6F7264696E61746F722063616E2066756C66696C6C00 PUSH1 0x44 DUP3 ADD MSTORE SWAP1 MLOAD SWAP1 DUP2 SWAP1 SUB PUSH1 0x64 ADD SWAP1 REVERT JUMPDEST PUSH2 0x3C3 DUP3 DUP3 PUSH2 0x78E JUMP JUMPDEST POP POP JUMP JUMPDEST PUSH1 0xF SLOAD PUSH1 0xFF AND ISZERO PUSH2 0x418 JUMPI PUSH1 0x40 DUP1 MLOAD PUSH3 0x461BCD PUSH1 0xE5 SHL DUP2 MSTORE PUSH1 0x20 PUSH1 0x4 DUP3 ADD MSTORE PUSH1 0x16 PUSH1 0x24 DUP3 ADD MSTORE PUSH22 0x4A61636B706F7420616C726561647920616374697665 PUSH1 0x50 SHL PUSH1 0x44 DUP3 ADD MSTORE SWAP1 MLOAD SWAP1 DUP2 SWAP1 SUB PUSH1 0x64 ADD SWAP1 REVERT JUMPDEST PUSH1 0x18 DUP2 GT ISZERO PUSH2 0x46E JUMPI PUSH1 0x40 DUP1 MLOAD PUSH3 0x461BCD PUSH1 0xE5 SHL DUP2 MSTORE PUSH1 0x20 PUSH1 0x4 DUP3 ADD MSTORE PUSH1 0x1A PUSH1 0x24 DUP3 ADD MSTORE PUSH32 0x323420686F7572206A61636B706F74206C656E677468206D6178000000000000 PUSH1 0x44 DUP3 ADD MSTORE SWAP1 MLOAD SWAP1 DUP2 SWAP1 SUB PUSH1 0x64 ADD SWAP1 REVERT JUMPDEST PUSH1 0xF DUP1 SLOAD PUSH1 0xFF NOT AND PUSH1 0x1 OR SWAP1 SSTORE PUSH1 0x40 DUP1 MLOAD PUSH1 0xE0 DUP2 ADD DUP3 MSTORE PUSH1 0x3 SLOAD DUP2 MSTORE CALLVALUE PUSH1 0x20 DUP1 DUP4 ADD SWAP2 SWAP1 SWAP2 MSTORE TIMESTAMP DUP3 DUP5 ADD DUP2 SWAP1 MSTORE PUSH2 0xE10 DUP6 MUL ADD PUSH1 0x60 DUP4 ADD MSTORE PUSH1 0x0 PUSH1 0x80 DUP4 ADD MSTORE PUSH1 0x4 DUP1 SLOAD DUP5 MLOAD DUP2 DUP5 MUL DUP2 ADD DUP5 ADD SWAP1 SWAP6 MSTORE DUP1 DUP6 MSTORE SWAP3 SWAP4 PUSH1 0xA0 DUP6 ADD SWAP4 SWAP1 SWAP3 DUP4 ADD DUP3 DUP3 DUP1 ISZERO PUSH2 0x502 JUMPI PUSH1 0x20 MUL DUP3 ADD SWAP2 SWAP1 PUSH1 0x0 MSTORE PUSH1 0x20 PUSH1 0x0 KECCAK256 SWAP1 JUMPDEST DUP2 SLOAD PUSH1 0x1 PUSH1 0x1 PUSH1 0xA0 SHL SUB AND DUP2 MSTORE PUSH1 0x1 SWAP1 SWAP2 ADD SWAP1 PUSH1 0x20 ADD DUP1 DUP4 GT PUSH2 0x4E4 JUMPI JUMPDEST POP POP POP SWAP2 DUP4 MSTORE POP POP ADDRESS PUSH1 0x20 SWAP2 DUP3 ADD MSTORE DUP2 MLOAD PUSH1 0x6 SWAP1 DUP2 SSTORE DUP3 DUP3 ADD MLOAD PUSH1 0x7 SSTORE PUSH1 0x40 DUP4 ADD MLOAD PUSH1 0x8 SSTORE PUSH1 0x60 DUP4 ADD MLOAD PUSH1 0x9 SSTORE PUSH1 0x80 DUP4 ADD MLOAD PUSH1 0xA SSTORE PUSH1 0xA0 DUP4 ADD MLOAD DUP1 MLOAD SWAP2 SWAP3 PUSH2 0x550 SWAP3 PUSH1 0xB SWAP3 SWAP1 SWAP2 ADD SWAP1 PUSH2 0xDC1 JUMP JUMPDEST POP PUSH1 0xC0 SWAP2 SWAP1 SWAP2 ADD MLOAD PUSH1 0x6 SWAP1 SWAP2 ADD DUP1 SLOAD PUSH1 0x1 PUSH1 0x1 PUSH1 0xA0 SHL SUB NOT AND PUSH1 0x1 PUSH1 0x1 PUSH1 0xA0 SHL SUB SWAP1 SWAP3 AND SWAP2 SWAP1 SWAP2 OR SWAP1 SSTORE PUSH1 0x3 SLOAD PUSH1 0x40 DUP1 MLOAD SWAP2 DUP3 MSTORE TIMESTAMP PUSH1 0x20 DUP4 ADD MSTORE DUP1 MLOAD PUSH32 0x40118FE98A5E0B63DB8BA04A6690F55022E70BBF133778FBC45D009A267C6D22 SWAP3 DUP2 SWAP1 SUB SWAP1 SWAP2 ADD SWAP1 LOG1 POP JUMP JUMPDEST PUSH1 0xF SLOAD PUSH2 0x100 SWAP1 DIV PUSH1 0x1 PUSH1 0x1 PUSH1 0xA0 SHL SUB AND CALLER EQ PUSH2 0x61D JUMPI PUSH1 0x40 DUP1 MLOAD PUSH3 0x461BCD PUSH1 0xE5 SHL DUP2 MSTORE PUSH1 0x20 PUSH1 0x4 DUP3 ADD MSTORE PUSH1 0x1F PUSH1 0x24 DUP3 ADD MSTORE PUSH32 0x46756E6374696F6E206F6E6C792063616C6C61626C65206279206F776E657200 PUSH1 0x44 DUP3 ADD MSTORE SWAP1 MLOAD SWAP1 DUP2 SWAP1 SUB PUSH1 0x64 ADD SWAP1 REVERT JUMPDEST PUSH1 0xF DUP1 SLOAD PUSH1 0x1 PUSH1 0x1 PUSH1 0xA0 SHL SUB SWAP1 SWAP3 AND PUSH2 0x100 MUL PUSH2 0x100 PUSH1 0x1 PUSH1 0xA8 SHL SUB NOT SWAP1 SWAP3 AND SWAP2 SWAP1 SWAP2 OR SWAP1 SSTORE JUMP JUMPDEST PUSH1 0x3 SLOAD JUMPDEST SWAP1 JUMP JUMPDEST PUSH1 0xF SLOAD PUSH1 0xFF AND ISZERO ISZERO PUSH1 0x1 EQ PUSH2 0x6A8 JUMPI PUSH1 0x40 DUP1 MLOAD PUSH3 0x461BCD PUSH1 0xE5 SHL DUP2 MSTORE PUSH1 0x20 PUSH1 0x4 DUP3 ADD MSTORE PUSH1 0x19 PUSH1 0x24 DUP3 ADD MSTORE PUSH32 0x6E6F20616374697665206A61636B706F7420746F206A6F696E00000000000000 PUSH1 0x44 DUP3 ADD MSTORE SWAP1 MLOAD SWAP1 DUP2 SWAP1 SUB PUSH1 0x64 ADD SWAP1 REVERT JUMPDEST PUSH1 0xB DUP1 SLOAD PUSH1 0x1 DUP2 ADD SWAP1 SWAP2 SSTORE PUSH32 0x175B7A638427703F0DBE7BB9BBF987A2551717B34E79F33B5B1008D1FA01DB9 ADD DUP1 SLOAD PUSH1 0x1 PUSH1 0x1 PUSH1 0xA0 SHL SUB NOT AND CALLER SWAP1 DUP2 OR SWAP1 SWAP2 SSTORE PUSH1 0x7 DUP1 SLOAD CALLVALUE SWAP1 DUP2 ADD SWAP1 SWAP2 SSTORE PUSH1 0x0 SWAP2 DUP3 MSTORE PUSH1 0x11 PUSH1 0x20 MSTORE PUSH1 0x40 SWAP1 SWAP2 KECCAK256 SSTORE JUMPDEST PUSH1 0xA SLOAD CALLVALUE LT PUSH2 0x73B JUMPI PUSH1 0xA DUP1 SLOAD PUSH1 0x0 SWAP1 DUP2 MSTORE PUSH1 0x10 PUSH1 0x20 MSTORE PUSH1 0x40 SWAP1 KECCAK256 DUP1 SLOAD PUSH1 0x1 PUSH1 0x1 PUSH1 0xA0 SHL SUB NOT AND CALLER OR SWAP1 SSTORE DUP1 SLOAD PUSH1 0x1 ADD SWAP1 SSTORE PUSH2 0x704 JUMP JUMPDEST PUSH1 0x40 DUP1 MLOAD CALLVALUE DUP2 MSTORE CALLER PUSH1 0x20 DUP3 ADD MSTORE DUP2 MLOAD PUSH32 0xD1720E61A92FA62559986063D2CCDE5C60221DD98EC4A9D490BAFD5967177CD8 SWAP3 SWAP2 DUP2 SWAP1 SUB SWAP1 SWAP2 ADD SWAP1 LOG1 PUSH1 0x9 SLOAD TIMESTAMP LT PUSH2 0x78C JUMPI PUSH1 0xB SLOAD PUSH2 0x78A SWAP1 PUSH2 0x797 JUMP JUMPDEST POP JUMPDEST JUMP JUMPDEST PUSH2 0x3C3 DUP2 PUSH2 0x890 JUMP JUMPDEST PUSH1 0x0 PUSH1 0x2 SLOAD PUSH32 0x0 PUSH1 0x1 PUSH1 0x1 PUSH1 0xA0 SHL SUB AND PUSH4 0x70A08231 ADDRESS PUSH1 0x40 MLOAD DUP3 PUSH4 0xFFFFFFFF AND PUSH1 0xE0 SHL DUP2 MSTORE PUSH1 0x4 ADD DUP1 DUP3 PUSH1 0x1 PUSH1 0x1 PUSH1 0xA0 SHL SUB AND PUSH1 0x1 PUSH1 0x1 PUSH1 0xA0 SHL SUB AND DUP2 MSTORE PUSH1 0x20 ADD SWAP2 POP POP PUSH1 0x20 PUSH1 0x40 MLOAD DUP1 DUP4 SUB DUP2 DUP7 DUP1 EXTCODESIZE ISZERO DUP1 ISZERO PUSH2 0x812 JUMPI PUSH1 0x0 DUP1 REVERT JUMPDEST POP GAS STATICCALL ISZERO DUP1 ISZERO PUSH2 0x826 JUMPI RETURNDATASIZE PUSH1 0x0 DUP1 RETURNDATACOPY RETURNDATASIZE PUSH1 0x0 REVERT JUMPDEST POP POP POP POP PUSH1 0x40 MLOAD RETURNDATASIZE PUSH1 0x20 DUP2 LT ISZERO PUSH2 0x83C JUMPI PUSH1 0x0 DUP1 REVERT JUMPDEST POP MLOAD LT ISZERO PUSH2 0x87B JUMPI PUSH1 0x40 MLOAD PUSH3 0x461BCD PUSH1 0xE5 SHL DUP2 MSTORE PUSH1 0x4 ADD DUP1 DUP1 PUSH1 0x20 ADD DUP3 DUP2 SUB DUP3 MSTORE PUSH1 0x23 DUP2 MSTORE PUSH1 0x20 ADD DUP1 PUSH2 0xE4B PUSH1 0x23 SWAP2 CODECOPY PUSH1 0x40 ADD SWAP2 POP POP PUSH1 0x40 MLOAD DUP1 SWAP2 SUB SWAP1 REVERT JUMPDEST PUSH2 0x88A PUSH1 0x1 SLOAD PUSH1 0x2 SLOAD DUP5 PUSH2 0xAE5 JUMP JUMPDEST SWAP3 SWAP2 POP POP JUMP JUMPDEST PUSH1 0xA SLOAD PUSH1 0x0 SWAP1 DUP3 DUP2 PUSH2 0x89E JUMPI INVALID JUMPDEST MOD PUSH1 0x0 DUP2 DUP2 MSTORE PUSH1 0x10 PUSH1 0x20 MSTORE PUSH1 0x40 SWAP1 KECCAK256 SLOAD PUSH1 0xC DUP1 SLOAD PUSH1 0x1 PUSH1 0x1 PUSH1 0xA0 SHL SUB NOT AND PUSH1 0x1 PUSH1 0x1 PUSH1 0xA0 SHL SUB SWAP3 DUP4 AND OR SWAP1 DUP2 SWAP1 SSTORE PUSH1 0x7 SLOAD SWAP3 SWAP4 POP AND SWAP1 PUSH2 0x8FC SWAP1 PUSH1 0x64 SWAP1 PUSH1 0x63 MUL DIV SWAP1 DUP2 ISZERO MUL SWAP1 PUSH1 0x40 MLOAD PUSH1 0x0 PUSH1 0x40 MLOAD DUP1 DUP4 SUB DUP2 DUP6 DUP9 DUP9 CALL SWAP4 POP POP POP POP ISZERO DUP1 ISZERO PUSH2 0x90A JUMPI RETURNDATASIZE PUSH1 0x0 DUP1 RETURNDATACOPY RETURNDATASIZE PUSH1 0x0 REVERT JUMPDEST POP PUSH1 0xF DUP1 SLOAD PUSH1 0xFF NOT AND SWAP1 SSTORE PUSH1 0x6 SLOAD PUSH1 0x5 SWAP1 MOD PUSH2 0x962 JUMPI PUSH1 0xF SLOAD PUSH1 0x40 MLOAD PUSH1 0x1 PUSH1 0x1 PUSH1 0xA0 SHL SUB PUSH2 0x100 SWAP1 SWAP3 DIV SWAP2 SWAP1 SWAP2 AND SWAP1 SELFBALANCE DUP1 ISZERO PUSH2 0x8FC MUL SWAP2 PUSH1 0x0 DUP2 DUP2 DUP2 DUP6 DUP9 DUP9 CALL SWAP4 POP POP POP POP ISZERO DUP1 ISZERO PUSH2 0x960 JUMPI RETURNDATASIZE PUSH1 0x0 DUP1 RETURNDATACOPY RETURNDATASIZE PUSH1 0x0 REVERT JUMPDEST POP JUMPDEST PUSH2 0x96A PUSH2 0xD7B JUMP JUMPDEST PUSH1 0x40 DUP1 MLOAD PUSH1 0xE0 DUP2 ADD DUP3 MSTORE PUSH1 0x6 DUP1 SLOAD DUP3 MSTORE PUSH1 0x7 SLOAD PUSH1 0x20 DUP1 DUP5 ADD SWAP2 SWAP1 SWAP2 MSTORE PUSH1 0x8 SLOAD DUP4 DUP6 ADD MSTORE PUSH1 0x9 SLOAD PUSH1 0x60 DUP5 ADD MSTORE PUSH1 0xA SLOAD PUSH1 0x80 DUP5 ADD MSTORE PUSH1 0xB DUP1 SLOAD DUP6 MLOAD DUP2 DUP5 MUL DUP2 ADD DUP5 ADD SWAP1 SWAP7 MSTORE DUP1 DUP7 MSTORE SWAP4 SWAP5 SWAP3 SWAP4 PUSH1 0xA0 DUP7 ADD SWAP4 SWAP3 DUP4 ADD DUP3 DUP3 DUP1 ISZERO PUSH2 0x9F3 JUMPI PUSH1 0x20 MUL DUP3 ADD SWAP2 SWAP1 PUSH1 0x0 MSTORE PUSH1 0x20 PUSH1 0x0 KECCAK256 SWAP1 JUMPDEST DUP2 SLOAD PUSH1 0x1 PUSH1 0x1 PUSH1 0xA0 SHL SUB AND DUP2 MSTORE PUSH1 0x1 SWAP1 SWAP2 ADD SWAP1 PUSH1 0x20 ADD DUP1 DUP4 GT PUSH2 0x9D5 JUMPI JUMPDEST POP POP POP SWAP2 DUP4 MSTORE POP POP PUSH1 0x6 SWAP2 SWAP1 SWAP2 ADD SLOAD PUSH1 0x1 PUSH1 0x1 PUSH1 0xA0 SHL SUB AND PUSH1 0x20 SWAP2 DUP3 ADD MSTORE PUSH1 0x3 DUP1 SLOAD PUSH1 0x0 SWAP1 DUP2 MSTORE PUSH1 0x5 DUP1 DUP5 MSTORE PUSH1 0x40 SWAP2 DUP3 SWAP1 KECCAK256 DUP6 MLOAD DUP2 SSTORE DUP6 DUP6 ADD MLOAD PUSH1 0x1 DUP3 ADD SSTORE SWAP2 DUP6 ADD MLOAD PUSH1 0x2 DUP4 ADD SSTORE PUSH1 0x60 DUP6 ADD MLOAD SWAP3 DUP3 ADD SWAP3 SWAP1 SWAP3 SSTORE PUSH1 0x80 DUP5 ADD MLOAD PUSH1 0x4 DUP3 ADD SSTORE PUSH1 0xA0 DUP5 ADD MLOAD DUP1 MLOAD SWAP5 SWAP6 POP DUP6 SWAP5 SWAP2 SWAP4 PUSH2 0xA6E SWAP4 DUP6 ADD SWAP3 SWAP2 ADD SWAP1 PUSH2 0xDC1 JUMP JUMPDEST POP PUSH1 0xC0 SWAP2 SWAP1 SWAP2 ADD MLOAD PUSH1 0x6 SWAP1 SWAP2 ADD DUP1 SLOAD PUSH1 0x1 PUSH1 0x1 PUSH1 0xA0 SHL SUB NOT AND PUSH1 0x1 PUSH1 0x1 PUSH1 0xA0 SHL SUB SWAP3 DUP4 AND OR SWAP1 SSTORE PUSH1 0x3 DUP1 SLOAD PUSH1 0x1 ADD SWAP1 SSTORE PUSH1 0xC SLOAD PUSH1 0x7 SLOAD PUSH1 0x40 DUP1 MLOAD SWAP3 SWAP1 SWAP4 AND DUP3 MSTORE PUSH1 0x20 DUP3 ADD MSTORE DUP2 MLOAD PUSH32 0x180C1BE73088C081B2C1A00F1D83378314862D2C6AE815DF41C75A0EB1FB032F SWAP3 SWAP2 DUP2 SWAP1 SUB SWAP1 SWAP2 ADD SWAP1 LOG1 POP POP POP JUMP JUMPDEST PUSH1 0x0 PUSH32 0x0 PUSH1 0x1 PUSH1 0x1 PUSH1 0xA0 SHL SUB AND PUSH4 0x4000AEA0 PUSH32 0x0 DUP6 DUP8 DUP7 PUSH1 0x40 MLOAD PUSH1 0x20 ADD DUP1 DUP4 DUP2 MSTORE PUSH1 0x20 ADD DUP3 DUP2 MSTORE PUSH1 0x20 ADD SWAP3 POP POP POP PUSH1 0x40 MLOAD PUSH1 0x20 DUP2 DUP4 SUB SUB DUP2 MSTORE SWAP1 PUSH1 0x40 MSTORE PUSH1 0x40 MLOAD DUP5 PUSH4 0xFFFFFFFF AND PUSH1 0xE0 SHL DUP2 MSTORE PUSH1 0x4 ADD DUP1 DUP5 PUSH1 0x1 PUSH1 0x1 PUSH1 0xA0 SHL SUB AND PUSH1 0x1 PUSH1 0x1 PUSH1 0xA0 SHL SUB AND DUP2 MSTORE PUSH1 0x20 ADD DUP4 DUP2 MSTORE PUSH1 0x20 ADD DUP1 PUSH1 0x20 ADD DUP3 DUP2 SUB DUP3 MSTORE DUP4 DUP2 DUP2 MLOAD DUP2 MSTORE PUSH1 0x20 ADD SWAP2 POP DUP1 MLOAD SWAP1 PUSH1 0x20 ADD SWAP1 DUP1 DUP4 DUP4 PUSH1 0x0 JUMPDEST DUP4 DUP2 LT ISZERO PUSH2 0xBCA JUMPI DUP2 DUP2 ADD MLOAD DUP4 DUP3 ADD MSTORE PUSH1 0x20 ADD PUSH2 0xBB2 JUMP JUMPDEST POP POP POP POP SWAP1 POP SWAP1 DUP2 ADD SWAP1 PUSH1 0x1F AND DUP1 ISZERO PUSH2 0xBF7 JUMPI DUP1 DUP3 SUB DUP1 MLOAD PUSH1 0x1 DUP4 PUSH1 0x20 SUB PUSH2 0x100 EXP SUB NOT AND DUP2 MSTORE PUSH1 0x20 ADD SWAP2 POP JUMPDEST POP SWAP5 POP POP POP POP POP PUSH1 0x20 PUSH1 0x40 MLOAD DUP1 DUP4 SUB DUP2 PUSH1 0x0 DUP8 DUP1 EXTCODESIZE ISZERO DUP1 ISZERO PUSH2 0xC18 JUMPI PUSH1 0x0 DUP1 REVERT JUMPDEST POP GAS CALL ISZERO DUP1 ISZERO PUSH2 0xC2C JUMPI RETURNDATASIZE PUSH1 0x0 DUP1 RETURNDATACOPY RETURNDATASIZE PUSH1 0x0 REVERT JUMPDEST POP POP POP POP PUSH1 0x40 MLOAD RETURNDATASIZE PUSH1 0x20 DUP2 LT ISZERO PUSH2 0xC42 JUMPI PUSH1 0x0 DUP1 REVERT JUMPDEST POP POP PUSH1 0x0 DUP5 DUP2 MSTORE PUSH1 0x20 DUP2 SWAP1 MSTORE PUSH1 0x40 DUP2 KECCAK256 SLOAD PUSH2 0xC62 SWAP1 DUP7 SWAP1 DUP6 SWAP1 ADDRESS SWAP1 PUSH2 0xCA7 JUMP JUMPDEST PUSH1 0x0 DUP7 DUP2 MSTORE PUSH1 0x20 DUP2 SWAP1 MSTORE PUSH1 0x40 SWAP1 KECCAK256 SLOAD SWAP1 SWAP2 POP PUSH2 0xC85 SWAP1 PUSH1 0x1 PUSH4 0xFFFFFFFF PUSH2 0xCEE AND JUMP JUMPDEST PUSH1 0x0 DUP7 DUP2 MSTORE PUSH1 0x20 DUP2 SWAP1 MSTORE PUSH1 0x40 SWAP1 KECCAK256 SSTORE PUSH2 0xC9E DUP6 DUP3 PUSH2 0xD4F JUMP JUMPDEST SWAP6 SWAP5 POP POP POP POP POP JUMP JUMPDEST PUSH1 0x40 DUP1 MLOAD PUSH1 0x20 DUP1 DUP3 ADD SWAP7 SWAP1 SWAP7 MSTORE DUP1 DUP3 ADD SWAP5 SWAP1 SWAP5 MSTORE PUSH1 0x1 PUSH1 0x1 PUSH1 0xA0 SHL SUB SWAP3 SWAP1 SWAP3 AND PUSH1 0x60 DUP5 ADD MSTORE PUSH1 0x80 DUP1 DUP5 ADD SWAP2 SWAP1 SWAP2 MSTORE DUP2 MLOAD DUP1 DUP5 SUB SWAP1 SWAP2 ADD DUP2 MSTORE PUSH1 0xA0 SWAP1 SWAP3 ADD SWAP1 MSTORE DUP1 MLOAD SWAP2 ADD KECCAK256 SWAP1 JUMP JUMPDEST PUSH1 0x0 DUP3 DUP3 ADD DUP4 DUP2 LT ISZERO PUSH2 0xD48 JUMPI PUSH1 0x40 DUP1 MLOAD PUSH3 0x461BCD PUSH1 0xE5 SHL DUP2 MSTORE PUSH1 0x20 PUSH1 0x4 DUP3 ADD MSTORE PUSH1 0x1B PUSH1 0x24 DUP3 ADD MSTORE PUSH32 0x536166654D6174683A206164646974696F6E206F766572666C6F770000000000 PUSH1 0x44 DUP3 ADD MSTORE SWAP1 MLOAD SWAP1 DUP2 SWAP1 SUB PUSH1 0x64 ADD SWAP1 REVERT JUMPDEST SWAP4 SWAP3 POP POP POP JUMP JUMPDEST PUSH1 0x40 DUP1 MLOAD PUSH1 0x20 DUP1 DUP3 ADD SWAP5 SWAP1 SWAP5 MSTORE DUP1 DUP3 ADD SWAP3 SWAP1 SWAP3 MSTORE DUP1 MLOAD DUP1 DUP4 SUB DUP3 ADD DUP2 MSTORE PUSH1 0x60 SWAP1 SWAP3 ADD SWAP1 MSTORE DUP1 MLOAD SWAP2 ADD KECCAK256 SWAP1 JUMP JUMPDEST PUSH1 0x40 MLOAD DUP1 PUSH1 0xE0 ADD PUSH1 0x40 MSTORE DUP1 PUSH1 0x0 DUP2 MSTORE PUSH1 0x20 ADD PUSH1 0x0 DUP2 MSTORE PUSH1 0x20 ADD PUSH1 0x0 DUP2 MSTORE PUSH1 0x20 ADD PUSH1 0x0 DUP2 MSTORE PUSH1 0x20 ADD PUSH1 0x0 DUP2 MSTORE PUSH1 0x20 ADD PUSH1 0x60 DUP2 MSTORE PUSH1 0x20 ADD PUSH1 0x0 PUSH1 0x1 PUSH1 0x1 PUSH1 0xA0 SHL SUB AND DUP2 MSTORE POP SWAP1 JUMP JUMPDEST DUP3 DUP1 SLOAD DUP3 DUP3 SSTORE SWAP1 PUSH1 0x0 MSTORE PUSH1 0x20 PUSH1 0x0 KECCAK256 SWAP1 DUP2 ADD SWAP3 DUP3 ISZERO PUSH2 0xE16 JUMPI SWAP2 PUSH1 0x20 MUL DUP3 ADD JUMPDEST DUP3 DUP2 GT ISZERO PUSH2 0xE16 JUMPI DUP3 MLOAD DUP3 SLOAD PUSH1 0x1 PUSH1 0x1 PUSH1 0xA0 SHL SUB NOT AND PUSH1 0x1 PUSH1 0x1 PUSH1 0xA0 SHL SUB SWAP1 SWAP2 AND OR DUP3 SSTORE PUSH1 0x20 SWAP1 SWAP3 ADD SWAP2 PUSH1 0x1 SWAP1 SWAP2 ADD SWAP1 PUSH2 0xDE1 JUMP JUMPDEST POP PUSH2 0xE22 SWAP3 SWAP2 POP PUSH2 0xE26 JUMP JUMPDEST POP SWAP1 JUMP JUMPDEST PUSH2 0x649 SWAP2 SWAP1 JUMPDEST DUP1 DUP3 GT ISZERO PUSH2 0xE22 JUMPI DUP1 SLOAD PUSH1 0x1 PUSH1 0x1 PUSH1 0xA0 SHL SUB NOT AND DUP2 SSTORE PUSH1 0x1 ADD PUSH2 0xE2C JUMP INVALID 0x4E PUSH16 0x7420656E6F756768204C494E4B20666F PUSH19 0x20565246207472616E73616374696F6EA26469 PUSH17 0x66735822122039E2A323105B818C4DAB78 NOT 0xC9 SWAP1 PUSH10 0x3BAE017F35B18F62FDBC SWAP16 CREATE2 PUSH25 0x1B9EE48764736F6C6343000606003300000000000000000000 ",
  "sha1": "72629a52b95141123347df479d4b0aa36b891040",
  "source": "// SPDX-License-Identifier: MIT\n\n//TODO\n//DONE just take 1% cut from final jackpot dispersal\n//give tickets based on .1 matic per ticket\n//end ticket loop once winner is found\n\npragma solidity 0.6.6;\n\nimport \"@chainlink/contracts/src/v0.6/VRFConsumerBase.sol\";\n\ninterface IUniswapV2Router02 {\n    function swapETHForExactTokens(\n        uint256 amountOut,\n        address[] calldata path,\n        address to,\n        uint256 deadline\n    ) external payable returns (uint256[] memory amounts);\n\n    function getAmountsIn(uint256 amountOut, address[] calldata path)\n        external\n        view\n        returns (uint256[] memory amounts);\n}\n\n//swaps non-compatible link to oracle compatible link\ninterface IPegSwap {\n    function swap(\n        uint256 amount,\n        address source,\n        address target\n    ) external;\n}\n\ninterface IERC20 {\n    function approve(address spender, uint256 amount) external returns (bool);\n}\n\n//author => kribs.eth\ncontract JackpotGame is VRFConsumerBase {\n    event NewJackpot(uint256 index, uint256 blockstamp);\n    event PlayerJoin(uint256 bet, address player);\n    event JackpotResult(address winner, uint256 jackpotSize);\n\n    // chainlink vrf variables\n    bytes32 internal keyHash;\n    uint256 internal fee;\n\n    //jackpot struct to organize each jackpot info\n    struct Jackpot {\n        uint256 index;\n        uint256 size;\n        uint256 blockstamp;\n        uint256 jackpotEndTime;\n        uint256 ticketIndex;\n        address[] players;\n        address payable winner;\n    }\n\n    // used to track game information\n    uint256 index;\n    address[] players;\n    mapping(uint256 => Jackpot) jackpotIndex;\n    Jackpot currentJackpot;\n    uint256[] playerTicketArray;\n    uint256 totalTickets;\n\n    // used to determine whether a jackpot can be created/joined\n    bool jackpotActive;\n\n    address owner;\n\n    mapping(uint256 => address) ticketToPlayer;\n    mapping(address => uint256) playerBet;\n\n    // Routers for automated link oracle payment\n    IUniswapV2Router02 UNIQuickSwap = IUniswapV2Router02(\n        0xa5E0829CaCEd8fFDD4De3c43696c57F7D7A678ff\n    );\n    IPegSwap PegSwap = IPegSwap(0xAA1DC356dc4B18f30C347798FD5379F3D77ABC5b);\n\n    modifier onlyOwner() {\n        require(msg.sender == owner, \"Function only callable by owner\");\n        _;\n    }\n\n    receive() external payable {\n        if (\n            (msg.sender != address(UNIQuickSwap)) &&\n            (msg.sender != address(PegSwap))\n        ) {\n            /* Donations welcomed :) */\n            payable(owner).transfer(msg.value);\n        }\n    }\n\n    /**\n     * Constructor inherits VRFConsumerBase\n     *\n     * Network: Matic\n     * Chainlink VRF Coordinator address: 0x3d2341ADb2D31f1c5530cDC622016af293177AE0\n     * LINK token address:                0xb0897686c545045aFc77CF20eC7A532E3120E0F1\n     * Key Hash: 0xf86195cf7690c55907b2b611ebb7343a6f649bff128701cc542f0569e2c549da\n     */\n\n    constructor()\n        public\n        VRFConsumerBase(\n            0x3d2341ADb2D31f1c5530cDC622016af293177AE0, // VRF Coordinator\n            0xb0897686c545045aFc77CF20eC7A532E3120E0F1 // Link Token Address\n        )\n    {\n        keyHash = 0x6e75b569a01ef56d18cab6a8e71e6600d6ce853834d4a5748b720d06f878b3a4;\n        fee = 0.0001 * 10**18; //0.001 default link oracle fee\n        index = 0;\n        owner = msg.sender;\n    }\n\n    function newJackpot(uint256 _lengthInHours) public payable {\n        require(jackpotActive == false, \"Jackpot already active\");\n        require(_lengthInHours <= 24, \"24 hour jackpot length max\");\n        jackpotActive = true;\n        currentJackpot = Jackpot(\n            index,\n            msg.value,\n            block.timestamp,\n            block.timestamp + (_lengthInHours * 1 hours),\n            0,\n            players,\n            address(this)\n        );\n        emit NewJackpot(index, block.timestamp);\n    }\n\n    function enterJackpot() public payable {\n        require(jackpotActive == true, \"no active jackpot to join\");\n        currentJackpot.players.push(msg.sender);\n        currentJackpot.size += msg.value;\n        playerBet[msg.sender] = msg.value;\n\n        for (\n            currentJackpot.ticketIndex;\n            currentJackpot.ticketIndex <= msg.value;\n            currentJackpot.ticketIndex++\n        ) {\n            ticketToPlayer[currentJackpot.ticketIndex] = msg.sender;\n        }\n\n        emit PlayerJoin(msg.value, msg.sender);\n\n        if (now >= currentJackpot.jackpotEndTime) {\n            getRandomNumber(currentJackpot.players.length);\n        }\n    }\n\n    function pickWinner(uint256 randomness) internal {\n        uint256 winningTicket = randomness % currentJackpot.ticketIndex;\n        currentJackpot.winner = payable(ticketToPlayer[winningTicket]);\n        currentJackpot.winner.transfer((currentJackpot.size * 99) / 100);\n        jackpotActive = false;\n        if (currentJackpot.index % 5 == 0) {\n            payable(owner).transfer(address(this).balance);\n        }\n        Jackpot memory indexableJackpot = currentJackpot;\n        jackpotIndex[index] = indexableJackpot;\n        index++;\n        emit JackpotResult(currentJackpot.winner, currentJackpot.size);\n    }\n\n    function changeOwner(address _newOwner) public onlyOwner {\n        owner = _newOwner;\n    }\n\n    function getJackpotCount() external view returns (uint256) {\n        return index;\n    }\n\n    function getJackpotInfo(uint256 _i)\n        external\n        view\n        returns (\n            uint256 _index,\n            uint256 _size,\n            uint256 _blockstamp,\n            uint256 _jackpotEndTime,\n            uint256 _ticketIndex,\n            address[] memory _players,\n            address winner\n        )\n    {\n        Jackpot memory jackpot = jackpotIndex[_i];\n        return (\n            _i,\n            jackpot.size,\n            jackpot.blockstamp,\n            jackpot.jackpotEndTime,\n            jackpot.ticketIndex,\n            jackpot.players,\n            jackpot.winner\n        );\n    }\n\n    //CHAINLINK VRF FUNCTIONS BELOW\n    function getRandomNumber(uint256 userProvidedSeed)\n        internal\n        returns (bytes32 requestId)\n    {\n        require(\n            LINK.balanceOf(address(this)) >= fee,\n            \"Not enough LINK for VRF transaction\"\n        );\n        return requestRandomness(keyHash, fee, userProvidedSeed);\n    }\n\n    function fulfillRandomness(bytes32 requestId, uint256 randomness)\n        internal\n        override\n    {\n        pickWinner(randomness);\n    }\n}\n\n//PICK WINNER OLD CODE\n//     for (uint256 i = 0; i <= totalTickets; i++) {\n//         uint256[] memory playerArray = playerTickets[currentJackpot\n//             .players[i]];\n//         for (uint256 j = 0; j <= playerArray.length; j++) {\n//             if (playerArray[j] == winningTicket) {\n//                 currentJackpot.winner = payable(currentJackpot.players[i]);\n//                 payable(currentJackpot.winner).transfer(\n//                     (currentJackpot.size * 99) / 100\n//                 );\n//                 jackpotActive = false;\n//                 if (currentJackpot.index % 5 == 0) {\n//                     payable(owner).transfer(address(this).balance);\n//                 }\n//                 index++;\n//                 emit JackpotResult(\n//                     currentJackpot.winner,\n//                     currentJackpot.size\n//                 );\n//             }\n//         }\n//     }\n// }\n//\n// OLD METHOD OF TICKET GENERATION\n// function generateTickets() internal {\n//     uint256 j = 0;\n//     totalTickets = 0;\n//     for (uint256 i = 0; i <= currentJackpot.players.length; i++) {\n//         uint256 percentOfPot = (playerBet[currentJackpot.players[i]] /\n//             currentJackpot.size);\n\n//         for (j; j <= percentOfPot; j++) {\n//             playerTicketArray.push(j);\n//         }\n//         playerTickets[currentJackpot.players[i]] = playerTicketArray;\n\n//         totalTickets += playerTicketArray.length;\n\n//         delete playerTicketArray;\n//     }\n// }\n",
  "sourcePath": "contracts/Jackpot.sol",
  "type": "contract"
}